S01B00005155544D535F5374656572696E67576865656C2E73726563DA
S11300000C943E000C9448000C9448000C94480056
S11300100C9448000C9448000C9448000C9448003C
S11300200C9448000C9448000C9448000C9448002C
S11300300C9448000C9448000C9448000C9448001C
S11300400C9448000C9448000C9448000C9448000C
S11300500C9448000C9448000C9448000C944800FC
S11300600C9448000C9448000C9448000C944800EC
S11300700C9448000C9448000C94480011241FBEB2
S1130080CFEFD0E1DEBFCDBF0E944A000C945700F1
S11300900C94000014B817B81AB82FE986E891E058
S11300A0215080409040E1F700C00000F6CFF89462
S10500B0FFCF7C
S9030000FC
