S01B00005155544D535F5374656572696E67576865656C2E73726563DA
S11300000C9407130C9424130C9424130C942413AD
S11300100C9424130C9424130C9424130C94241380
S11300200C9424130C9424130C9426130C9424136E
S11300300C9424130C9424130C9424130C94241360
S11300400C9424130C9424130C9434130C94241340
S11300500C9424130C9424130C9424130C94241340
S11300600C9424130C9424130C9424130C94241330
S11300700C9424130C9424130C94241308000000EF
S1130080BE922449123EABAAAA2ABECDCCCC4C3E89
S113009000000080BEABAAAAAA3E00000000BF0078
S11300A00000803F0000000000084178D3BB438774
S11300B0D1133D190E3CC3BD4282AD2B3E68EC8288
S11300C076BED98FE1A93E4C80EFFFBE01C4FF7F0D
S11300D03F000000000000000000000000000000DD
S11300E0000000000000000000000000000000000C
S11300F000000000000000000000000000000000FC
S113010000000000000000000000000000000000EB
S113011000000000000000000000000000000000DB
S113012000000000000000000000000000000000CB
S113013000000000000000000000000000000000BB
S113014000000000000000000000000000000000AB
S1130150000000000000000000000000000000009B
S1130160000000000000000000000000000000008B
S1130170000000000000000000000000000000007B
S1130180000000000000000000000000000000006B
S1130190000000000000000000000000000000005B
S11301A0000000000000000000000000000000004B
S11301B0000000000000000000000000000000003B
S11301C0000000000000000000000000000000002B
S11301D0000000000000000000000000000000001B
S11301E0000000000000000000000000000000000B
S11301F000000000000000000000000000000000FB
S113020000000000000000000000000000000000EA
S113021000000000000000000000000000000000DA
S113022003F80000000000000000000000000000CF
S113023000000000000000000000000000000000BA
S11302401FFE00FC03F7FFFF3FC01FE01FF000008C
S1130250000000000000000000000000000000009A
S11302607FFF80FC07E7FFFE3FC03FE01FE0000088
S1130270000000000000000000000000000000007A
S1130280FFFFC1F807E7FFFE3FC03FC01FE00000CB
S11302900000000000000000000000000000000159
S11302A0FFFFC1F807EFFFFE7F803FC03FE0000083
S11302B00000000000000000000000000000000733
S11302C0FFFFE1F80FCFFFFC7F803FC03FC000007D
S11302D00000000000000000000000000000000713
S11302E0FC7FE3F00FC03F007F807F803FC00000B1
S11302F00000000000000000000000000000000FEB
S1130300F01FE3F00FC03F00FF007F807FC00000BC
S11303100000000000000000000000000000001FBA
S1130320C00FE3F01F807E00FF007F807F8000000D
S11303300000000000000000000000000000003F7A
S1130340800FE7E01F807E0000FF007F8000000038
S11303500000000000000000000000000000003F5A
S1130360800FE7E01F807E0000FF00FF0000000018
S11303700000000000000000000000000000007FFA
S1130380000FE7E03F00FC0001FF00FF0000000059
S11303900000000000000000000000000000007FDA
S11303A0000FCFC03F00FC0001FE00FF0000000072
S11303B00000000000000000000000000000007EBB
S11303C0000FCFC03F00FC0001FE01FE0000000052
S11303D00000000000000000000000000000007E9B
S11303E001FFCFC07E01F80003FE01FE0000000003
S11303F0000000000000000000000000000000FEFB
S113040003FF9F807E01F80003FC01FE0000000052
S1130410000000000000000000000000000000FEDA
S113042003FF9F807E01F80003FC03FC0000000032
S1130430000000000000000000000000000000FEBA
S113044001FF1F80FC03F007F803FC03FC0000001D
S1130450000000000000000000000000000000FF99
S113046001FF1F80FC03F007F807FC03FC000000F9
S1130470000000000000000000000000000000FF79
S113048083FE3F81F803F00FF807F803FC00000037
S11304900000000000000000000000000000007FD9
S11304A0FFFC3FFFF807F00FF007F807F800000023
S11304B00000000000000000000000000000007FB9
S11304C0FFFC1FFFF007E00FF00FF807F800000033
S11304D00000000000000000000000000000003FD9
S11304E0FFFC1FFFE007E01FF00FF007F80000001B
S11304F00000000000000000000000000000003FB9
S1130500FFFE0FFFC00FE01FE00FF00FF800000028
S11305100000000000000000000000000000000FC8
S1130520FFFE07FF000FC01FE01FF00FF0000000E8
S113053000000000000000000000000000000003B4
S1130540F87E01F8000FC01FC01FE00FF00000008C
S11305500000000000000000000000000000000097
S11305600000000000000000000000000000000087
S11305700000000000000000000000000000000077
S11305800000000000000000000000000000000067
S1130590000000000000000000000000000007FF51
S11305A0FFFFFFFFFFFFFFFFFFFFFFFFE000000073
S11305B000000000000000000000000000000FFF29
S11305C0FFFFFFFFFFFFFFFFFFFFFFFFE000000053
S11305D000000000000000000000000000000FFF09
S11305E0FFFFFFFFFFFFFFFFFFFFFFFFC000000053
S11305F000000000000000000000000000000EFDEC
S1130600F03C0781F03E0F81F03E0781C0000000FE
S113061000000000000000000000000000001C7941
S1130620E01C0701E03C0701E03C0701C0000000BA
S113063000000000000000000000000000001C6139
S1130640C71F3E38E738CF39C71C67CF800000008A
S113065000000000000000000000000000001C0377
S1130660CF1E3C79E7383F318F1CE7CF8000000074
S1130670000000000000000000000000000038033B
S11306808F1E7CF9C07C1E039F380F8F80000000F2
S1130690000000000000000000000000000039031A
S11306A08F3E7CF1C0FF8E079E381F9F0000000024
S11306B0000000000000000000000000000039E716
S11306C08C3C7C63CCF39C1F8C799F9F00000000C2
S11306D0000000000000000000000000000071E7BE
S11306E0807CFC078CF01C7F80F19F1F00000000C1
S11306F0000000000000000000000000000073C7BC
S1130700C1FCFE0F9C783CFFC1F38F3E000000004B
S113071000000000000000000000000000007FFF57
S1130720FFFFFFFFFFFFFFFFFFFFFFFE00000000D2
S11307300000000000000000000000000000FFFFB7
S1130740FFFFFFFFFFFFFFFFFFFFFFFE00000000B2
S11307500000000000000000000000000000000095
S11307600000000000000000000000000000000085
S11307700000000000000000000000000000000075
S11307800000000000000000000000000000000065
S11307900000000000000000000000000000000055
S11307A00000000000000000000000000000000045
S11307B00000000000000000000000000000000035
S11307C00000000000000000000000000000000025
S11307D00000000000000000000000000000000015
S11307E00000000000000000000000000000000005
S11307F000000000000000000000000000000000F5
S113080000000000000000000000000000000000E4
S113081000000000000000000000000000000000D4
S113082000000000000000000000000000000000C4
S113083000000000000000000000000000000000B4
S113084000000000000000000000000000000000A4
S11308500000000000000000000000000000000094
S11308600000000000000000000000000000000084
S11308700000000000000000000000000000000074
S11308800000000000000000000000000000000064
S11308900000000000000000000000000000000054
S11308A00000000000000000000000000000000044
S11308B00000000000000000000000000000000034
S11308C00000000000000000000000000000000024
S11308D00000000000000000000000000000000014
S11308E00000000000000000000000000000000004
S11308F000000000000000000000000000000000F4
S1130900000000000000000000000380038003805A
S113091003800380038003800380038003800380BB
S113092003800380038000000000038003800380B1
S11309300000000000000000000000001CE01CE0BB
S11309401CE01CE01CE01CE00000000000000000B3
S11309500000000000000000000000000000000093
S11309600000000000000000000000000000000083
S1130970000006380638063806383FFE3FFE0E7083
S11309800E700C700C707FFC7FFC0C701CE01CE083
S11309901CE01CE0000000000000000000000060FB
S11309A000C000C007F00FF81CC838C038C0388039
S11309B01F800F8007E001F801BC019C031C031C8D
S11309C023383FF81FE00300030006000000000086
S11309D000003C0C7E18E738E730E760E7607EC033
S11309E03D8001800300070006780CFC1DCE19CE63
S11309F031CE31CE60FCC078000000000000000061
S1130A000000000007C01FE03CF0387038703870F8
S1130A1038E01DC01F801E003F1C3B9C71DC71D858
S1130A2070F8707078F83FFC0F8E00000000000032
S1130A300000000000000380038003800380038023
S1130A40038000000000000000000000000000001F
S1130A500000000000000000000000000000000092
S1130A60000000000000004000E001C0038003001B
S1130A7007000E000E000E001C001C001C001C00D1
S1130A801C001C001C000E000E000E0007000700D6
S1130A90038001C000E0004004000E000700038052
S1130AA001C001C000E000E000E0007000700070D0
S1130AB0007000700070007000E000E000E001C011
S1130AC00180038007000E00040000000180018003
S1130AD009901DB807E0018007E01DB8019001806E
S1130AE00180000000000000000000000000000081
S1130AF000000000000000000000000000000000F2
S1130B000000000000000000000003800380038058
S1130B10038003807FFC7FFC0380038003800380C9
S1130B20038000000000000000000000000000003E
S1130B3000000000000000000000000000000000B1
S1130B40000000000000000000000000000007009A
S1130B500780078003800380038007001E001C00B9
S1130B600000000000000000000000000000000081
S1130B7000000000000000001FE01FE00000000073
S1130B800000000000000000000000000000000061
S1130B900000000000000000000000000000000051
S1130BA00000000000000000000000000000000041
S1130BB0000003000780078003000000000000001D
S1130BC00000000000000018003800300030006011
S1130BD0006000E000C000C0018001800300030049
S1130BE00700060006000C000C001C00180018008A
S1130BF030000000000000000000000007C01FF0EB
S1130C001C7838383838703C707C71DC739C771CE5
S1130C107C1C781C383838383C701FF007C0000042
S1130C20000000000000000000000000000001C0FF
S1130C3007C01DC039C011C001C001C001C001C03E
S1130C4001C001C001C001C001C001C01FF81FF8EC
S1130C500000000000000000000000000000000090
S1130C600F801FE038E0107000700070007000E02A
S1130C7000E001C0038007000E001C0018003FF8CC
S1130C803FF8000000000000000000000000000029
S1130C9000001F803FE020F000700070007000E052
S1130CA00FC00FE000F0003800380038003800F0C2
S1130CB03FE03F8000000000000000000000000052
S1130CC000000000007800F801F803B80338063883
S1130CD00E380C381838303870387FFE7FFE0038F4
S1130CE00038003800380000000000000000000058
S1130CF00000000000003FF03FF0380038003800EA
S1130D00380038003FC03FF000F8003800380038A1
S1130D10007800F03FE03F80000000000000000089
S1130D20000000000000000001F807F80F001E009A
S1130D301C00180038003BF03FF83C3C381C381CC1
S1130D40381C1C1C1C380FF007E0000000000000D9
S1130D50000000000000000000003FFC3FFC001CFD
S1130D600018003800300070006000E000C001C0CE
S1130D70018003800300070006000E00000000004D
S1130D8000000000000000000000000007E01FF861
S1130D903C3C381C381C3C1C1E780FE007F01E78C5
S1130DA01C3C381C381C381C3C3C1FF807E0000075
S1130DB0000000000000000000000000000007C068
S1130DC01FF03C787838701C701C701C701C383C08
S1130DD03FFC0FDC00180038007000F03FC03F00FB
S1130DE000000000000000000000000000000000FF
S1130DF000000000000000000300078007800300DB
S1130E0000000000000000000000030007800780CD
S1130E1003000000000000000000000000000000CB
S1130E2000000000000000000000018003C003C0B7
S1130E30018000000000000000000000038003C0E7
S1130E4003C001C001C001C003800F000E000000F8
S1130E5000000000000000000020007000E001C05D
S1130E6007000E001C0038001C000E00078001C0A3
S1130E7000E00070002000000000000000000000FE
S1130E80000000000000000000000000000000005E
S1130E9000003FF83FF80000000000003FF83FF872
S1130EA0000000000000000000000000000000003E
S1130EB000000000000000000000000008001C000A
S1130EC00E00070003C000E000700038007000E06E
S1130ED001C007000E001C00080000000000000014
S1130EE00000000000000F000FC001E00070003897
S1130EF0003800380038007803F003E003800380F2
S1130F000380000000000700070007000000000045
S1130F10000000000000000003E007F80E18180CA1
S1130F20380C3006600661F663F6C736C676CE66C0
S1130F30CE66CE66CE66CEECCFBCC738E00060008D
S1130F40700038201FE00FC0000000000000038084
S1130F5002C006C006C006E00C600C600C701830BD
S1130F60183018303FF83FF83018701C600C600CD3
S1130F70000000000000000000000000000000006D
S1130F803FE03FF0387838383838383838703FE048
S1130F903FF03838381C381C381C381C38383FF0BF
S1130FA03FC000000000000000000000000000003E
S1130FB0000003F00FF81E083C00380070007000B9
S1130FC070007000700070007000380038001E0857
S1130FD00FF807F00000000000000000000000000F
S1130FE0000000007F807FE0707070387038701CE3
S1130FF0701C701C701C701C701C701C7038703855
S113100070F07FE07F80000000000000000000001E
S11310100000000000001FF81FF81C001C001C004A
S11310201C001C001FF81FF81C001C001C001C00E6
S11310301C001C001FF81FF8000000000000000046
S113104000000000000000001FF81FF81C001C0036
S11310501C001C001C001FF81FF81C001C001C00B6
S11310601C001C001C001C001C00000000000000F0
S11310700000000000000000000003F80FFC1E0444
S11310803C0038007800700070FC70FC701C701C10
S1131090701C381C381C1E1C0FFC03F000000000E0
S11310A000000000000000000000000070387038EC
S11310B0703870387038703870387FF87FF870384E
S11310C07038703870387038703870387038000084
S11310D000000000000000000000000000003FF8D5
S11310E03FF8038003800380038003800380038030
S11310F00380038003800380038003803FF83FF86C
S113110000000000000000000000000000000000DB
S11311103FF03FF0007000700070007000700070CD
S113112000700070007000700070007020E03FC01C
S11311301F8000000000000000000000000000000C
S1131140000038183838387038E038C039803B80AF
S11311503B003E003B003B8039C038C038E038706B
S11311603838381C000000000000000000000000B7
S1131170000000001C001C001C001C001C001C00C3
S11311801C001C001C001C001C001C001C001C007B
S11311901C001FF81FF80000000000000000000001
S11311A00000000000003838383838383C783C7883
S11311B0345836D836983298339830183018301856
S11311C030183018301830180000000000000000FB
S11311D000000000000000003C383C383C383E3839
S11311E03A383A383B383938393839B839B838B8F0
S11311F038F838F83878387838780000000000007B
S11312000000000000000000000007C00FF01C7880
S11312103838383C701C701C701C701C701C701C9E
S1131220701C783838383C701FE007C0000000009C
S11312300000000000000000000000003FE03FF05C
S11312403878381C381C381C381C383C38783FF047
S11312503FC038003800380038003800380000003B
S1131260000000000000000000000000000007E093
S11312700FF81C3C381C381C700E700E700E700E6B
S1131280700E700E700E781C381C3C381FF007E08E
S113129001C001C000E200FF003E000000000000A9
S11312A03FC03FF0387838383838383838383870F4
S11312B03FE03FC038E03870387038383838381874
S11312C0381C0000000000000000000000000000C6
S11312D0000007F00FF81C083800380038001E0022
S11312E01F8007E000F8003C001C001C001C203894
S11312F03FF01FE0000000000000000000000000BC
S1131300000000007FFC7FFC0380038003800380D7
S113131003800380038003800380038003800380B1
S11313200380038003800000000000000000000030
S1131330000000000000701C701C701C701C701CED
S1131340701C701C701C701C701C701C701C701C39
S1131350703C38381FF00FC000000000000000008F
S11313600000000000000000600C700C701C3018BD
S113137030183838183018301C701C600C600EE0BF
S11313800EC006C006C007800380000000000000F5
S113139000000000000000000000701C701C701CA5
S11313A0701C701C701C719C739C739C729C76DC0A
S11313B036D834583C783C78383838380000000047
S11313C0000000000000000000000000701C38381D
S11313D018301C700EE007C007C00380038007C0EC
S11313E00EE00EE01C7038383838701CE00E000037
S11313F00000000000000000000000000000E00EFB
S1131400701C701C383838381C700C600EE006C034
S113141007C003800380038003800380038003806C
S113142000000000000000000000000000000000B8
S11314307FF87FF80030006000E000C001C0018048
S11314400300070006000C001C00180030007FFC9D
S11314507FFC00000000000000000000000000000D
S11314600000000000000000000007E01FF8103C2E
S1131470001C001C07FC1FFC3C1C381C381C3C7C5A
S11314801FFC0F9C00000000000000000000000092
S113149038003800380038003800380039E03BF8AC
S11314A03E383C1C381C381C381C381C381C383856
S11314B038783FF01FC0000000000000000000006A
S11314C0000000000000000000000000000003E035
S11314D00FF01E101C0038003800380038003800A7
S11314E03C001E100FF007E00000000000000000A8
S11314F00000000000380038003800380038003898
S113150007F81FF83C38383870387038703870383D
S11315107038707838F83FB80F38000000000000C9
S113152000000000000000000000000000000000B7
S1131530000003E00FF01C38181C381C3FFC3FFC73
S1131540380038003C001E080FF807F000000000C7
S1131550000000000000000000FC03FC0380070002
S11315600700070007007FF87FF80700070007005F
S11315700700070007000700070007000700000036
S11315800000000000000000000000000000000057
S113159000000000000007FC1FFC3C783838383895
S11315A038383C781FF03FC0380038003FF01FFC4B
S11315B0701C701C783C3FF81FE0000038003800B5
S11315C0380038003800380039E03BF03E783C38C9
S11315D03838383838383838383838383838383887
S11315E03838000000000000000000000000000087
S11315F0018003C00180000000003FC03FC001C063
S113160001C001C001C001C001C001C001C001C0CE
S11316103FF83FF800000000000000000000000058
S1131620000000C001E000C0000000003FE03FE017
S113163000E000E000E000E000E000E000E000E0A6
S113164000E000E000E000E000E041C07F803F00F7
S113165000003800380038003800380038003838C6
S1131660387038E039C03B803F003B803B8039C054
S113167038E038E03870383800000000000000001E
S1131680000000003FC03FC001C001C001C001C054
S113169001C001C001C001C001C001C001C001C03E
S11316A001C001C001C03FF83FF800000000000085
S11316B00000000000000000000000000000000026
S11316C0000077387F7C7BDC739C739C739C739CD9
S11316D0739C739C739C739C739C739C00000000AC
S11316E000000000000000000000000000000000F6
S11316F00000000039E03FF03E783C383838383894
S113170038383838383838383838383838380000C5
S113171000000000000000000000000000000000C5
S113172000000000000007E01FF03C78383C701C0B
S1131730701C701C701C701C38383C781FF00FC073
S11317400000000000000000000000000000000095
S1131750000000000000000039E03FF83E383C1C67
S1131760381C381C381C381C381C383838783FF082
S11317703FC038003800380038003800000000004E
S11317800000000000000000000007F81FF83C38CB
S1131790383870387038703870387038707838F875
S11317A03FB80F38003800380038003800380000DF
S11317B00000000000000000000000001CF81DFCF8
S11317C01F1E1E0E1C0E1C001C001C001C001C00F6
S11317D01C001C001C0000000000000000000000B1
S11317E0000000000000000000000000000007E00E
S11317F01FF03C1038003C001F000FE001F00038DF
S1131800003820783FF01FC00000000000000000F6
S113181000000000000000000700070007000700A8
S11318207FF87FF80700070007000700070007009C
S113183007000700078003F801F80000000000001B
S11318400000000000000000000000000000000094
S11318500000383838383838383838383838383874
S11318603838383838783CF81FF80F380000000052
S11318700000000000000000000000000000000064
S113188000000000601870183038303038301860AC
S11318901C600C600CC006C006C0078003800000FA
S11318A00000000000000000000000000000000034
S11318B0000000000000600C600C600C618C638C04
S11318C0738C32CC32CC366C346834681C381C3897
S11318D00000000000000000000000000000000004
S11318E00000000000000000701C38381C700C6000
S11318F00EE007C0038007C006E00C601C70383897
S1131900701C000000000000000000000000000047
S1131910000000000000000000006018703830383B
S11319203830383018601C600C600EC006C0068069
S113193003800380030007000E00FC00F000000099
S11319400000000000000000000000003FF03FF035
S1131950006000C001C00180030006000E000C00FE
S113196018003FF03FF000000000000000000000FD
S11319700000000000000000000000000000000063
S11319800000000000000000000000000000000053
S113199000000000000000000C000C000C000C0013
S11319A00C000C000C000C000C000C0000000E00DD
S11319B00E000E000000000000000000000019806E
S11319C019801980198019800000000000000000AF
S11319D00000000000000000000000000000000003
S11319E0000000000000130013001300FFC0FFC03C
S11319F013003600FF80FF803600360036003600C4
S1131A000000000000000000020002001F803F8070
S1131A106600660074003C001F0007800CC00CC008
S1131A204DC07F803F000800080000000000000057
S1131A307840FCC0CD80CD00FF007E0004000C0087
S1131A400BC017E03660266067E0C3C000000000EA
S1131A500000000000000F003F803180318033809F
S1131A601F001C003C60666063E061C071C03FE021
S1131A701F70000000000000000000000C000C00BB
S1131A800C000C000C00000000000000000000002E
S1131A900000000000000000000000000000000042
S1131AA001000380030006000C000C00180018005D
S1131AB0180018001800180018000C000C0006008C
S1131AC00700038001001000380018000C00060015
S1131AD006000300030003000300030003000300E7
S1131AE0060006000C001800380010000000040076
S1131AF0248035800E000E0037802480040000000E
S1131B0000000000000000000000000000000000D1
S1131B1000000000000000000000060006000600AF
S1131B2006007FE07FE006000600060006000000D5
S1131B3000000000000000000000000000000000A1
S1131B400000000000000000000000000000000091
S1131B500C000E00060006003C00380000000000E7
S1131B6000000000000000000000000000001F80D2
S1131B701F800000000000000000000000000000C2
S1131B800000000000000000000000000000000051
S1131B900000000000000000000000000E000E0025
S1131BA00E00000000000000000000000080018022
S1131BB00180030003000200060004000C0008007A
S1131BC01800180010003000200060000000000021
S1131BD0000000000F001FC030C070E060E063E050
S1131BE06F607C60706070E030C03F800F00000068
S1131BF00000000000000000000006001E00360087
S1131C002600060006000600060006000600060080
S1131C103FC03FC0000000000000000000000000C2
S1131C203C007E00430003000300030006000C0098
S1131C301800300020007F807F800000000000003A
S1131C400000000000001E003F8021800180018010
S1131C500F000F8001C000C000C001C03F803E00E3
S1131C6000000000000000000000000007000F005A
S1131C700B001B00330023006300C300FFC0FFC040
S1131C800300030003000000000000000000000047
S1131C9000003F803F803000300030003F003F8034
S1131CA001C000C000C001C03F803E000000000031
S1131CB0000000000000000007801F803800300092
S1131CC060006F007F8071C060C060C031C03F8021
S1131CD01F000000000000000000000000007FC0A2
S1131CE07FC000C0018001800300030006000600DD
S1131CF00C000C0018001800000000000000000098
S1131D00000000001F003FC060C060C071801F0061
S1131D101F00338060C060C060C03F801F000000AF
S1131D20000000000000000000001F003F807180E0
S1131D3060C060C071C03FC01EC000C0018003808D
S1131D403F003C0000000000000000000000000014
S1131D500000000000000E000E000E000000000055
S1131D60000000000E000E000E0000000000000045
S1131D700000000000000000000000000E000E0043
S1131D800E0000000000000000000C000E00060021
S1131D9006003C00380000000000000000000000C5
S1131DA00100030006000C003000600030000C004D
S1131DB00600030001000000000000000000000015
S1131DC00000000000000000000000007F807F8011
S1131DD0000000007F807F80000000000000000001
S1131DE000000000000000000000000010001800C7
S1131DF00C000600018000C0018006000C001800E1
S1131E001000000000000000000000001C001F0083
S1131E1003000180018001800F800F000C000C0082
S1131E2000000E000E000E00000000000000000084
S1131E3000000F0011802080604040404F409F40D0
S1131E409B40B340B340B340BF809D808000C0003E
S1131E50400061003E00000000000E000A000A007D
S1131E601B001B001100318031803F803F8060C027
S1131E7060C040C00000000000000000000000003E
S1131E803F803FE03060306030E03F803FC030E072
S1131E903060306030E03FC03F00000000000000D0
S1131EA00000000000000F801FC0384030006000B8
S1131EB06000600060006000700038401FC00F8048
S1131EC00000000000000000000000007E007F8091
S1131ED0618061C060C060C060C060C060C061C03B
S1131EE063807F007E00000000000000000000000E
S1131EF000003F803F803000300030003F803F8052
S1131F0030003000300030003F803F80000000008F
S1131F1000000000000000003F803F8030003000DF
S1131F2030003F803F80300030003000300030000F
S1131F30300000000000000000000000000007C0A6
S1131F401FE038203000600063E063E060606060A0
S1131F50706038601FE00FC0000000000000000047
S1131F600000000060C060C060C060C060C07FC08E
S1131F707FC060C060C060C060C060C060C000005E
S1131F80000000000000000000003FC03FC0060049
S1131F90060006000600060006000600060006000D
S1131FA03FC03FC00000000000000000000000002F
S1131FB03F803F8001800180018001800180018099
S1131FC00180018023803F001E000000000000000B
S1131FD000000000000030C03180330033003600C0
S1131FE034003C003400360033003300318030C00C
S1131FF0000000000000000000000000300030007D
S1132000300030003000300030003000300030004C
S113201030003F803F80000000000000000000000E
S1132020000060C071C071C071C07BC06AC06AC06A
S11320306EC064C060C060C060C060C000000000CA
S1132040000000000000000070C070C078C068C0CC
S113205068C06CC064C066C062C062C063C061C056
S113206061C00000000000000000000000000F003C
S11320703F80318070C060C060C060C060C060C01C
S113208061C031803F801E0000000000000000009D
S1132090000000003F803FC030E03060306030E03E
S11320A03FC03F00300030003000300030000000FE
S11320B0000000000000000000000F001FC030C03E
S11320C070E06060606060606060606070E030C0BC
S11320D03F801F000600071003F001E0000000002D
S11320E03F003F8031C030C030C031C03F803E002F
S11320F03380318030C030C0306000000000000008
S11321000000000000001F003F806080600070003D
S11321103C001F00038000C000C041C07F803F001E
S11321200000000000000000000000007FE07FE0ED
S1132130060006000600060006000600060006006B
S11321400600060006000000000000000000000079
S1132150000060C060C060C060C060C060C060C09B
S113216060C060C060C071C03F801F0000000000FC
S11321700000000000000000C040C0C0C0C060807B
S113218061802180318031001B001B001A000E0089
S11321900E000000000000000000000000004040AD
S11321A040404040404044404E404A404A405B40EA
S11321B0514051C071C060C0000000000000000028
S11321C00000000060C031803B001B000E000E00C8
S11321D00E001F001B003180318060C0C0E0000091
S11321E000000000000000000000C030606030C04B
S11321F030C019801D800F0006000600060006008E
S113220006000600000000000000000000000000BE
S11322107FC07FC0008001000300060004000C00A2
S11322201800100030007FC07FC0000000000000D4
S11322300000000000000000000000001F003F80BC
S1132240218001801F807F80618063807F803D804A
S113225000000000000000000000300030003000EA
S1132260300037803FC038E030603060306030602C
S113227030C03FC01F00000000000000000000004C
S1132280000000000000000007801FC0184030005C
S113229030003000300038401FC00F8000000000C4
S11322A000000000000000C000C000C000C00FC05B
S11322B03FC030C060C060C060C060C073C03FC079
S11322C01EC000000000000000000000000000002C
S11322D0000000001F003F8031C060C07FC07FC08D
S11322E0600070003F801F800000000000000000BC
S11322F0000003C007C00C000C000C007F807F802E
S11323000C000C000C000C000C000C000C00000075
S113231000000000000000000000000000000000B9
S11323200FC01FC03180318031801F003E0060002B
S11323307F803FC060C060C07F803F0000003000ED
S113234030003000300037803FC038C030C030C06B
S113235030C030C030C030C030C0000000000000C9
S113236000000E000E000E00000000003E003E00C3
S11323700600060006000600060006003FC03FC037
S113238000000000000000000380038003800000C0
S113239000003F803F800180018001800180018036
S11323A0018001800180018021803F001E00000027
S11323B0300030003000300030C03180330036004F
S11323C03C00360036003300318030C0000000008D
S11323D00000000000003E003E000600060006006B
S11323E006000600060006000600060006003FC0C0
S11323F03FC00000000000000000000000000000DA
S1132400000000006CC07FE0776066606660666014
S113241066606660666066600000000000000000A0
S11324200000000000000000000037803FC038C0FA
S113243030C030C030C030C030C030C030C0000008
S11324400000000000000000000000000000000088
S11324501F003F8031C060C060C060C060C0718038
S11324603F801F000000000000000000000000008A
S113247000000000000037003F8039C030C030C089
S113248030C030C031C03F803F00300030003000E9
S11324903000000000000000000000000FC03FC03A
S11324A030C060C060C060C060C073C03FC01EC0A8
S11324B000C000C000C000C0000000000000000018
S11324C0000037803FC038C030C0300030003000DA
S11324D03000300030000000000000000000000068
S11324E000000000000000000F003F80308030003A
S11324F01E00078000C020C03FC01F000000000075
S113250000000000000000000C000C000C007FC064
S11325107FC00C000C000C000C000C000C000FC061
S113252007C00000000000000000000000000000E0
S11325300000000030C030C030C030C030C030C0F7
S113254030C031C03FC01EC00000000000000000C9
S11325500000000000000000000060C060C0608057
S11325603180318011001B001A000A000E000000A7
S11325700000000000000000000000000000000057
S113258040404040644066406A406A402B402940D5
S113259039C031C00000000000000000000000004D
S11325A000000000000060C031801B001B000E0012
S11325B00E001B001B00318061C000000000000001
S11325C000000000000000000000000060C060C0C7
S11325D060803180310011001B001A000E000C00D5
S11325E00C001800F800F0000000000000000000DB
S11325F000003FC03FC0008001000200040008004A
S113260018003FC03FC0000000000000000011247B
S11326101FBECFEFD0E1DEBFCDBF15E0A0E0B1E03B
S1132620E0EEF5E402C005900D92A83DB107D9F79C
S113263025E0A8EDB5E001C01D92A73EB207E1F781
S11326400E9464140C94EE220C9400001F920F92CA
S11326500FB60F9211248F9382E083BF8F910F9056
S11326600FBE0F901F9018951F920F920FB60F92E6
S11326701124EF92FF920F931F932F933F934F9345
S11326805F936F937F938F939F93AF93BF93EF93D6
S1132690FF938091E00085FF83C080E58093ED0087
S11326A0EAEFF0E0808190E0982F88279093E60588
S11326B08093E5052081AC01420F511D9A0144E647
S11326C0429FC001439F900D11246FEF71E00E945F
S11326D055227093E6056093E505808190E0982F7C
S11326E08827092E000CAA0BBB0B8093E10590935D
S11326F0E205A093E305B093E4052081820F911DC8
S1132700A11DB11D8093E1059093E205A093E3051B
S1132710B093E405808190E0982F8827092E000C5F
S1132720AA0BBB0B8093DD059093DE05A093DF0518
S1132730B093E0052081820F911DA11DB11D8093EE
S1132740DD059093DE05A093DF05B093E00580815D
S113275090E0982F8827092E000CAA0BBB0B8093BE
S1132760D9059093DA05A093DB05B093DC052081AD
S1132770820F911DA11DB11D8093D9059093DA0597
S1132780A093DB05B093DC05E12CF12C00E410E010
S113279020E030E040E450E068E085E00E947E18EC
S11327A0ADEEB0E080E58C93EEEEF0E080818F7DBD
S11327B0808380E48C9380818F7D8083FF91EF916F
S11327C0BF91AF919F918F917F916F915F914F9145
S11327D03F912F911F910F91FF90EF900F900FBE9B
S11327E00F901F90189585B78F7785BF80E58CBDB6
S11327F081E08DBD1EBC08958EBD0DB407FEFDCFD6
S11328008EB50895EF92FF920F931F93CF93DF93AA
S1132810CDB7DEB764970FB6F894DEBF0FBECDBF59
S113282082E00E940C188C0183E00E940C189C0129
S11328303695279536952795ABEABAEA0E949F22EA
S11328407C01F694E794F694E794F694E794F6946E
S1132850E794980136952795369527950E949F22EF
S11328608C01129502950F7001271F7001274AE011
S1132870BE01655F7F4FC8010E94B9224AE0BE01D4
S11328806F5F7F4FC7010E94B922BE01655F7F4F12
S1132890CE0101960E94AE22EE0CFF1CEE0CFF1C32
S11328A0EE0CFF1CEE0CFF1C0E290093D805649659
S11328B00FB6F894DEBF0FBECDBFDF91CF911F914D
S11328C00F91FF90EF900895CF93DF93CDB7DEB7CC
S11328D0E9970FB6F894DEBF0FBECDBF83EE84B97F
S11328E089E08AB92F9A0E942818E12CF12C00E47F
S11328F010E020E030E040E450E068E085E00E9431
S11329007E180E9401180E94F3130E94E51F789418
S113291080E00E94621A86ED90E00E94AE1F88EB70
S11329209BE00E94741980E00E94621A89E0E0EB47
S1132930F5E0DE01119601900D928A95E1F785E0AC
S1132940E9EBF5E0DE011A9601900D928A95E1F724
S11329508EE0EEEBF5E0DE011F9601900D928A9574
S1132960E1F78CE0ECECF5E0DE015D9601900D9270
S11329708A95E1F78CE389A78EE38AA7612C712CF1
S113298022242394312C19AE18AEBB24B394D12C39
S11329900E94021483E00E940C18969587959695E0
S11329A0879568E170E00E946922562E472E862E94
S11329B0972E82E00E940C180E944B19E12C01E032
S11329C010E020E430E048ED55E061E080E00E9452
S11329D0E6182FEF81EE94E0215080409040E1F71B
S11329E000C000005DAA4EAA6814790409F0FCC274
S11329F0E3E08E16910409F0A3C0F1E02F16310430
S1132A00D1F517C08DA99EA96816790690F40F2EEA
S1132A10F0EFAF2EF02D0F2EFFE0CF2EF02DEB2C8C
S1132A20FD2C0FE721E140E66AE3CE018A960E947D
S1132A30A81EEDA9FEA9E615F70590F40F2EF0EFF8
S1132A40AF2EF02D0F2EFFE0CF2EF02DEB2CFD2C12
S1132A500FE721E145E160E0CE0189960E94A81EBE
S1132A6084EF91E00E94741980E00E94621A652C40
S1132A70742C212C312C88AD99AD019711F418AE2A
S1132A8019AE8091E5059091E6058436910511F41F
S1132A90B8AED9AE4AE0BE01655D7F4F0E94B9224F
S1132AA06091E5057091E6056115710589F080E096
S1132AB090E00E94CD200E945B2120E030E040E8BD
S1132AC05FE30E942B200E9497206FAB172F02C058
S1132AD0BFAA1D2D0F2EF0EFAF2EF02D0F2EFFE00D
S1132AE0CF2EF02D0F2EFCE0EF2EF12CF02D0FE762
S1132AF026E144E665E0CE014D960E94E01E25E005
S1132B0048E2BE01655D7F4F81E00E94881EEFA808
S1132B10F12E26E144E66DE2CE018B960E94E01E82
S1132B206894AA24A6F86894CC24C2F8EB2CFD2C53
S1132B3021E140E66AE3CE018A960E94A81EABC05A
S1132B4094E08916910409F0A6C0E1E02E16310440
S1132B50C9F58DA99EA96816790690F40F2EF0EF99
S1132B60AF2EF02D0F2EFFE0CF2EF02DEB2CFD2CF1
S1132B700FE721E140E66AE3CE018A960E94A81E8F
S1132B80EDA9FEA9E615F70590F40F2EF0EFAF2E90
S1132B90F02D0F2EFFE0CF2EF02DEB2CFD2C0FE7A8
S1132BA021E145E160E0CE0189960E94A81E84EFF0
S1132BB091E00E94741980E00E94621A652C742CC2
S1132BC0212C312C8091E1059091E205A091E3053F
S1132BD0B091E4054AE0BE01655D7F4F0E94B922D1
S1132BE06091E1057091E2058091E3059091E4051F
S1132BF0611571058105910579F00E94CD200E942F
S1132C005B2120E030E040E85FE30E942B200E943B
S1132C1097206FAB172F02C0BFAA1D2D25E048E2F5
S1132C20BE01655D7F4F81E00E94881E0F2EF0EF8C
S1132C30AF2EF02D0F2EFFE0CF2EF02D0F2EF5E04E
S1132C40EF2EF12CF02D0FE726E144E665E0CE01EE
S1132C500A960E94E01EEFA8F12E26E144E66DE2FA
S1132C60CE018B960E94E01E6894AA24A6F868946C
S1132C70CC24C2F8EB2CFD2C21E145E160E0CE012F
S1132C8089960E94A81E21E140E66AE3CE018A9655
S1132C900E94A81E56C1F5E08F16910409F0A2C047
S1132CA021E022163104C9F58DA99EA9681679067A
S1132CB090F40F2EF0EFAF2EF02D0F2EFFE0CF2E5D
S1132CC0F02DEB2CFD2C0FE721E140E66AE3CE0169
S1132CD08A960E94A81EEDA9FEA9E615F70590F4B0
S1132CE00F2EF0EFAF2EF02D0F2EFFE0CF2EF02D94
S1132CF0EB2CFD2C0FE721E145E160E0CE01899644
S1132D000E94A81E84EF91E00E94741980E00E9442
S1132D10621A652C742C212C312C4AE0BE01655DAD
S1132D207F4FEDEDF5E0808191810E94B9226091A1
S1132D30DD057091DE058091DF059091E005611558
S1132D4071058105910579F00E94CD200E945B21D7
S1132D5020E030E040E85FE30E942B200E949720AF
S1132D60962E172F02C09B2C1D2D25E048E2BE0194
S1132D70655D7F4F81E00E94881E0F2EF0EFAF2E1D
S1132D80F02D0F2EFFE0CF2EF02D0F2EFEE0EF2EB4
S1132D90F12CF02D0FE726E144E665E0CE010F9615
S1132DA00E94E01EE92CF12E26E144E660E3CE0108
S1132DB08B960E94E01E6894AA24A6F86894CC24FA
S1132DC0C2F8EB2CFD2C21E145E160E0CE018996AF
S1132DD00E94A81E21E140E66AE3CE018A960E9481
S1132DE0A81ED6CDF6E08F16910409F0AAC021E002
S1132DF022163104C9F58DA99EA96816790690F4A6
S1132E000F2EF0EFAF2EF02D0F2EFFE0CF2EF02D72
S1132E10EB2CFD2C0FE721E140E66AE3CE018A9614
S1132E200E94A81EEDA9FEA9E615F70590F40F2E41
S1132E30F0EFAF2EF02D0F2EFFE0CF2EF02DEB2C68
S1132E40FD2C0FE721E145E160E0CE0189960E9467
S1132E50A81E84EF91E00E94741980E00E94621A17
S1132E60652C742C212C312C6091D9057091DA05D4
S1132E708091DB059091DC0528EE33E040E050E0E2
S1132E800E947D22DA01C9014AE0BE01655D7F4FDF
S1132E900E94B9228EE28CA76091D9057091DA055F
S1132EA08091DB059091DC0528EE33E040E050E0B2
S1132EB00E947D22DC01CB014AE0BE01635D7F4FAD
S1132EC00E94B92225E048E2BE01655D7F4F81E0A2
S1132ED00E94881E0F2EF0EFAF2EF02D0F2EFFE074
S1132EE0CF2EF02D0F2EF9E0EF2EF12CF02D0FE761
S1132EF026E144E665E0CE0101960E94E01E689456
S1132F00EE24E2F8F12C26E144E66DE2CE018B9644
S1132F100E94E01E6894AA24A6F86894CC24C2F8FF
S1132F20EB2CFD2C21E145E160E0CE0189960E9465
S1132F30A81E21E140E66AE3CE018A960E94A81EFB
S1132F4027CDF7E08F1691040CF422CD21E0221650
S1132F503104C9F58DA99EA96816790690F40F2E3F
S1132F60F0EFAF2EF02D0F2EFFE0CF2EF02DEB2C37
S1132F70FD2C0FE721E140E66AE3CE018A960E9428
S1132F80A81EEDA9FEA9E615F70590F40F2EF0EFA3
S1132F90AF2EF02D0F2EFFE0CF2EF02DEB2CFD2CBD
S1132FA00FE721E145E160E0CE0189960E94A81E69
S1132FB084EF91E00E94741980E00E94621A652CEB
S1132FC0742C212C312C6894AA24A6F86894CC245F
S1132FD0C2F8EB2CFD2C0FE721E145E160E0CE01C6
S1132FE089960E94A81ED4CCF3E08F16910409F4AC
S1132FF009CD24E08216910409F4ABCD2B2C3D2C91
S11330004ACEECE7F0E080E6808380818F7D808388
S113301087E880937A000895ECE7F0E09081907E51
S11330208F71892B8083EAE7F0E08081806480835C
S1133030808184FFFDCF8091780020917900EAE7B8
S1133040F0E0908190619083237090E0922B08953A
S1133050EF92FF920F931F93CF93DF9381E08093BE
S1133060D80080E00DEE10E06FEE70E04EEE50E020
S113307027EF30E0C6EFD0E0A5EFB0E00F2EF4EF7D
S1133080EF2EF12CF02D982F9295907FF8019083DC
S1133090FB011082FA011082F901108218821C923D
S11330A0F70110828F5F863071F78EE08093E20023
S11330B084E08093E30083E18093E40080E38093E1
S11330C0DE0080EA8093DB0082E08093D800FFEF8B
S11330D020E782E0F15020408040E1F700C000008A
S11330E08091D90082FB882780F991E08927DF91BC
S11330F0CF911F910F91FF90EF900895EF92FF925F
S11331000F931F938295807F8093ED00822F880F09
S1133110880F880F8093F400DA01C901689414F8C9
S1133120B695A795979587951694D1F78093F50052
S1133130DA01C901072E7DE0B695A7959795879585
S11331407A95D1F7702D8093F600DA01C901072E24
S113315075E1B695A795979587957A95D1F7702DD2
S11331608093F7008E2D880F880F880F8093F000CE
S1133170D801C701689414F8B695A79597958795D3
S11331801694D1F78093F100D801C701072E7DE092
S1133190B695A795979587957A95D1F7702D8093D5
S11331A0F200D801C701072E75E1B695A79597954A
S11331B087957A95D1F7702D8093F30060696093B9
S11331C0EF001F910F91FF90EF900895EF920F93EE
S11331D01F938295807F8093ED00EEEEF0E0808176
S11331E08F7B80831092F400802F880F880F880FC4
S11331F08093F000D901C801689414F8B695A79596
S1133200979587951694D1F78093F100D901C80159
S1133210072E7DE0B695A795979587957A95D1F772
S1133220702D8093F2000F2EF5E1369527951795B2
S11332300795FA95D1F7F02D0093F300662371F00A
S1133240FA018FEF860F90E00196480F591FAAEFFD
S1133250B0E081918C93E417F507D9F7606560932A
S1133260EF00EE20A1F08091EE0086FD10C080E01A
S1133270EEEEF0E003C0908196FD09C0AFE9BFE037
S11332801197F1F700C000008F5FE812F4CF1F918F
S11332900F91EF900895CF93DF931092ED008091FA
S11332A0EE0086FD16C08091EF0086FF14C081E019
S11332B0ADEEB0E0EEEEF0E0CFEED0E0982F9295D8
S11332C0907F9C93908196FD0CC0988196FD05C0DB
S11332D008C080E006C080E004C08F5F843071F7CE
S11332E08FEFDF91CF910895009739F020E030E01F
S11332F02F5F3F4F82179307D9F708952D98589859
S113330090E00E94FC132D9A589A089558982D9A8B
S113331090E00E94FC132D9A589A0895CF93DF935E
S1133320D82FC62F85E10E947E198D2F0E94861901
S11333308C2F0E948619DF91CF910895CF93DF934C
S1133340D82FC62F85E70E947E198D2F0E948619DB
S11333508C2F0E948619DF91CF9108958CE50E94ED
S11333607E190895CF93C82F80EA0E947E198C2F6E
S11333700E94861981E10E948619CF910895CF9306
S1133380C82F81EA0E947E198C2F0E948619CF9142
S11333900895CF93C82F82EA0E947E198C2F0E9431
S11333A08619CF910895CF93C82F8BEA0E947E1976
S11333B08C2F0E948619CF910895CF93C82F81EB4B
S11333C00E947E198C2F0E948619CF910895CF9365
S11333D0C82F83EB0E947E198C2F0E948619CF91EF
S11333E00895CF93DF93D82FC62F84EB0E947E19C4
S11333F08D2F806A0E9486198C2F85600E94861901
S1133400DF91CF910895CF93C82F85EB0E947E1949
S11334108C2F0E948619CF910895CF93C82F86EBE5
S11334200E947E198C2F0E948619CF910895CF9304
S1133430C82F8BEB0E947E198C2F0E948619CF9186
S11334400895CF93C82F8EEB0E947E198C2F0E9473
S11334508619CF910895CF93C82F81EC0E947E19CD
S11334608C2F0E948619CF910895CF93C82F87EC93
S11334700E947E198C2F0E948619CF910895CF93B4
S1133480C82F8AEC0E947E198C2F0E948619CF9136
S11334900895CF93C82F81ED0E947E198C2F8268E6
S11334A00E94861980E20E948619CF910895CF93D5
S11334B0C82F8DEF0E947E198C2F82610E9486197D
S11334C0CF9108951F93CF93DF93D82F67E780E0C0
S11334D00E948E196FE780E00E949E190E94AE1927
S11334E010E008C08D2F0E948619C150D9F71F5FC4
S11334F0103811F0C8E7F6CFDF91CF911F910895EE
S11335005F926F927F928F929F92AF92BF92CF926F
S1133510DF92EF92FF920F931F93CF93DF93C42F09
S1133520A22E603211F0605201C060E6813071F465
S113353070E0615071096B01CC0CDD1CCC0CDD1CFE
S11335406C0D7D1DCB0180509F4F6C0185E10E9465
S1133550B219D0E0812C0F2EFCE1BF2EF02DBC0E51
S11335600F2EF7E09F2EF02D9A0CF6010081D1303A
S113357039F4FFEFCF1ADF0AC82D182D582C07C0D5
S1133580F60151801281C381F4E0CF0ED11C8B2D42
S11335908D0F682F0E948E19692D8A2D0E949E1905
S11335A00E94AE1900FB662460F8712CC301829559
S11335B09295907F9827807F9827952D9170892BDD
S11335C0282F30E0B901660F771FA901440F551F5A
S11335D0440F551F462B842B220F331F220F331FFA
S11335E0220F331F822B0E94861910FBEE24E0F871
S11335F0F12CC70182959295907F9827807F982718
S11336009C2F9170892B282F30E0B901660F771F0A
S1133610A901440F551F440F551F462B842B220F1D
S1133620331F220F331F220F331F822B0E94861950
S1133630902F9270990F990F990F51FA222720F920
S1133640922B292F30E0B901660F771FA901440F8F
S1133650551F440F551F462B842F892B220F331FD0
S1133660220F331F220F331F822B0E948619912FA2
S11336709270990F990F990FC1FB222720F9922B71
S1133680292F30E0B901660F771FA901440F551F98
S1133690440F551F462B842F892B220F331F220FD3
S11336A0331F220F331F822B0E948619902F947090
S11336B0990F990F52FA222720F9922B292F30E0E3
S11336C0B901660F771FA901440F551F440F551FF9
S11336D0462B842F892B220F331F220F331F220FD7
S11336E0331F822B0E948619912F9470990F990F82
S11336F0C2FB222720F9922B292F30E0B901660F53
S1133700771FA901440F551F440F551F462B842FC3
S1133710892B220F331F220F331F220F331F822BBB
S11337200E948619902F9870990F53FA222720F936
S1133730922B292F30E0B901660F771FA901440F9E
S1133740551F440F551F462B842F892B220F331FDF
S1133750220F331F220F331F822B0E948619912FB1
S11337609870990FC3FB222720F9922B292F30E060
S1133770B901660F771FA901440F551F440F551F48
S1133780462B842F892B220F331F220F331F220F26
S1133790331F822B0E948619902F9071392F330F7B
S11337A0330F330F252D2071822F90E09595879547
S11337B0932F982B292F2695892F86958695282B2C
S11337C0292B892F869586958695822B0E948619AA
S11337D0912F9071392F330F330F330F2C2F20710A
S11337E0822F90E095958795932F982B292F2695D6
S11337F0892F86958695282B292B892F8695869542
S11338008695822B0E948619902F9072392F330F40
S1133810330F252D2072822F90E0959587959595ED
S11338208795932F982B292F2695892F86958695F2
S1133830282B292B892F869586958695822B0E9485
S11338408619912F9072392F330F330F2C2F20723A
S1133850822F90E09595879595958795932F982B32
S1133860292F2695892F86958695282B292B892FF4
S1133870869586958695822B0E948619902F907442
S1133880392F330F252D2074822F90E0959587953D
S11338909595879595958795932F982B292F269500
S11338A0892F86958695282B292B892F8695869591
S11338B08695822B0E948619912F9074392F330F8D
S11338C02C2F2074822F90E0959587959595879558
S11338D095958795932F982B292F2695892F869533
S11338E08695282B292B892F869586958695822B5C
S11338F00E948619252D207830E035952795359539
S113390027953595279535952795802F8078282BF1
S1133910922F9695822F86958695892B822B2695B4
S113392026952695822B0E948619C0782C2F30E08C
S1133930359527953595279535952795359527956B
S1133940812F8078282B922F9695822F86958695A5
S1133950892B822B269526952695822B0E948619E3
S1133960DF5FD23009F001CE84E10E94B219DF9109
S1133970CF911F910F91FF90EF90DF90CF90BF9068
S1133980AF909F908F907F906F905F9008953F923B
S11339904F925F926F927F928F929F92AF92BF925B
S11339A0CF92DF92EF92FF920F931F93CF93DF9307
S11339B0D82FC22F0F2EFCE14F2EF02D440E0F2EC8
S11339C0FCE15F2EF02D560E642D852D0E948E197C
S11339D069E16C0F8C2F0E949E190E94AE19FF247E
S11339E0F394FC0E8D2F90E0809742E3489F900162
S11339F0499F300D1124B9016952774F4B010F2EA5
S1133A00FAE13F2EF02D3C0EAA24A394B12C0F2EE4
S1133A10FEE1DF2EF02DDC0E95C0043011054CF5CF
S1133A209E012A503109F3019491AE014950510984
S1133A30B50102C0660F771F4A95E2F7892F90E01F
S1133A40862397231816190614F48C2D01C080E0E0
S1133A50F3019491A50102C0440F551F2A95E2F782
S1133A60292F30E024233523121613061CF48E0D5F
S1133A7001C080E09801245031092430310528F533
S1133A80AE0142505109F4012491BE016150710903
S1133A90F50102C0EE0FFF1F6A95E2F730E02E2316
S1133AA03F23121613060CF48C0DF4012491B50176
S1133AB002C0660F771F4A95E2F730E026233723CA
S1133AC01216130634F58E0D24C06C2FF401949154
S1133AD09E012F5F3F4FA50102C0440F551F2A9539
S1133AE0E2F7292F30E024233523121613060CF4B1
S1133AF08C0DF4019491A50102C0440F551F6A95E1
S1133B00E2F7292F30E024233523121613060CF490
S1133B108E0D0E9486190F5F1F4F229708301105E2
S1133B2009F07BCF642D852D0E948E196D2D8F2D6C
S1133B300E949E190E94AE19F394F2E08F0E911C1C
S1133B40F31449F0340161E0661A7108C0E1D0E071
S1133B5000E010E062CFDF91CF911F910F91FF90B1
S1133B60EF90DF90CF90BF90AF909F908F907F9019
S1133B706F905F904F903F9008953F924F925F9265
S1133B806F927F928F929F92AF92BF92CF92DF9269
S1133B90EF92FF920F931F93CF93DF93C82FD22FEF
S1133BA00F2EFCE14F2EF02D440E0F2EFCE15F2E64
S1133BB0F02D560E642D852D0E948E190F2EF1E1E5
S1133BC03F2EF02D3D0E632D8D2F0E949E190E94D5
S1133BD0AE19FF24F394FD0E8C2F90E0809746E2FB
S1133BE0489F9001499F300D1124B9016059764EC8
S1133BF04B010F2EF2E1DF2EF02DDD0EAA24A3944B
S1133C00B12C6BC0C430D1054CF598012850310952
S1133C10F4019491A80147505109B50102C0660FFF
S1133C20771F4A95E2F7892F90E086239723181689
S1133C30190614F48C2D01C080E0F4019491A501BF
S1133C4002C0440F551F2A95E2F7292F30E02423A0
S1133C5035231216130644F58E0D26C0202FF301CA
S1133C609491A8014F5F5F4FB50102C0660F771FA3
S1133C704A95E2F7892F90E08623972318161906B0
S1133C8014F48C2D01C080E0F3019491A50102C0CD
S1133C90440F551F2A95E2F7292F30E024233523BA
S1133CA0121613060CF48E0D0E94861921960250EA
S1133CB01109C730D10509F0A5CF642D852D0E94C7
S1133CC08E19632D8F2D0E949E190E94AE19F394B4
S1133CD0F2E08F0E911CFD1449F034016FEF661A67
S1133CE0760A0EE010E0C0E0D0E08CCFDF91CF91F7
S1133CF01F910F91FF90EF90DF90CF90BF90AF9006
S1133D009F908F907F906F905F904F903F90089519
S1133D10FF920F931F93CF93DF93F82E8B01C42F41
S1133D20D22F60E681E00E94801A2D2F4C2FF801DB
S1133D3061918F018F2D0E94801ACE5FF8018081DE
S1133D408111F3CFDF91CF911F910F91FF900895CF
S1133D506F927F928F929F92AF92CF92DF92EF9267
S1133D60FF920F931F93CF93DF934C01122FD02E0A
S1133D703701FC2C61147104A9F0680E791EC62F5A
S1133D80D42FD61B4D2F4C0FCA2CEF2C0D2D212FC9
S1133D906C2FF40181914F010E94C71CCC5F681401
S1133DA0790481F7DF91CF911F910F91FF90EF90EC
S1133DB0DF90CF90AF909F908F907F906F900895F9
S1133DC06F927F928F929F92AF92CF92DF92EF92F7
S1133DD0FF920F931F93CF93DF934C01122FD02E9A
S1133DE03701FC2C61147104A9F0680E791EC62FEA
S1133DF0D42FD61B4D2F4C0FCA2CEF2C0D2D212F59
S1133E006C2FF40181914F010E94BD1DCD5F681498
S1133E10790481F7DF91CF911F910F91FF90EF907B
S1133E20DF90CF90AF909F908F907F906F90089588
S1133E301F93CF93DF93382F3078E82FE074F0E0AE
S1133E40F595E795F595E795F595E795982F907293
S1133E50990F990F682F607170E075956795582FC9
S1133E6058705295507FF82FF470FF0F482F42700E
S1133E704295440F440F407C8170782F770F770F61
S1133E80770F292F2695892F86958695822B892B46
S1133E90969596959695982B962BD62FD695D92BA5
S1133EA0862F86958695D82B669566956695D62B2E
S1133EB0952F9695852F8F2B892B952F96959695D3
S1133EC0892B569556955695582B1F2F1695152BBD
S1133ED08F2F86958695182BF695F695F6951F2BBC
S1133EE0C42FC695842F872BC82B842F869586953F
S1133EF0C82B4695469546954C2BC72FC695C42B83
S1133F00872F86958695C82B769576957695C72BBB
S1133F10232F2695832F86958695282B232B36953C
S1133F2036953695232B2E2B8E2F8695822B9E2FFE
S1133F3096959695892BE695E695E6958E2B0E94A7
S1133F4086198D2F0E948619812F0E9486198C2F25
S1133F500E948619DF91CF911F910895CF92DF922D
S1133F60EF92FF920F931F93CF93DF936C0163E95A
S1133F708CE10E948E196FE780E00E949E190E94D6
S1133F80AE19760188EFD81A0EC0FE0184910E9402
S1133F90181F2196C017D107C1F7F0E2EF0EF11CEC
S1133FA0EC14FD0429F08701045C1F4FE701EDCFF9
S1133FB0DF91CF911F910F91FF90EF90DF90CF9001
S1133FC0089589EB0E947E1908952E982E9A82E115
S1133FD00E94571A8EEA0E947E1981E90E94E7190D
S1133FE08FE30E943F1A80E00E94C91980E00E947A
S1133FF0BF1984E10E94B21980E00E94031A81E093
S11340000E94D3196DEF80EA0E94F1198FE70E9494
S11340102B1A8FE00E94351A0E94E11F82EE0E9443
S1134020DD1980E20E94491A8FE10E94171A88E084
S11340300E940D1A87E00E94211A86EA0E947E19C6
S113404089EA0E947E1980E00E94621A8FEA0E9427
S11340507E1908955058BB27AA270E9442200C9429
S113406021210E94132138F00E941A2120F039F4F2
S11340709F3F19F426F40C9410210EF4E095E7FB0D
S11340800C940A21E92F0E94322158F3BA176207CF
S113409073078407950720F079F4A6F50C9454214E
S11340A00EF4E0950B2EBA2FA02D0B01B90190014F
S11340B00C01CA01A0011124FF27591B99F0593F93
S11340C050F4503E68F11A16F040A22F232F342FDB
S11340D04427585FF3CF469537952795A795F04029
S11340E05395C9F77EF41F16BA0B620B730B840B3E
S11340F0BAF09150A1F0FF0FBB1F661F771F881FF6
S1134100C2F70EC0BA0F621F731F841F48F487954D
S113411077956795B795F7959E3F08F0B0CF93953F
S1134120880F08F09927EE0F9795879508950E94B8
S11341309E206894B1110C94552108950E943A214F
S113414088F09F5798F0B92F9927B751B0F0E1F054
S1134150660F771F881F991F1AF0BA95C9F714C004
S1134160B13091F00E945421B1E008950C9454218F
S1134170672F782F8827B85F39F0B93FCCF386953D
S113418077956795B395D9F73EF49095809570959A
S113419061957F4F8F4F9F4F0895E89409C097FB17
S11341A03EF490958095709561957F4F8F4F9F4F0A
S11341B09923A9F0F92F96E9BB279395F69587954E
S11341C077956795B795F111F8CFFAF4BB0F11F411
S11341D060FF1BC06F5F7F4F8F4F9F4F16C08823B8
S11341E011F096E911C0772321F09EE8872F762FEE
S11341F005C0662371F096E8862F70E060E02AF02F
S11342009A95660F771F881FDAF7880F969587951A
S113421097F9089597F99F6780E870E060E0089542
S11342209FEF80EC089500240A94161617061806CA
S11342300906089500240A941216130614060506A6
S11342400895092E0394000C11F4882352F0BB0F37
S113425040F4BF2B11F460FF04C06F5F7F4F8F4F9A
S11342609F4F089557FD9058440F551F59F05F3FD5
S113427071F04795880F97FB991F61F09F3F79F084
S113428087950895121613061406551FF2CF469506
S1134290F1DF08C0161617061806991FF1CF869588
S11342A07105610508940895E894BB27662777276C
S11342B0CB0197F908950E946B2129ED3BE54EED62
S11342C05EE30C94B32116F00C9420220C9410217C
S11342D068940C940A210E943A21A8F39923C1F30B
S11342E0AEF3DF93CF931F930F93FF92C92FDD2774
S11342F088232AF02197660F771F881FDAF720E0BA
S113430030E040E85FEB9FE3883920F0803E38F0EE
S113431021968F770E942B20ECE7F0E004C00E94E6
S11343202B20E9EAF0E00E942E228B01BE01EC0171
S1134330FB2E6F5771097595771F880B990B0E9497
S1134340CF2028E132E741E35FE30E94C621AF2D8D
S11343509801AE01FF900F911F91CF91DF910E94C0
S113436042200C9421210E94C6210C9421210E94F8
S1134370132138F00E941A2120F0952311F00C9497
S11343800A210C94102111240C9455210E943221ED
S113439070F3959FC1F3950F50E0551F629FF00194
S11343A0729FBB27F00DB11D639FAA27F00DB11DAD
S11343B0AA1F649F6627B00DA11D661F829F222736
S11343C0B00DA11D621F739FB00DA11D621F839FBD
S11343D0A00D611D221F749F3327A00D611D231F93
S11343E0849F600D211D822F762F6A2F11249F57E1
S11343F050409AF0F1F088234AF0EE0FFF1FBB1FE4
S1134400661F771F881F91505040A9F79E3F5105A2
S113441080F00C940A210C9455215F3FE4F3983EFC
S1134420D4F3869577956795B795F795E7959F5F4C
S1134430C1F7FE2B880F911D9695879597F90895DE
S11344409F3F31F0915020F4879577956795B79504
S1134450880F911D9695879597F90895DF93CF93CB
S11344601F930F93FF92EF92DF927B018C0168946C
S113447006C0DA2EEF010E94C621FE01E894A59140
S11344802591359145915591A6F3EF010E94422063
S1134490FE019701A801DA9469F7DF90EF90FF908D
S11344A00F911F91CF91DF910895AA1BBB1B51E17E
S11344B007C0AA1FBB1FA617B70710F0A61BB70B90
S11344C0881F991F5A95A9F780959095BC01CD0135
S11344D0089597FB072E16F4009407D077FD09D0B2
S11344E00E94552207FC05D03EF4909581959F4F7C
S11344F00895709561957F4F0895A1E21A2EAA1B25
S1134500BB1BFD010DC0AA1FBB1FEE1FFF1FA2177F
S1134510B307E407F50720F0A21BB30BE40BF50B7C
S1134520661F771F881F991F1A9469F76095709505
S1134530809590959B01AC01BD01CF010895A29F88
S1134540B001B39FC001A39F700D811D1124911D63
S1134550B29F700D811D1124911D0895FB01DC0192
S11345600D900020E9F7119701900D920020E1F7DA
S11345700895BB274A3031F4992322F4BDE2909583
S113458081959F4F0C94C522BB27FB015527AA2771
S1134590880F991FAA1FA41710F0A41B83955051CC
S11345A0B9F7A05DAA3308F0A95DA193009779F744
S11345B0B111B1931192CB010C94DE22DC01FC0108
S11345C0672F71917723E1F7329704C07C916D9343
S11345D070836291AE17BF07C8F30895F894FFCFB4
S11345E000004F00000007000700147F147F14240C
S11345F02A7F2A1223130864623649552250000583
S1134600030000001C2241000041221C0014083E4B
S1134610081408083E08080050300000080808087C
S113462008006060000020100804023E5149453E25
S113463000427F400042615149462141454B3118B7
S113464014127F1027454545393C4A4949300171C8
S11346500905033649494936064949291E003636B3
S113466000000056360000081422410014141414EB
S11346701400412214080201510906324979413ECD
S11346807E1111117E7F494949363E414141227FC5
S11346904141221C7F494949417F090909013E41A1
S11346A049497A7F0808087F00417F410020404142
S11346B03F017F081422417F404040407F020C02AA
S11346C07F7F0408107F3E4141413E7F090909066E
S11346D03E4151215E7F0919294646494949310124
S11346E0017F01013F4040403F1F2040201F3F40C9
S11346F038403F6314081463070870080761514980
S11347004543007F41410002040810200041417FDD
S11347100004020102044040404040010204000041
S113472020545454787F484444383844444420380E
S11347304444487F3854545418087E0901020649F9
S113474049493F7F0804047800447D4000204044E8
S11347503D007F1028440000417F40007C04180481
S11347607C7C0804047838444444387C14141408C9
S1134770081414187C7C0804040848545454200475
S11347803F4440203C4040207C1C2040201C3C40B6
S113479030403C44281028440C5050503C4464544D
S11347A04C44000836410000007F000000413608F8
S11347B00002010204023E5555412200000000009F
S11347C000007900001824742E24487E4942405D7C
S11347D02222225D15167C161500007700000A556A
S11347E05555280001000100000A0D0A0408142A86
S11347F01422040404041C00080808000101010137
S113480001000205020044445F4444000004020124
S11348107E2020103E060F7F007F00181800000045
S113482040502000000A0D0A0022142A1408170818
S1134830342A7D1708046A593048454020702926D7
S113484028707028262970702A252A707229262932
S1134850707029242970702A2D2A707E117F49498D
S11348600E515171117C555654447C555654447C18
S1134870565556447C5554554400457E44000044E6
S11348807E450000467D460000457C45007F494941
S1134890413E7C0A11227D38454644383844464519
S11348A0383846454638384645463938454445380B
S11348B022140814222E5149453A3C4142403C3CC2
S11348C04042413C3C4241423C3C4140413C0C1052
S11348D062110C7F1212120C403E014936205556CB
S11348E054782054565578205655567820555655A8
S11348F0782055545578205657567824547854586F
S11349000C52527213385556541838545655183898
S113491056555618385554551800497A40000048E1
S11349207A4100004A794200004A784200314A4EF6
S11349304A307A110A097030494A483030484A49A5
S113494030304A494A30304A494A31304A484A307C
S113495008082A08083864544C383841422078380A
S113496040422178384241227838424022780C5023
S113497052513C7E141414080C5150513C1E090928
S1134980295E081515354E384446452030484A49B5
S113499020384546452030494A49207C454645381B
S11349A02050507C031F151535510E151535467CC6
S11349B055565544385556551800447C40007F4898
S11349C044404000497F44007C0812217C78100A4E
S11349D009707C0912217C78110A09703847444710
S11349E038304B484B303E417F494938443854585D
S11349F07C1516354878110A09104854565520205C
S1134A0048565520485556552020495655200405EA
S1134A107E0504083C4822013C4245423C3842455C
S1134A2022783C4340433C38434023780C116011C6
S1134A300C4466554C44486A5948004464554C44F7
S1134A4048685A48004465564D4448695A4900002C
S1134A500201020000010201000001010100010243
S1134A600201000000010000000205020002010230
S1134A7001007F05153A503E55554122181408147B
S1134A800C444A4A515151514A4A44744241427475
S1134A90564F4C54414745203A52504D203A4745D1
S1134AA04152424F582054454D50203A5448524F99
S10B4AB054544C452025203A22
S9030000FC
