S01200006F6C65645F74657374312E737265631E
S11300000C94070F0C94240F0C94240F0C94240FBD
S11300100C94240F0C94240F0C94240F0C94240F90
S11300200C94240F0C94240F0C94240F0C94240F80
S11300300C94240F0C94240F0C94240F0C94240F70
S11300400C94240F0C94240F0C94EE110C94240F94
S11300500C94240F0C94240F0C94240F0C94240F50
S11300600C94240F0C94240F0C94240F0C94240F40
S11300700C94240F0C94240F0C94240F08000000FB
S1130080BE922449123EABAAAA2ABECDCCCC4C3E89
S113009000000080BEABAAAAAA3E00000000BF0078
S11300A00000803F0000000000084178D3BB438774
S11300B0D1133D190E3CC3BD4282AD2B3E68EC8288
S11300C076BED98FE1A93E4C80EFFFBE01C4FF7F0D
S11300D03F000000000000000000000000000000DD
S11300E0000000000000000000000000000000000C
S11300F000000000000000000000000000000C00F0
S11301000C000C000C000C000C000C000C000C008B
S11301100C0000000E000E000E00000000000000A5
S113012000000000198019801980198019800000CE
S113013000000000000000000000000000000000BB
S11301400000000000000000000000001300130085
S11301501300FFC0FFC013003600FF80FF8036008D
S113016036003600360000000000000000000200E7
S113017002001F803F806600660074003C001F0080
S113018007800CC00CC04DC07F803F0008000800F1
S11301900000000000007840FCC0CD80CD00FF00CE
S11301A07E0004000C000BC017E03660266067E098
S11301B0C3C0000000000000000000000F003F80EA
S11301C03180318033801F001C003C60666063E036
S11301D061C071C03FE01F7000000000000000001B
S11301E000000C000C000C000C000C0000000000CF
S11301F000000000000000000000000000000000FB
S113020000000000000001000380030006000C0051
S11302100C00180018001800180018001800180026
S11302200C000C00060007000380010010003800D9
S113023018000C000600060003000300030003007E
S1130240030003000300060006000C001800380039
S1130250100000000400248035800E000E0037805A
S113026024800400000000000000000000000000E2
S1130270000000000000000000000000000000007A
S113028006000600060006007FE07FE00600060088
S1130290060006000000000000000000000000004E
S11302A0000000000000000000000000000000004A
S11302B00000000000000C000E00060006003C00D8
S11302C038000000000000000000000000000000F2
S11302D0000000001F801F800000000000000000DC
S11302E0000000000000000000000000000000000A
S11302F000000000000000000000000000000000FA
S113030000000E000E000E000000000000000000BF
S11303100000008001800180030003000200060049
S113032004000C0008001800180010003000200021
S1130330600000000000000000000F001FC030C07B
S113034070E060E063E06F607C60706070E030C01B
S11303503F800F00000000000000000000000000CB
S113036006001E00360026000600060006000600F1
S11303700600060006003FC03FC000000000000069
S11303800000000000003C007E0043000300030066
S1130390030006000C001800300020007F807F80DE
S11303A00000000000000000000000001E003F806C
S11303B02180018001800F000F8001C000C000C0B7
S11303C001C03F803E00000000000000000000006B
S11303D0000007000F000B001B0033002300630024
S11303E0C300FFC0FFC003000300030000000000BF
S11303F000000000000000003F803F80300030001B
S113040030003F003F8001C000C000C001C03F80F9
S11304103E00000000000000000000000000078013
S11304201F803800300060006F007F8071C060C0A2
S113043060C031C03F801F000000000000000000C9
S1130440000000007FC07FC000C001800180030065
S11304500300060006000C000C0018001800000041
S1130460000000000000000000001F003FC060C04A
S113047060C071801F001F00338060C060C060C016
S11304803F801F000000000000000000000000008A
S11304901F003F80718060C060C071C03FC01EC03B
S11304A000C0018003803F003C0000000000000009
S11304B00000000000000000000000000E000E001C
S11304C00E0000000000000000000E000E000E00F0
S11304D00000000000000000000000000000000018
S11304E000000E000E000E000000000000000000DE
S11304F00C000E00060006003C003800000000005E
S11305000000000000000100030006000C003000A1
S1130510600030000C000600030001000000000031
S113052000000000000000000000000000000000C7
S113053000007F807F80000000007F807F800000BB
S113054000000000000000000000000000000000A7
S11305500000100018000C000600018000C001809B
S113056006000C001800100000000000000000004D
S113057000001C001F0003000180018001800F8027
S11305800F000C000C0000000E000E000E00000016
S113059000000000000000000F0011802080604077
S11305A040404F409F409B40B340B340B340BF8066
S11305B09D808000C000400061003E0000000000FB
S11305C00E000A000A001B001B001100318031805C
S11305D03F803F8060C060C040C000000000000059
S11305E00000000000003F803FE03060306030E0F9
S11305F03F803FC030E03060306030E03FC03F00BB
S11306000000000000000000000000000F801FC078
S113061038403000600060006000600060007000DE
S113062038401FC00F8000000000000000000000E0
S113063000007E007F80618061C060C060C060C0D7
S113064060C060C061C063807F007E000000000065
S113065000000000000000003F803F8030003000B8
S113066030003F803F8030003000300030003F8059
S11306703F800000000000000000000000003F80F8
S11306803F803000300030003F803F803000300039
S11306903000300030003000000000000000000096
S11306A00000000007C01FE038203000600063E055
S11306B063E060606060706038601FE00FC000003D
S11306C00000000000000000000060C060C060C0C6
S11306D060C060C07FC07FC060C060C060C060C0D8
S11306E060C060C0000000000000000000000000C6
S11306F03FC03FC0060006000600060006000600D4
S11307000600060006003FC03FC0000000000000D5
S11307100000000000003F803F80018001800180D4
S11307200180018001800180018023803F001E0040
S113073000000000000000000000000030C0318014
S113074033003300360034003C00340036003300FC
S11307503300318030C000000000000000000000C1
S11307600000300030003000300030003000300035
S113077030003000300030003F803F800000000037
S1130780000000000000000060C071C071C071C0B2
S11307907BC06AC06AC06EC064C060C060C060C014
S11307A060C000000000000000000000000070C0F5
S11307B070C078C068C068C06CC064C066C062C0E5
S11307C062C063C061C061C000000000000000009E
S11307D0000000000F003F80318070C060C060C026
S11307E060C060C060C061C031803F801E000000F6
S11307F0000000000000000000003F803FC030E027
S11308003060306030E03FC03F00300030003000E6
S11308103000300000000000000000000000000074
S11308200F001FC030C070E0606060606060606096
S1130830606070E030C03F801F000600071003F0C6
S113084001E0000000003F003F8031C030C030C0F4
S113085031C03F803E003380318030C030C03060D2
S11308600000000000000000000000001F003F80A6
S11308706080600070003C001F00038000C000C066
S113088041C07F803F000000000000000000000025
S113089000007FE07FE00600060006000600060078
S11308A00600060006000600060006000000000020
S11308B0000000000000000060C060C060C060C0B4
S11308C060C060C060C060C060C060C071C03F8074
S11308D01F00000000000000000000000000C040F5
S11308E0C0C0C0C0608061802180318031001B00A5
S11308F01B001A000E000E000000000000000000A3
S113090000000000404040404040404044404E40D1
S11309104A404A405B40514051C071C060C0000031
S11309200000000000000000000060C031803B00B7
S11309301B000E000E000E001F001B0031803180D2
S113094060C0C0E0000000000000000000000000E3
S1130950C030606030C030C019801D800F000600B8
S11309600600060006000600060000000000000065
S11309700000000000007FC07FC000800100030071
S1130980060004000C001800100030007FC07FC077
S11309900000000000000000000000000000000053
S11309A000001F003F80218001801F807F806180C4
S11309B063807F803D800000000000000000000094
S11309C0300030003000300037803FC038E0306005
S11309D030603060306030C03FC01F000000000055
S11309E0000000000000000000000000000007807C
S11309F01FC01840300030003000300038401FC0A5
S1130A000F800000000000000000000000C000C0D3
S1130A1000C000C00FC03FC030C060C060C060C034
S1130A2060C073C03FC01EC0000000000000000092
S1130A30000000000000000000001F003F8031C0E3
S1130A4060C07FC07FC0600070003F801F800000D6
S1130A50000000000000000003C007C00C000C00F0
S1130A600C007F807F800C000C000C000C000C003C
S1130A700C000C000000000000000000000000005A
S1130A800000000000000FC01FC0318031803180A1
S1130A901F003E0060007F803FC060C060C07F8058
S1130AA03F000000300030003000300037803FC08D
S1130AB038C030C030C030C030C030C030C030C0AA
S1130AC000000000000000000E000E000E000000F8
S1130AD000003E003E000600060006000600060078
S1130AE006003FC03FC0000000000000000003807B
S1130AF003800380000000003F803F80018001806C
S1130B0001800180018001800180018001802180B9
S1130B103F001E000000300030003000300030C0C4
S1130B203180330036003C0036003600330031801B
S1130B3030C0000000000000000000003E003E0045
S1130B400600060006000600060006000600060071
S1130B50060006003FC03FC0000000000000000087
S1130B60000000000000000000006CC07FE077601F
S1130B706660666066606660666066606660000007
S1130B800000000000000000000000000000000061
S1130B9037803FC038C030C030C030C030C030C0F3
S1130BA030C030C000000000000000000000000061
S1130BB00000000000001F003F8031C060C060C022
S1130BC060C060C071803F801F0000000000000012
S1130BD000000000000000000000000037003F801B
S1130BE039C030C030C030C030C031C03F803F0059
S1130BF03000300030003000000000000000000031
S1130C0000000FC03FC030C060C060C060C060C0A2
S1130C1073C03FC01EC000C000C000C000C00000C0
S1130C20000000000000000037803FC038C030C022
S1130C303000300030003000300030000000000090
S1130C4000000000000000000000000000000F0091
S1130C503F80308030001E00078000C020C03FC0AD
S1130C601F000000000000000000000000000C0055
S1130C700C000C007FC07FC00C000C000C000C00AA
S1130C800C000C000FC007C00000000000000000B2
S1130C900000000000000000000030C030C030C080
S1130CA030C030C030C030C031C03FC01EC00000B2
S1130CB00000000000000000000000000000000030
S1130CC060C060C060803180318011001B001A0058
S1130CD00A000E00000000000000000000000000F8
S1130CE000000000000040404040644066406A400C
S1130CF06A402B40294039C031C000000000000088
S1130D0000000000000000000000000060C031800E
S1130D101B001B000E000E001B001B00318061C075
S1130D2000000000000000000000000000000000BF
S1130D30000060C060C060803180310011001B0081
S1130D401A000E000C000C001800F800F00000005F
S1130D5000000000000000003FC03FC00080010010
S1130D6002000400080018003FC03FC0000000005B
S1130D70000000000000000000000000000000006F
S1130D80000000000000000000000000000000005F
S1130D90000000000000000000000000000000004F
S1130DA00000000000000000038003800380038033
S1130DB00380038003800380038003800380038017
S1130DC00380038000000000038003800380000090
S1130DD0000000000000000000001CE01CE01CE01B
S1130DE01CE01CE01CE0000000000000000000000B
S1130DF000000000000000000000000000000000EF
S1130E0000000000000000000000000000000000DE
S1130E1006380638063806383FFE3FFE0E700E7060
S1130E200C700C707FFC7FFC0C701CE01CE01CE060
S1130E301CE000000000000000000000006000C092
S1130E4000C007F00FF81CC838C038C038801F80B5
S1130E500F8007E001F801BC019C031C031C23382C
S1130E603FF81FE00300030006000000000000003C
S1130E703C0C7E18E738E730E760E7607EC03D80D1
S1130E8001800300070006780CFC1DCE19CE31CE7C
S1130E9031CE60FCC07800000000000000000000BB
S1130EA0000007C01FE03CF038703870387038E03C
S1130EB01DC01F801E003F1C3B9C71DC71D870F864
S1130EC0707078F83FFC0F8E0000000000000000F6
S1130ED000000000038003800380038003800380FC
S1130EE000000000000000000000000000000000FE
S1130EF000000000000000000000000000000000EE
S1130F0000000000004000E001C00380030007006F
S1130F100E000E000E001C001C001C001C001C0017
S1130F201C001C000E000E000E00070007000380CA
S1130F3001C000E0004004000E000700038001C06F
S1130F4001C000E000E000E000700070007000707C
S1130F5000700070007000E000E000E001C001805B
S1130F60038007000E000400000001800180099046
S1130F701DB807E0018007E01DB8019001800180E1
S1130F80000000000000000000000000000000005D
S1130F90000000000000000000000000000000004D
S1130FA00000000000000000038003800380038031
S1130FB003807FFC7FFC0380038003800380038025
S1130FC0000000000000000000000000000000001D
S1130FD0000000000000000000000000000000000D
S1130FE0000000000000000000000000070007806F
S1130FF0078003800380038007001E001C0000009C
S113100000000000000000000000000000000000DC
S11310100000000000001FE01FE0000000000000CE
S113102000000000000000000000000000000000BC
S113103000000000000000000000000000000000AC
S1131040000000000000000000000000000000009C
S11310500300078007800300000000000000000078
S1131060000000000018003800300030006000600C
S113107000E000C000C001800180030003000700FD
S1131080060006000C000C001C00180018003000BC
S11310900000000000000000000007C01FF01C78E2
S11310A038383838703C707C71DC739C771C7C1C3D
S11310B0781C383838383C701FF007C00000000036
S11310C000000000000000000000000001C007C094
S11310D01DC039C011C001C001C001C001C001C0A0
S11310E001C001C001C001C001C01FF81FF8000009
S11310F000000000000000000000000000000F805D
S11311001FE038E0107000700070007000E000E034
S113111001C0038007000E001C0018003FF83FF8D0
S113112000000000000000000000000000000000BB
S11311301F803FE020F000700070007000E00FC0DE
S11311400FE000F0003800380038003800F03FE0CD
S11311503F800000000000000000000000000000CC
S11311600000007800F801F803B8033806380E3898
S11311700C381838303870387FFE7FFE003800385D
S113118000380038000000000000000000000000EB
S1131190000000003FF03FF038003800380038000D
S11311A038003FC03FF000F80038003800380078BD
S11311B000F03FE03F80000000000000000000005D
S11311C000000000000001F807F80F001E001C00DA
S11311D0180038003BF03FF83C3C381C381C381CE5
S11311E01C1C1C380FF007E0000000000000000089
S11311F000000000000000003FFC3FFC001C001841
S1131200003800300070006000E000C001C00180C0
S113121003800300070006000E0000000000000029
S11312200000000000000000000007E01FF83C3C44
S1131230381C381C3C1C1E780FE007F01E781C3C40
S1131240381C381C381C3C3C1FF807E00000000028
S113125000000000000000000000000007C01FF0B4
S11312603C787838701C701C701C701C383C3FFC37
S11312700FDC00180038007000F03FC03F00000091
S1131280000000000000000000000000000000005A
S11312900000000000000300078007800300000036
S11312A00000000000000000030007800780030026
S11312B0000000000000000000000000000000002A
S11312C00000000000000000018003C003C0018092
S11312D000000000000000000000038003C003C001
S11312E001C001C001C003800F000E000000000017
S11312F00000000000000020007000E001C00700B2
S11313000E001C0038001C000E00078001C000E025
S11313100070002000000000000000000000000039
S113132000000000000000000000000000000000B9
S11313303FF83FF80000000000003FF83FF80000CD
S11313400000000000000000000000000000000099
S11313500000000000000000000008001C000E0057
S1131360070003C000E000700038007000E001C016
S113137007000E001C000800000000000000000030
S1131380000000000F000FC001E0007000380038BA
S113139000380038007803F003E003800380038002
S11313A00000000007000700070000000000000024
S11313B000000000000003E007F80E18180C380CB9
S11313C03006600661F663F6C736C676CE66CE662C
S11313D0CE66CE66CEECCFBCC738E00060007000AD
S11313E038201FE00FC0000000000000038002C08E
S11313F006C006C006E00C600C600C701830183093
S113140018303FF83FF83018701C600C600C000076
S113141000000000000000000000000000003FE0A9
S11314203FF0387838383838383838703FE03FF093
S11314303838381C381C381C381C38383FF03FC04A
S11314400000000000000000000000000000000098
S113145003F00FF81E083C003800700070007000A4
S11314607000700070007000380038001E080FF81B
S113147007F0000000000000000000000000000071
S113148000007F807FE0707070387038701C701CB2
S1131490701C701C701C701C701C7038703870F0DC
S11314A07FE07F80000000000000000000000000DA
S11314B0000000001FF81FF81C001C001C001C008A
S11314C01C001FF81FF81C001C001C001C001C0042
S11314D01C001FF81FF800000000000000000000BE
S11314E00000000000001FF81FF81C001C001C0076
S11314F01C001C001FF81FF81C001C001C001C0012
S11315001C001C001C001C00000000000000000067
S1131510000000000000000003F80FFC1E043C0063
S113152038007800700070FC70FC701C701C701C1B
S1131530381C381C1E1C0FFC03F0000000000000C7
S1131540000000000000000000007038703870389F
S113155070387038703870387FF87FF870387038A9
S11315607038703870387038703870380000000087
S11315700000000000000000000000003FF83FF8F9
S1131580038003800380038003800380038003803F
S1131590038003800380038003803FF83FF800004A
S11315A000000000000000000000000000003FF008
S11315B03FF00070007000700070007000700070E8
S11315C00070007000700070007020E03FC01F8049
S11315D00000000000000000000000000000000007
S11315E038183838387038E038C039803B803B00D0
S11315F03E003B003B8039C038C038E03870383892
S1131600381C000000000000000000000000000082
S113161000001C001C001C001C001C001C001C0002
S11316201C001C001C001C001C001C001C001C00D6
S11316301FF81FF800000000000000000000000078
S1131640000000003838383838383C783C78345852
S113165036D83698329833983018301830183018F5
S1131660301830183018000000000000000000009E
S11316700000000000003C383C383C383E383A3822
S11316803A383B383938393839B839B838B838F88D
S113169038F8387838783878000000000000000006
S11316A0000000000000000007C00FF01C7838386C
S11316B0383C701C701C701C701C701C701C701CDE
S11316C0783838383C701FE007C000000000000084
S11316D0000000000000000000003FE03FF0387808
S11316E0381C381C381C381C383C38783FF03FC054
S11316F03800380038003800380038000000000096
S113170000000000000000000000000007E00FF8E7
S11317101C3C381C381C700E700E700E700E700E4F
S1131720700E700E781C381C3C381FF007E001C0A6
S113173001C000E200FF003E0000000000003FC0C6
S11317403FF03878383838383838383838703FE02F
S11317503FC038E038703870383838383818381C9A
S11317600000000000000000000000000000000075
S113177007F00FF81C083800380038001E001F80DE
S113178007E000F8003C001C001C001C20383FF05F
S11317901FE0000000000000000000000000000046
S11317A000007FFC7FFC03800380038003800380B0
S11317B0038003800380038003800380038003800D
S11317C0038003800000000000000000000000000F
S11317D000000000701C701C701C701C701C701CBD
S11317E0701C701C701C701C701C701C701C703C75
S11317F038381FF00FC00000000000000000000097
S1131800000000000000600C700C701C30183018D0
S11318103838183018301C701C600C600EE00EC094
S113182006C006C00780038000000000000000001E
S11318300000000000000000701C701C701C701C74
S1131840701C701C719C739C739C729C76DC36D8E3
S113185034583C783C7838383838000000000000B0
S113186000000000000000000000701C3838183030
S11318701C700EE007C007C00380038007C00EE0A1
S11318800EE01C7038383838701CE00E0000000080
S1131890000000000000000000000000E00E701CCA
S11318A0701C383838381C700C600EE006C007C055
S11318B0038003800380038003800380038000008F
S11318C000000000000000000000000000007FF89D
S11318D07FF80030006000E000C001C00180030018
S11318E0070006000C001C00180030007FFC7FFC81
S11318F000000000000000000000000000000000E4
S1131900000000000000000007E01FF8103C001C6D
S1131910001C07FC1FFC3C1C381C381C3C7C1FFCB6
S11319200F9C0000000000000000000000003800D0
S11319303800380038003800380039E03BF83E38C9
S11319403C1C381C381C381C381C381C3838387877
S11319503FF01FC000000000000000000000000075
S113196000000000000000000000000003E00FF091
S11319701E101C00380038003800380038003C00C5
S11319801E100FF007E0000000000000000000003F
S1131990000000380038003800380038003807F8F4
S11319A01FF83C38383870387038703870387038F0
S11319B0707838F83FB80F380000000000000000CD
S11319C00000000000000000000000000000000013
S11319D003E00FF01C38181C381C3FFC3FFC380097
S11319E038003C001E080FF807F00000000000005B
S11319F000000000000000FC03FC03800700070057
S1131A00070007007FF87FF80700070007000700BA
S1131A100700070007000700070007000000000098
S1131A2000000000000000000000000000000000B2
S1131A300000000007FC1FFC3C7838383838383880
S1131A403C781FF03FC0380038003FF01FFC701C8A
S1131A50701C783C3FF81FE0000038003800380064
S1131A6038003800380039E03BF03E783C383838EC
S1131A7038383838383838383838383838383838E2
S1131A8000000000000000000000000000000180D1
S1131A9003C00180000000003FC03FC001C001C07E
S1131AA001C001C001C001C001C001C001C03FF8B4
S1131AB03FF80000000000000000000000000000EB
S1131AC000C001E000C0000000003FE03FE000E093
S1131AD000E000E000E000E000E000E000E000E002
S1131AE000E000E000E000E041C07F803F00000033
S1131AF0380038003800380038003800383838707A
S1131B0038E039C03B803F003B803B8039C038E03F
S1131B1038E0387038380000000000000000000091
S1131B2000003FC03FC001C001C001C001C001C0EE
S1131B3001C001C001C001C001C001C001C001C099
S1131B4001C001C03FF83FF80000000000000000A1
S1131B500000000000000000000000000000000081
S1131B6077387F7C7BDC739C739C739C739C739C25
S1131B70739C739C739C739C739C00000000000016
S1131B800000000000000000000000000000000051
S1131B90000039E03FF03E783C383838383838387F
S1131BA03838383838383838383838380000000091
S1131BB00000000000000000000000000000000021
S1131BC00000000007E01FF03C78383C701C701CDB
S1131BD0701C701C701C38383C781FF00FC000005B
S1131BE000000000000000000000000000000000F1
S1131BF000000000000039E03FF83E383C1C381C6F
S1131C00381C381C381C381C383838783FF03FC032
S1131C1038003800380038003800000000000000A8
S1131C20000000000000000007F81FF83C383838B6
S1131C3070387038703870387038707838F83FB849
S1131C400F38003800380038003800380000000031
S1131C50000000000000000000001CF81DFC1F1E16
S1131C601E0E1C0E1C001C001C001C001C001C0072
S1131C701C001C0000000000000000000000000028
S1131C8000000000000000000000000007E01FF05A
S1131C903C1038003C001F000FE001F00038003811
S1131CA020783FF01FC0000000000000000000008A
S1131CB000000000000007000700070007007FF88D
S1131CC07FF8070007000700070007000700070068
S1131CD00700078003F801F800000000000000007E
S1131CE000000000000000000000000000000000F0
S1131CF03838383838383838383838383838383860
S1131D00383838783CF81FF80F380000000000001D
S1131D1000000000000000000000000000000000BF
S1131D2000006018701830383030383018601C608B
S1131D300C600CC006C006C00780038000000000D1
S1131D40000000000000000000000000000000008F
S1131D5000000000600C600C600C618C638C738C60
S1131D6032CC32CC366C346834681C381C380000F1
S1131D70000000000000000000000000000000005F
S1131D80000000000000701C38381C700C600EE06D
S1131D9007C0038007C006E00C601C703838701C54
S1131DA0000000000000000000000000000000002F
S1131DB0000000000000000060187038303838302F
S1131DC0383018601C600C600EC006C006800380AA
S1131DD00380030007000E00FC00F0000000000078
S1131DE0000000000000000000003FF03FF0006031
S1131DF000C001C00180030006000E000C001800A2
S1131E003FF03FF00000000000000000000011243B
S1131E101FBECFEFD0E1DEBFCDBF10E1A0E0B1E047
S1131E20ECECF3E502C005900D92A632B107D9F7A8
S1131E3020E1A6E2B0E101C01D92A533B207E1F7AB
S1131E400E94E31B0C94E4290C940000CF93DF93CD
S1131E50CDB7DEB72F970FB6F894DEBF0FBECDBF58
S1131E6088ED90E021E0FC012083198222C08DEEF0
S1131E7090E029812295207FFC0120838FEE90E061
S1131E80FC0110828EEE90E0FC01108287EF90E05E
S1131E90FC01108286EF90E0FC01108285EF90E057
S1131EA0FC01108284EF90E0FC01108289818F5F35
S1131EB0898389818630D8F282EE90E02EE0FC019D
S1131EC0208383EE90E024E0FC01208384EE90E004
S1131ED023E1FC0120838EED90E020E3FC012083CC
S1131EE08BED90E020EAFC01208388ED90E022E075
S1131EF0FC01208380E090E0A8E4B2E48A839B8321
S1131F00AC83BD8320E030E04AE755E46A817B81FD
S1131F108C819D810E949E28DC01CB018E839F834E
S1131F20A887B98720E030E040E85FE36E817F81D5
S1131F30888599850E94542788232CF481E090E0B9
S1131F409B878A873FC020E03FEF4FE757E46E81CD
S1131F507F81888599850E94412818164CF520E0D8
S1131F6030E040E251E46A817B818C819D810E9452
S1131F709E28DC01CB01BC01CD010E946027DC015D
S1131F80CB019B878A870FC080E991E09D878C876E
S1131F908C859D850197F1F79D878C878A859B8524
S1131FA001979B878A878A859B85892B69F714C04B
S1131FB06E817F81888599850E946027DC01CB0131
S1131FC09B878A878A859B859F878E878E859F8539
S1131FD00197F1F79F878E8789ED90E0FC0180815E
S1131FE0882F90E084709927892B11F481E001C037
S1131FF080E02F960FB6F894DEBF0FBECDBFDF9101
S1132000CF910895EF92FF920F931F93CF93DF9395
S1132010CDB7DEB72A970FB6F894DEBF0FBECDBF9B
S113202089836A832B833C834D835E83EF82F886A6
S113203009871A878DEE90E029812295207FFC0183
S1132040208384EF90E02B81220F220F220FFC01CA
S1132050208325EF30E08B819C81AD81BE81689423
S113206014F8B695A795979587951694D1F7F90125
S1132070808326EF30E08B819C81AD81BE81072E69
S11320807DE0B695A795979587957A95D1F7702DAC
S1132090F901808327EF30E08B819C81AD81BE8183
S11320A0072E75E1B695A795979587957A95D1F7FB
S11320B0702DF901808380EF90E02F81220F220F91
S11320C0220FFC01208321EF30E08F819885A985C0
S11320D0BA85689414F8B695A7959795879516943C
S11320E0D1F7F901808322EF30E08F819885A985AB
S11320F0BA85072E7DE0B695A795979587957A952D
S1132100D1F7702DF901808323EF30E08F8198851A
S1132110A985BA85072E75E1B695A79597958795F4
S11321207A95D1F7702DF90180838FEE90E02A81A2
S11321302069FC01208300002A960FB6F894DEBFC4
S11321400FBECDBFDF91CF911F910F91FF90EF9004
S11321500895EF920F931F93CF93DF93CDB7DEB71C
S113216069970FB6F894DEBF0FBECDBF898B6A8B1B
S11321705C8B4B8B0D8B1E8B2F8B388FE98E8DEEEA
S113218090E029892295207FFC0120838EEE90E047
S11321902EEE30E0F90120812F7BFC01208384EFB7
S11321A090E0FC01108280EF90E02D89220F220F35
S11321B0220FFC01208321EF30E08D899E89AF89B5
S11321C0B88D689414F8B695A79597958795169445
S11321D0D1F7F901808322EF30E08D899E89AF89A0
S11321E0B88D072E7DE0B695A795979587957A9536
S11321F0D1F7702DF901808323EF30E08D899E891A
S1132200AF89B88D072E75E1B695A79597958795F3
S11322107A95D1F7702DF9018083198210C08AEF65
S113222090E02981222F30E04B895C89240F351FEF
S1132230F9012081FC01208389818F5F8983998141
S11322408A89981760F38FEE90E02A892065FC0153
S113225020831A8280C08EEE90E0FC018081882F5A
S113226090E080749927892B09F07BC080E090E08E
S1132270A0E8BFE38B839C83AD83BE8320E030E082
S11322804AE755E46B817C818D819E810E949E2862
S1132290DC01CB018F839887A987BA8720E030E0DF
S11322A040E85FE36F81788589859A850E94542789
S11322B088232CF481E090E09C878B873FC020E04A
S11322C03FEF4FE757E46F81788589859A850E94AF
S11322D0412818164CF520E030E040E251E46B81CF
S11322E07C818D819E810E949E28DC01CB01BC01F2
S11322F0CD010E946027DC01CB019C878B870FC036
S113230080E991E09E878D878D859E850197F1F701
S11323109E878D878B859C8501979C878B878B8572
S11323209C85892B69F714C06F81788589859A8586
S11323300E946027DC01CB019C878B878B859C8561
S1132340988B8F878F8598890197F1F7988B8F8762
S11323508A818F5F8A839A81898D981708F47BCF4D
S113236001C00000000069960FB6F894DEBF0FBEEE
S1132370CDBFDF91CF911F910F91EF900895CF932F
S1132380DF931F92CDB7DEB7198220C08DEE90E0A7
S113239029812295207FFC0120838EEE90E0FC01B0
S11323A08081882F90E080749927892B51F48FEED7
S11323B090E0FC018081882F90E080749927892B1C
S11323C011F4898107C089818F5F89838981843071
S11323D0E8F28FEF0F90DF91CF9108951F920F9243
S11323E000905F000F921124EF92FF920F931F93BE
S11323F02F933F934F935F936F937F938F939F9309
S1132400AF93BF93EF93FF93CF93DF93CDB7DEB733
S113241080EE90E0FC018081882F90E08072992703
S1132420892B09F4D2C08DEE90E020E5FC012083D5
S11324308AEF90E0FC018081882F90E0982F882714
S113244090932710809326108AEF90E0FC018081FE
S1132450282F30E08091261090912710820F931F2F
S11324609093271080932610809126109091271026
S113247024E6289FA001299F500D11242FEF31E05D
S1132480CA01B9010E944029CB019093271080937F
S113249026108AEF90E0FC018081882F90E0982F2D
S11324A08827092E000CAA0BBB0B8093281090934D
S11324B02910A0932A10B0932B108AEF90E0FC010E
S11324C08081282F30E040E050E0809128109091E6
S11324D02910A0912A10B0912B10820F931FA41FD2
S11324E0B51F8093281090932910A0932A10B093BD
S11324F02B108AEF90E0FC018081882F90E0982FC8
S11325008827092E000CAA0BBB0B80932C109093E8
S11325102D10A0932E10B0932F108AEF90E0FC01A1
S11325208081282F30E040E050E080912C10909181
S11325302D10A0912E10B0912F10820F931FA41F65
S1132540B51F80932C1090932D10A0932E10B09350
S11325502F108AEF90E0FC018081882F90E0982F63
S11325608827092E000CAA0BBB0B80933010909384
S11325703110A0933210B09333108AEF90E0FC0135
S11325808081282F30E040E050E08091301090911D
S11325903110A0913210B0913310820F931FA41FF9
S11325A0B51F8093301090933110A0933210B093E4
S11325B03310E12CF12C00E410E020E030E040E4A2
S11325C050E068E085E00E9402108DEE90E020E586
S11325D0FC0120838EEE90E02EEE30E0F9012081A4
S11325E02F7DFC0120838DEE90E020E4FC0120830C
S11325F08EEE90E02EEE30E0F90120812F7DFC017B
S113260020830000DF91CF91FF91EF91BF91AF91B3
S11326109F918F917F916F915F914F913F912F91F6
S11326201F910F91FF90EF900F9000925F000F9019
S11326301F901895CF93DF93CDB7DEB78CE790E06A
S113264020E6FC0120838CE790E02CE730E0F901E0
S113265020812F7DFC0120838AE790E027E8FC019C
S113266020830000DF91CF910895CF93DF9300D0B2
S11326701F92CDB7DEB78B838CE790E0FC0180819D
S1132680982F907E8B818F71892B8B838CE790E0C0
S11326902B81FC0120838AE790E02AE730E0F901EE
S11326A020812064FC01208300008AE790E0FC0183
S11326B08081882F90E080719927892BB1F31A8249
S11326C0198288E790E0FC018081882F90E09A834A
S11326D0898389E790E0FC018081882F90E08370F2
S11326E09927982F88279C0189819A81822B932B83
S11326F09A8389838AE790E02AE730E0F901208110
S11327002061FC01208389819A810F900F900F90A2
S1132710DF91CF910895CF93DF93CDB7DEB785E5F1
S113272090E025E530E0F90120812F77FC0120833A
S11327308CE490E020E5FC0120838DE490E021E02E
S1132740FC0120838EE490E0FC0110820000DF9104
S1132750CF910895CF93DF931F92CDB7DEB78983CE
S11327608EE490E02981FC01208300008DE490E058
S1132770FC0180818823D4F78EE490E0FC01808101
S11327800F90DF91CF910895CF93DF9300D0CDB711
S1132790DEB79A838983000089819A819C01215044
S11327A031093A832983892BB9F700000F900F90E0
S11327B0DF91CF910895CF93DF9300D000D0CDB7B0
S11327C0DEB79C838B831A82198209C080E694E069
S11327D00E94C41389819A8101969A8389832981ED
S11327E03A818B819C812817390780F300000F9070
S11327F00F900F900F90DF91CF910895CF93DF93B7
S11328001F92CDB7DEB7898385E290E025E230E000
S1132810F90120812F7DFC0120838BE290E02BE2E3
S113282030E0F90120812E7FFC01208389810E9400
S1132830AA1385E290E025E230E0F90120812062CC
S1132840FC0120838BE290E02BE230E0F90120814F
S11328502160FC01208300000F90DF91CF91089547
S1132860CF93DF931F92CDB7DEB789838BE290E0DD
S11328702BE230E0F90120812E7FFC01208385E2E8
S113288090E025E230E0F90120812062FC01208300
S113289089810E94AA1385E290E025E230E0F901E3
S11328A020812062FC0120838BE290E02BE230E067
S11328B0F90120812160FC01208300000F90DF9149
S11328C0CF910895CF93DF9300D0CDB7DEB789833E
S11328D06A8385E10E94FE1389810E9430148A81F3
S11328E00E94301400000F900F90DF91CF91089553
S11328F0CF93DF9300D0CDB7DEB789836A8385E7B2
S11329000E94FE1389810E9430148A810E9430142F
S113291000000F900F90DF91CF910895CF93DF9334
S1132920CDB7DEB78CE50E94FE130000DF91CF9196
S11329300895CF93DF931F92CDB7DEB7898380EAE2
S11329400E94FE1389810E94301481E10E94301498
S113295000000F90DF91CF910895CF93DF931F92E2
S1132960CDB7DEB7898381EA0E94FE1389810E9474
S1132970301400000F90DF91CF910895CF93DF932F
S11329801F92CDB7DEB7898382EA0E94FE13898144
S11329900E94301400000F90DF91CF910895CF93DF
S11329A0DF931F92CDB7DEB789838981846A0E9441
S11329B0FE1300000F90DF91CF910895CF93DF9322
S11329C000D01F92CDB7DEB789836A834B83898198
S11329D0886A0E94FE138981882331F48A810E94C7
S11329E030148B810E94301400000F900F900F90D0
S11329F0DF91CF910895CF93DF931F92CDB7DEB7C8
S1132A0089838BEA0E94FE1389810E94301400009E
S1132A100F90DF91CF910895CF93DF931F92CDB79D
S1132A20DEB7898389818E6A0E94FE1300000F90AD
S1132A30DF91CF910895CF93DF931F92CDB7DEB787
S1132A40898381EB0E94FE1389810E943014000067
S1132A500F90DF91CF910895CF93DF931F92CDB75D
S1132A60DEB7898383EB0E94FE1389810E943014B0
S1132A7000000F90DF91CF910895CF93DF9300D0A2
S1132A80CDB7DEB789836A8384EB0E94FE13898104
S1132A90806A0E9430148A8185600E94301400008C
S1132AA00F900F90DF91CF910895CF93DF931F92F2
S1132AB0CDB7DEB7898385EB0E94FE1389810E941E
S1132AC0301400000F90DF91CF910895CF93DF93DE
S1132AD01F92CDB7DEB7898386EB0E94FE138981EE
S1132AE00E94301400000F90DF91CF910895CF938E
S1132AF0DF931F92CDB7DEB789838BEB0E94FE1361
S1132B0089810E94301400000F90DF91CF910895C5
S1132B10CF93DF931F92CDB7DEB789838EEB0E94EC
S1132B20FE1389810E94301400000F90DF91CF9131
S1132B300895CF93DF931F92CDB7DEB7898381ECDD
S1132B400E94FE1389810E94301400000F90DF91CF
S1132B50CF910895CF93DF931F92CDB7DEB78983CA
S1132B6087EC0E94FE1389810E94301400000F90AC
S1132B70DF91CF910895CF93DF931F92CDB7DEB746
S1132B8089838AEC0E94FE1389810E94301400001C
S1132B900F90DF91CF910895CF93DF931F92CDB71C
S1132BA0DEB7898381ED0E94FE13898182680E94C9
S1132BB0301480E20E94301400000F90DF91CF9116
S1132BC00895CF93DF931F92CDB7DEB789838DEF3E
S1132BD00E94FE13898182610E94301400000F90CC
S1132BE0DF91CF910895CF93DF9300D01F92CDB79B
S1132BF0DEB78B8367E780E00E9462146FE780E0B2
S1132C000E9478140E948E1419820EC01A8206C083
S1132C108B810E9430148A818F5F8A838A818837EE
S1132C20B8F389818F5F8983898188237CF70000C9
S1132C300F900F900F90DF91CF910895CF93DF9372
S1132C40CDB7DEB72C970FB6F894DEBF0FBECDBF5D
S1132C5089876A874B872C878985882F90E0813004
S1132C60910519F0029799F024C08A85882F90E085
S1132C709C0121503109C901880F991F880F991FA0
S1132C80820F931F8050974F9A83898312C08A853D
S1132C90882F90E09C0121503109C901880F991FA8
S1132CA0880F991F820F931F8055924F9A838983AF
S1132CB0000085E10E9499141B820DC389819A81C9
S1132CC0FC0180818F8389819A8101969A8389830B
S1132CD08B81813021F41C821D821E821EC0898159
S1132CE09A81FC0180818C8389819A8101969A83DF
S1132CF0898389819A81FC0180818D8389819A816C
S1132D0001969A83898389819A81FC0180818E83CB
S1132D1089819A8101969A8389838B859CE1980F96
S1132D208B85845E692F0E9462148C85895F682F6D
S1132D308C850E9478140E948E148F81882F90E0D5
S1132D408170992782959295907F9827807F982704
S1132D50982F8C818170892B88878885882F90E0B3
S1132D60880F991F982F8885292F282B8885882FCD
S1132D7090E0880F991F880F991F282B8885882F2A
S1132D8090E0880F991F880F991F880F991F822B35
S1132D90888788850E9430148D81882F90E0817007
S1132DA0992782959295907F9827807F9827982FCE
S1132DB08E818170892B88878885882F90E0880F81
S1132DC0991F982F8885292F282B8885882F90E094
S1132DD0880F991F880F991F282B8885882F90E0CA
S1132DE0880F991F880F991F880F991F822B888736
S1132DF088850E9430148F81882F90E082709927F3
S1132E00880F991F880F991F880F991F282F8C816D
S1132E10882F90E08270992795958795822B8887D3
S1132E208885882F90E0880F991F982F8885292FEF
S1132E30282B8885882F90E0880F991F880F991F69
S1132E40282B8885882F90E0880F991F880F991F59
S1132E50880F991F822B888788850E9430148D8162
S1132E60882F90E082709927880F991F880F991FE7
S1132E70880F991F282F8E81882F90E082709927C0
S1132E8095958795822B88878885882F90E0880F71
S1132E90991F982F8885292F282B8885882F90E0C3
S1132EA0880F991F880F991F282B8885882F90E0F9
S1132EB0880F991F880F991F880F991F822B888765
S1132EC088850E9430148F81882F90E08470992720
S1132ED0880F991F880F991F282F8C81882F90E0C5
S1132EE0847099279595879595958795822B8887E2
S1132EF08885882F90E0880F991F982F8885292F1F
S1132F00282B8885882F90E0880F991F880F991F98
S1132F10282B8885882F90E0880F991F880F991F88
S1132F20880F991F822B888788850E9430148D8191
S1132F30882F90E084709927880F991F880F991F14
S1132F40282F8E81882F90E08470992795958795F6
S1132F5095958795822B88878885882F90E0880FA0
S1132F60991F982F8885292F282B8885882F90E0F2
S1132F70880F991F880F991F282B8885882F90E028
S1132F80880F991F880F991F880F991F822B888794
S1132F9088850E9430148F81882F90E0887099274B
S1132FA0880F991F282F8C81882F90E0887099278B
S1132FB0959587959595879595958795822B88877F
S1132FC08885882F90E0880F991F982F8885292F4E
S1132FD0282B8885882F90E0880F991F880F991FC8
S1132FE0282B8885882F90E0880F991F880F991FB8
S1132FF0880F991F822B888788850E9430148D81C1
S1133000882F90E088709927880F991F282F8E8128
S1133010882F90E088709927959587959595879541
S113302095958795822B88878885882F90E0880FCF
S1133030991F982F8885292F282B8885882F90E021
S1133040880F991F880F991F282B8885882F90E057
S1133050880F991F880F991F880F991F822B8887C3
S113306088850E9430148F81882F90E08071992781
S1133070880F991F880F991F880F991F282F8C81FB
S1133080882F90E08071992795958795822B888762
S11330908885982F96958885982B8885869586951A
S11330A0982B8885869586958695892B888788852B
S11330B00E9430148D81882F90E080719927880FA9
S11330C0991F880F991F880F991F282F8E81882F89
S11330D090E08071992795958795822B88878885BC
S11330E0982F96958885982B888586958695982B14
S11330F08885869586958695892B888788850E94FC
S113310030148F81882F90E080729927880F991F3F
S1133110880F991F282F8C81882F90E0807299271F
S11331209595879595958795822B88878885982F7F
S113313096958885982B888586958695982B88857D
S1133140869586958695892B888788850E94301474
S11331508D81882F90E080729927880F991F880F9E
S1133160991F282F8E81882F90E08072992795953A
S1133170879595958795822B88878885982F96952E
S11331808885982B888586958695982B888586953D
S113319086958695892B888788850E9430148F812F
S11331A0882F90E080749927880F991F282F8C818D
S11331B0882F90E0807499279595879595958795A4
S11331C095958795822B88878885982F96958885ED
S11331D0982B888586958695982B888586958695DF
S11331E08695892B888788850E9430148D81882F45
S11331F090E080749927880F991F282F8E81882F3B
S113320090E08074992795958795959587959595E0
S11332108795822B88878885982F96958885982B03
S1133220888586958695982B888586958695869536
S1133230892B888788850E9430148F81282F2078D5
S11332408C81882F90E0807899279595879595951E
S113325087959595879595958795822B88878885F9
S1133260982F96958885982B888586958695982B92
S11332708885869586958695892B888788850E947A
S113328030148D81282F20788E81882F90E08078CB
S1133290992795958795959587959595879595956E
S11332A08795822B88878885982F96958885982B73
S11332B0888586958695982B8885869586958695A6
S11332C0892B888788850E9430148B858F5F8B8734
S11332D08B818F5F8B838B81823008F4EFCC84E108
S11332E00E94991400002C960FB6F894DEBF0FBE0E
S11332F0CDBFDF91CF910895CF93DF93CDB7DEB7E4
S113330027970FB6F894DEBF0FBECDBF8B837D83A6
S11333106C834E832F838C819D819A8389832F8133
S11333204E8160E681E00E941E1689819A81FC012B
S113333080812F814E81682F8B810E941E16898186
S11333409A8101969A8389838E818E5F8E83898187
S11333509A81FC018081882309F0E7CF00000000F6
S113336027960FB6F894DEBF0FBECDBFDF91CF9185
S11333700895CF93DF93CDB7DEB765970FB6F89472
S1133380DEBF0FBECDBF8D8B8D89807889838D89FB
S1133390882F90E0807499279595879595958795C2
S11333A0959587958A838D898072880F880F8B8382
S11333B08D89882F90E080719927959587958C83C6
S11333C08D8988708295807F8D838D898470880F24
S11333D08E838D8982708295880F880F807C8F837D
S11333E08D898170880F880F880F88878981982F2D
S11333F096958981982B898186958695982B8981C4
S1133400869586958695892B89878A81982F9695A6
S11334108A81982B8A8186958695982B8A818695B0
S113342086958695892B8A878B81982F96958B8193
S1133430982B8B8186958695982B8B81869586957E
S11334408695892B8B878C81982F96958C81982BC8
S11334508C8186958695982B8C8186958695869504
S1133460892B8C878D81982F96958D81982B8D81B2
S113347086958695982B8D81869586958695892B3C
S11334808D878E81982F96958E81982B8E81869527
S11334908695982B8E81869586958695892B8E8721
S11334A08F81982F96958F81982B8F8186958695FD
S11334B0982B8F81869586958695892B8F8788850D
S11334C0982F96958885982B888586958695982B30
S11334D08885869586958695892B888B99858A8596
S11334E0892B898B9B858C85892B8A8B9D858E85E1
S11334F0892B8B8B9F858889892B8C8B89890E944A
S113350030148A890E9430148B890E9430148C896B
S11335100E943014000065960FB6F894DEBF0FBE0B
S1133520CDBFDF91CF910895CF93DF9300D000D02A
S1133530CDB7DEB79C838B8363E98CE10E94621470
S11335406FE780E00E9478140E948E14198225C0CF
S11335501A821DC08981882F90E09C01220F331F9D
S113356022953295307F3227207F32278A81882F17
S113357090E0820F931F9C018B819C81820F931F8B
S1133580FC0180810E94B9198A818F5F8A838A81B4
S11335908C3300F389818F5F898389818034C0F201
S11335A000000F900F900F900F90DF91CF9108952E
S11335B0CF93DF93CDB7DEB788EB0E94FE138CE088
S11335C00E94301488E10E94301484E20E94301476
S11335D080E30E9430148CE30E94301488E40E943B
S11335E0301484E50E94301480E60E9430148CE686
S11335F00E94301488E70E94301484E80E9430143A
S113360080E90E9430148CE90E94301488EA0E94F8
S1133610301484EB0E94301480E00E94FE130000FA
S1133620DF91CF910895CF93DF93CDB7DEB76D9738
S11336300FB6F894DEBF0FBECDBF198282E00E94A0
S113364035139B838A8383E00E9435139D838C8387
S11336508C819D8196958795969587959C01ABEA7B
S1133660BAEA0E948A29929582958F7089279F7061
S113367089279F838E838A819B81969587959695CA
S113368087959C01ABEABAEA0E948A2992958295B1
S11336908F7089279F708927998788879E012C5E60
S11336A03F4F888599854AE050E0B9010E94A429DA
S11336B09E01265F3F4F8E819F814AE050E0B90111
S11336C00E94A4299E012C5E3F4FCE010A96B901A7
S11336D00E9499298E819F8182959295907F982747
S11336E0807F9827982F8885892B80933410000039
S11336F06D960FB6F894DEBF0FBECDBFDF91CF91AC
S11337000895CF93DF93CDB7DEB785E290E025E24D
S113371030E0F90120812F7BFC01208388EE93E0C7
S11337200E94DB1385E290E025E230E0F90120817C
S11337302064FC01208382E10E94E11580E00E9464
S11337400C1581E90E942C158FE30E94BB1580E0C3
S11337500E94BE1480E00E94AD1484E10E9499147A
S113376080E00E94551581E00E94FB146DEF80EA11
S11337700E943D158FE70E9499158FE00E94AA15BB
S11337800E94D81A82EE0E941B1580E20E94CC157A
S11337908FE10E94771588E00E94661587E00E94F9
S11337A0881582E00E94CF1440E060E081E00E942E
S11337B0DE1480E00E94F31581E00E940C150000E5
S11337C0DF91CF910895AF92BF92CF92DF92EF92A3
S11337D0FF920F931F93CF93DF93CDB7DEB7CE5BEA
S11337E0D1090FB6F894DEBF0FBECDBF84E290E0DE
S11337F023EEFC0120838AE290E029E0FC0120838F
S113380085E290E025E230E0F90120812068FC01A6
S1133810208386E0E7ECFFE0DE01DA9601900D926A
S11338208A95E1F786E0E7ECFFE0DE01A05CBF4F9C
S113383001900D928A95E1F7CE018A5B9F4F26E0B5
S1133840E7ECFFE0DC0101900D922A95E1F7CE014F
S1133850845B9F4F26E0E7ECFFE0DC0101900D92D2
S11338602A95E1F7CE018E5A9F4F27E0EDECFFE059
S1133870DC0101900D922A95E1F70E94260FE12CBC
S1133880F12C00E410E020E030E040E450E068E097
S113389085E00E9402100E941A130E948B130E945A
S11338A0811B7894CE01875A9F4F2CE0E4EDFFE012
S11338B0DC0101900D922A95E1F7CE018B599F4FBF
S11338C027E0E0EEFFE0DC0101900D922A95E1F79C
S11338D0CE0184599F4F29E0E7EEFFE0DC0101901F
S11338E00D922A95E1F7CE018B589F4F29E0E0EF26
S11338F0FFE0DC0101900D922A95E1F7CE01825898
S11339009F4F2EE3FC012083CE0182589F4F2EE36C
S1133910FC012183CE0182589F4F2EE3FC012283B8
S1133920CE0182589F4F2EE3FC012383CE018E5794
S11339309F4F2CE3FC012083CE018E579F4F2CE335
S1133940FC012183CE018E579F4F2CE3FC0122837F
S1133950CE018E579F4F2CE3FC012383CE018A575F
S11339609F4F29E0E9EFFFE0DC0101900D922A95D9
S1133970E1F7CE0181579F4F25E0E2E0F0E1DC0161
S113398001900D922A95E1F7CE018C569F4F2EE0BF
S1133990E7E0F0E1DC0101900D922A95E1F7CE0118
S11339A08E559F4F2CE0E5E1F0E1DC0101900D9292
S11339B02A95E1F7CE0182559F4F25E0E1E2F0E13F
S11339C0DC0101900D922A95E1F7CE018D549F4FB1
S11339D02CE3FC012083CE018C549F4F2EE3FC0189
S11339E020831C861B861A8219821C821B821E82DB
S11339F01D821E861D86188A1F861A8A198A1C8AA9
S1133A001B8A1E8A1D8A188E1F8A81E090E098877F
S1133A108F831A8E198E1C8E1B8E1A8619861E8E03
S1133A201D8E80E00E94F31587E190E098A38F8FAC
S1133A3081E489A31AA280E091E00E94941A80EAAA
S1133A409FE00E94DB1380E00E94F3150E94131B89
S1133A5083E00E9435139CA38BA38BA19CA1969514
S1133A6087959695879528E130E0B9010E945429FD
S1133A70CB019EA38DA382E00E94351398A78FA348
S1133A808FA198A5969587959695879528E130E01E
S1133A90B9010E945429CB019AA789A70E94BF119A
S1133AA08BA7E12C01E010E020E430E044E350E196
S1133AB061E080E00E94A91080E090E0A8ECB2E40C
S1133AC08CA79DA7AEA7BFA720E030E04AE755E446
S1133AD06CA57DA58EA59FA50E949E28DC01CB0127
S1133AE088AB99ABAAABBBAB20E030E040E85FE326
S1133AF068A979A98AA99BA90E94542788232CF430
S1133B0081E090E09DAB8CAB3FC020E03FEF4FE7FE
S1133B1057E468A979A98AA99BA90E944128181683
S1133B204CF520E030E040E251E46CA57DA58EA583
S1133B309FA50E949E28DC01CB01BC01CD010E94FF
S1133B406027DC01CB019DAB8CAB0FC080E991E019
S1133B509FAB8EAB8EA99FA90197F1F79FAB8EAB5C
S1133B608CA99DA901979DAB8CAB8CA99DA9892B90
S1133B7069F714C068A979A98AA99BA90E9460273A
S1133B80DC01CB019DAB8CAB8CA99DA999AF88AF0F
S1133B9088AD99AD0197F1F799AF88AF8DA19EA13A
S1133BA029853A852817390721F081E090E0988724
S1133BB08F838DA19EA1039709F008C18F819885F9
S1133BC0019709F04FC018861F822DA13EA1898557
S1133BD09A8582179307D0F4CE018C549F4F0F2EF1
S1133BE0F0EFAF2EB12CF02D0F2EFFE0CF2ED12C05
S1133BF0F02DEE24E394F12C0FE710E021E130E006
S1133C0040E650E06AE370E00E94A5222DA13EA1A7
S1133C1089859A8528173907D0F4CE018D549F4F92
S1133C200F2EF0EFAF2EB12CF02D0F2EFFE0CF2E84
S1133C30D12CF02DEE24E394F12C0FE710E021E1D8
S1133C4030E045E150E060E070E00E94A5228DA1E3
S1133C509EA19A87898784EF91E00E94DB1380E01C
S1133C600E94F31589819A81019711F41A821982AD
S1133C7080912610909127108436910521F481E0DB
S1133C8090E09A83898380912610909127100A9757
S1133C9020F481E090E09C838B838B819C8101974D
S1133CA011F41C821B8280912610909127109C0194
S1133CB0CE018B549F4F4AE050E0BC01C9010E94E1
S1133CC0A4298091261090912710892B21F18091AD
S1133CD0261090912710CC01A0E0B0E0BC01CD01EA
S1133CE00E948F27DC01CB01BC01CD010E94462834
S1133CF0DC01CB0120E030E040E85FE3BC01CD0112
S1133D000E94E826DC01CB01BC01CD010E945927A9
S1133D10DC01CB0102C081E090E09C8F8B8FCE014F
S1133D208E559F4F0F2EF0EFAF2EB12CF02D0F2E8E
S1133D30FFE0CF2ED12CF02D0F2EFCE0EF2EF12C36
S1133D40F02D0FE710E026E130E044E650E065E0B6
S1133D5070E00E940B23CE018B549F4F25E048E274
S1133D60BC0181E00E947C192B8D3C8DCE018B54CB
S1133D709F4F0F2EF0EFAF2EB12CF02D0F2EFFE042
S1133D80CF2ED12CF02D79010FE710E026E130E0A1
S1133D9044E650E06DE270E00E940B23CE018C54A7
S1133DA09F4F6894AA24A6F8B12C6894CC24C2F836
S1133DB0D12CEE24E394F12C0FE710E021E130E064
S1133DC040E650E06AE370E00E94A5228DA19EA126
S1133DD0049709F032C18F819885019709F04FC08B
S1133DE018861F822DA13EA189859A858217930783
S1133DF0D0F4CE018C549F4F0F2EF0EFAF2EB12C88
S1133E00F02D0F2EFFE0CF2ED12CF02DEE24E394D5
S1133E10F12C0FE710E021E130E040E650E06AE3E6
S1133E2070E00E94A5222DA13EA189859A852817BC
S1133E303907D0F4CE018D549F4F0F2EF0EFAF2EE3
S1133E40B12CF02D0F2EFFE0CF2ED12CF02DEE242F
S1133E50E394F12C0FE710E021E130E045E150E07C
S1133E6060E070E00E94A5228DA19EA19A878987B7
S1133E7084EF91E00E94DB1380E00E94F3158091AF
S1133E80281090912910A0912A10B0912B108336FC
S1133E909105A105B10520F481E090E09E838D8316
S1133EA08091281090912910A0912A10B0912B1084
S1133EB0873E9340A105B10520F481E090E09E8304
S1133EC08D838D819E81019711F41E821D828091C4
S1133ED0281090912910A0912A10B0912B109C01C8
S1133EE0CE018B549F4F4AE050E0BC01C9010E94AF
S1133EF0A4298091281090912910A0912A10B091A2
S1133F002B10892B8A2B8B2B29F1809128109091CF
S1133F102910A0912A10B0912B10BC01CD010E9450
S1133F208F27DC01CB01BC01CD010E944628DC01B6
S1133F30CB0120E030E040E85FE3BC01CD010E940A
S1133F40E826DC01CB01BC01CD010E945927DC012C
S1133F50CB0102C081E090E09C8F8B8FCE018B540B
S1133F609F4F25E048E2BC0181E00E947C19CE010C
S1133F7081579F4F0F2EF0EFAF2EB12CF02D0F2E47
S1133F80FFE0CF2ED12CF02D0F2EF5E0EF2EF12CEB
S1133F90F02D0FE710E026E130E044E650E065E064
S1133FA070E00E940B232B8D3C8DCE018B549F4FD0
S1133FB00F2EF0EFAF2EB12CF02D0F2EFFE0CF2EF1
S1133FC0D12CF02D79010FE710E026E130E044E632
S1133FD050E06DE270E00E940B23CE018D549F4FA0
S1133FE06894AA24A6F8B12C6894CC24C2F8D12CE5
S1133FF0EE24E394F12C0FE710E021E130E045E1F9
S113400050E060E070E00E94A522CE018C549F4FE6
S11340106894AA24A6F8B12C6894CC24C2F8D12CB4
S1134020EE24E394F12C0FE710E021E130E040E6C8
S113403050E06AE370E00E94A5228DA19EA105973D
S113404009F00AC18F819885019709F04FC018863D
S11340501F822DA13EA189859A8582179307D0F4EA
S1134060CE018C549F4F0F2EF0EFAF2EB12CF02DBC
S11340700F2EFFE0CF2ED12CF02DEE24E394F12C63
S11340800FE710E021E130E040E650E06AE370E041
S11340900E94A5222DA13EA189859A85281739075A
S11340A0D0F4CE018D549F4F0F2EF0EFAF2EB12CD4
S11340B0F02D0F2EFFE0CF2ED12CF02DEE24E39423
S11340C0F12C0FE710E021E130E045E150E060E041
S11340D070E00E94A5228DA19EA19A87898784EF12
S11340E091E00E94DB1380E00E94F31580912C1074
S11340F090912D10A0912E10B0912F109C01CE0103
S11341008B549F4F4AE050E0BC01C9010E94A4298E
S113411080912C1090912D10A0912E10B0912F1001
S1134120892B8A2B8B2B29F180912C1090912D10A7
S1134130A0912E10B0912F10BC01CD010E948F27A9
S1134140DC01CB01BC01CD010E944628DC01CB017E
S113415020E030E040E85FE3BC01CD010E94E826A6
S1134160DC01CB01BC01CD010E945927DC01CB014C
S113417002C081E090E09C8F8B8FCE018B549F4FC7
S113418025E048E2BC0181E00E947C19CE018C56F6
S11341909F4F0F2EF0EFAF2EB12CF02D0F2EFFE01E
S11341A0CF2ED12CF02D0F2EFEE0EF2EF12CF02D82
S11341B00FE710E026E130E044E650E065E070E00F
S11341C00E940B232B8D3C8DCE018B549F4F0F2EC1
S11341D0F0EFAF2EB12CF02D0F2EFFE0CF2ED12C0F
S11341E0F02D79010FE710E026E130E044E650E0DD
S11341F060E370E00E940B23CE018D549F4F6894BE
S1134200AA24A6F8B12C6894CC24C2F8D12CEE24AC
S1134210E394F12C0FE710E021E130E045E150E0B8
S113422060E070E00E94A522CE018C549F4F6894F8
S1134230AA24A6F8B12C6894CC24C2F8D12CEE247C
S1134240E394F12C0FE710E021E130E040E650E088
S11342506AE370E00E94A5228DA19EA1069709F051
S113426002C18F819885019709F04FC018861F827B
S11342702DA13EA189859A8582179307D0F4CE019A
S11342808C549F4F0F2EF0EFAF2EB12CF02D0F2E2C
S1134290FFE0CF2ED12CF02DEE24E394F12C0FE788
S11342A010E021E130E040E650E06AE370E00E9473
S11342B0A5222DA13EA189859A8528173907D0F416
S11342C0CE018D549F4F0F2EF0EFAF2EB12CF02D59
S11342D00F2EFFE0CF2ED12CF02DEE24E394F12C01
S11342E00FE710E021E130E045E150E060E070E0EC
S11342F00E94A5228DA19EA19A87898784EF91E0CF
S11343000E94DB1380E00E94F3158091301090919D
S11343103110A0913210B091331028EE33E040E018
S113432050E0BC01CD010E946829DA01C9019C0159
S1134330CE018B549F4F4AE050E0BC01C9010E945A
S1134340A429CE018B549F4F2EE2FC0121838E01C0
S11343500B541F4F0E5F1F4F8091301090913110FE
S1134360A0913210B091331028EE33E040E050E0D9
S1134370BC01CD010E946829DC01CB014AE050E078
S1134380B8010E94A429CE018B549F4F25E048E236
S1134390BC0181E00E947C19CE018A579F4F0F2EE9
S11343A0F0EFAF2EB12CF02D0F2EFFE0CF2ED12C3D
S11343B0F02D0F2EF9E0EF2EF12CF02D0FE710E089
S11343C026E130E044E650E065E070E00E940B2313
S11343D0CE018B549F4F0F2EF0EFAF2EB12CF02D4A
S11343E00F2EFFE0CF2ED12CF02D6894EE24E2F8AE
S11343F0F12C0FE710E026E130E044E650E06DE2F6
S113440070E00E940B23CE018D549F4F6894AA2420
S1134410A6F8B12C6894CC24C2F8D12CEE24E394F1
S1134420F12C0FE710E021E130E045E150E060E0DD
S113443070E00E94A522CE018C549F4F6894AA2458
S1134440A6F8B12C6894CC24C2F8D12CEE24E394C1
S1134450F12C0FE710E021E130E040E650E06AE3A0
S113446070E00E94A5228DA19EA107970CF4EECACC
S11344708F819885019709F04FC018861F822DA15E
S11344803EA189859A8582179307D0F4CE018C5476
S11344909F4F0F2EF0EFAF2EB12CF02D0F2EFFE01B
S11344A0CF2ED12CF02DEE24E394F12C0FE710E065
S11344B021E130E040E650E06AE370E00E94A5228A
S11344C02DA13EA189859A8528173907D0F4CE01FC
S11344D08D549F4F0F2EF0EFAF2EB12CF02D0F2ED9
S11344E0FFE0CF2ED12CF02DEE24E394F12C0FE736
S11344F010E021E130E045E150E060E070E00E942E
S1134500A5228DA19EA19A87898784EF91E00E94BC
S1134510DB1380E00E94F315CE018D549F4F689405
S1134520AA24A6F8B12C6894CC24C2F8D12CEE2489
S1134530E394F12C0FE710E021E130E045E150E095
S113454060E070E00E94A52281CAAF92CF92DF9210
S1134550EF92FF920F931F93CF93DF93CDB7DEB704
S11345602E970FB6F894DEBF0FBECDBF9C838B830E
S11345706D834E832F830887FA86E986CB86AC86C3
S11345801A82198230C08C85082F10E08B85A82FE1
S1134590B0E08885282F30E03E872D878F81282F33
S11345A030E08E81482F50E08D81682F70E08B8140
S11345B09C81FC018081882F90E068017D010D853C
S11345C01E850E9471238B819C8101969C838B8321
S11345D08D818C5F8D838E818C5F8E8389819A819E
S11345E001969A83898329813A8189859A85281736
S11345F0390748F200002E960FB6F894DEBF0FBEBE
S1134600CDBFDF91CF911F910F91FF90EF90DF907D
S1134610CF90AF900895AF92CF92DF92EF92FF9236
S11346200F931F93CF93DF93CDB7DEB72E970FB6BB
S1134630F894DEBF0FBECDBF9C838B836D834E8306
S11346402F830887FA86E986CB86AC861A8219827C
S113465030C08C85082F10E08B85A82FB0E08885AA
S1134660282F30E03E872D878F81282F30E08E81E0
S1134670482F50E08D81682F70E08B819C81FC0174
S11346808081882F90E068017D010D851E850E9440
S11346906E258B819C8101969C838B838D818D5F9C
S11346A08D838E818D5F8E8389819A8101969A8311
S11346B0898329813A8189859A852817390748F29F
S11346C000002E960FB6F894DEBF0FBECDBFDF916B
S11346D0CF911F910F91FF90EF90DF90CF90AF900B
S11346E00895CF92EF920F93CF93DF93CDB7DEB7B8
S11346F0A0970FB6F894DEBF0FBECDBF8A8F6B8F25
S11347004C8F2D8F0E8FEF8EC8A28C8D882F90E04A
S11347109C01245E3F4F8B8D882F90E04C96B9010D
S11347200E9462148D8D882F90E09C01275E3F4F7C
S11347308D8D882F90E0B9010E9478140E948E1408
S11347401F821E821A8219821A821982B5C11C82A2
S11347501B8288C11D828B819C8104970CF078C0D8
S113476023E030E08B819C81A901481B590BCA01CD
S1134770880F991F9C012F5F3F4F81E090E0FC015F
S113478002C0EE0FFF1F2A95E2F79F018A8D882F42
S113479090E0BC016052710989819A81880F991F48
S11347A0E2E3E69FA001E79F500D1124840F951FBB
S11347B08C58924F9987888788859985FC018491C4
S11347C08A878A85882F90E08223932318161906F6
S11347D024F49D8188A1890F8D8323E030E08B81AF
S11347E09C81A901481B590BCA019C01220F331F4C
S11347F081E090E0FC0102C0EE0FFF1F2A95E2F772
S11348009F018A8D882F90E0BC01605271098981D3
S11348109A81880F991FE2E3E69FA001E79F500D5C
S11348201124840F951F8C58924F9C878B878B85FE
S11348309C85FC0184918D878D85882F90E082234F
S113484093231816190624F49D818F8D890F8D8367
S11348508B819C8104970CF481C08B819C81089787
S11348600CF07CC027E030E08B819C81A901481BBF
S1134870590BCA01880F991F9C012F5F3F4F81E09C
S113488090E0FC0102C0EE0FFF1F2A95E2F79F01A2
S11348908A8D882F90E0BC016052710989819A81C8
S11348A0880F991F0196E2E3E69FA001E79F500D50
S11348B01124840F951F8C58924F9F878E878E8565
S11348C09F85FC018491888B8889882F90E08223BE
S11348D093231816190624F49D8188A1890F8D83CA
S11348E027E030E08B819C81A901481B590BCA0148
S11348F09C01220F331F81E090E0FC0102C0EE0F07
S1134900FF1F2A95E2F79F018A8D882F90E0BC0152
S11349106052710989819A81880F991F0196E2E397
S1134920E69FA001E79F500D1124840F951F8C581A
S1134930924F9A8B898B89899A89FC0184918B8BFC
S11349408B89882F90E082239323181619060CF084
S11349507FC09D818F8D890F8D837AC028E030E0E0
S11349608B819C81A901481B590BCA01880F991F8F
S11349709C012F5F3F4F81E090E0FC0102C0EE0FED
S1134980FF1F2A95E2F79F018A8D882F90E0BC01D2
S11349906052710989819A81880F991F0196E2E317
S11349A0E69FA001E79F500D1124840F951F8C589A
S11349B0924F9D8B8C8B8C899D89FC0184918E8B6D
S11349C08E89882F90E0822393231816190624F4E5
S11349D09D8188A1890F8D8328E030E08B819C81A3
S11349E0A901481B590BCA019C01220F331F81E006
S11349F090E0FC0102C0EE0FFF1F2A95E2F79F0131
S1134A008A8D882F90E0BC016052710989819A8156
S1134A10880F991F0196E2E3E69FA001E79F500DDE
S1134A201124840F951F8C58924F988F8F8B8F89E8
S1134A30988DFC018491898F898D882F90E0822341
S1134A4093231816190624F49D818F8D890F8D8365
S1134A508D81882F90E00E9430148B819C81019677
S1134A609C838B838B819C8108970CF473CE8C8DF3
S1134A70882F90E09C01245E3F4F8B8D882F90E01F
S1134A804C96B9010E9462148D8D882F90E0AC0180
S1134A90425E5F4F8D8D282F30E089819A81820F8D
S1134AA0931F0196BA010E9478140E948E14898182
S1134AB09A8101969A83898389819A8149970CF412
S1134AC046CE0000A0960FB6F894DEBF0FBECDBF51
S1134AD0DF91CF910F91EF90CF900895CF92EF9205
S1134AE00F93CF93DF93CDB7DEB76A970FB6F894E1
S1134AF0DEBF0FBECDBF8C8B6D8B4E8B2F8B088F83
S1134B00E98ECA8E8E89882F90E09C01245E3F4FE7
S1134B108D89882F90E04C96B9010E9462148F8988
S1134B20882F90E09C012F5E3F4F8F89882F90E063
S1134B30B9010E9478140E948E141F821E821A8268
S1134B4019821A82198231C11C821B8204C11D82FE
S1134B508B819C8104970CF07AC023E030E08B8138
S1134B609C81A901481B590BCA01880F991F9C01FC
S1134B702F5F3F4F81E090E0FC0102C0EE0FFF1F6A
S1134B802A95E2F79F018C89882F90E0BC0160523E
S1134B90710989819A81880F991FE6E2E69FA00135
S1134BA0E79F500D1124840F951F8A529F4F9987B8
S1134BB0888788859985FC0184918A878A85882FCE
S1134BC090E0822393231816190624F49D818A8D7C
S1134BD0890F8D8323E030E08B819C81A901481BE0
S1134BE0590BCA019C01220F331F81E090E0FC01A4
S1134BF002C0EE0FFF1F2A95E2F79F018C89882FD0
S1134C0090E0BC016052710989819A81880F991FD3
S1134C10E6E2E69FA001E79F500D1124840F951F43
S1134C208A529F4F9C878B878B859C85FC0184913E
S1134C308D878D85882F90E082239323181619067B
S1134C400CF07FC09D81898D890F8D837AC027E008
S1134C5030E08B819C81A901481B590BCA01880F44
S1134C60991F9C012F5F3F4F81E090E0FC0102C03F
S1134C70EE0FFF1F2A95E2F79F018C89882F90E0A1
S1134C80BC016052710989819A81880F991F01962C
S1134C90E6E2E69FA001E79F500D1124840F951FC3
S1134CA08A529F4F9F878E878E859F85FC018491B2
S1134CB0888B8889882F90E08223932318161906FD
S1134CC024F49D818A8D890F8D8327E030E08B81C8
S1134CD09C81A901481B590BCA019C01220F331F57
S1134CE081E090E0FC0102C0EE0FFF1F2A95E2F77D
S1134CF09F018C89882F90E0BC01605271098981E1
S1134D009A81880F991F0196E6E2E69FA001E79F2A
S1134D10500D1124840F951F8A529F4F9A8B898BB3
S1134D2089899A89FC0184918B8B8B89882F90E0E7
S1134D30822393231816190624F49D81898D890FE3
S1134D408D838D81882F90E00E9430148B819C810B
S1134D5001969C838B838B819C8107970CF4F7CEFF
S1134D608E89882F90E09C01245E3F4F8D89882F87
S1134D7090E04C96B9010E9462148F89882F90E0CC
S1134D80AC014F5E5F4F8F89282F30E089819A8173
S1134D90820F931F0196BA010E9478140E948E1408
S1134DA089819A8101969A83898389819A8141971D
S1134DB00CF4CACE00006A960FB6F894DEBF0FBE9C
S1134DC0CDBFDF91CF910F91EF90CF9008955058C0
S1134DD0BB27AA270E94FF260C9407280E94F927C4
S1134DE038F00E94002820F039F49F3F19F426F48B
S1134DF00C94F6270EF4E095E7FB0C94F027E92FCA
S1134E000E94182858F3BA17620773078407950796
S1134E1020F079F4A6F50C943A280EF4E0950B2EC4
S1134E20BA2FA02D0B01B90190010C01CA01A001F8
S1134E301124FF27591B99F0593F50F4503E68F153
S1134E401A16F040A22F232F342F4427585FF3CF94
S1134E50469537952795A795F0405395C9F77EF465
S1134E601F16BA0B620B730B840BBAF09150A1F0AE
S1134E70FF0FBB1F661F771F881FC2F70EC0BA0F34
S1134E80621F731F841F48F4879577956795B795BC
S1134E90F7959E3F08F0B0CF9395880F08F09927B7
S1134EA0EE0F9795879508950E94CC2708F481E02A
S1134EB008950E9460276894B1110C943B280895CA
S1134EC00E94202888F09F5798F0B92F9927B7514E
S1134ED0B0F0E1F0660F771F881F991F1AF0BA959A
S1134EE0C9F714C0B13091F00E943A28B1E0089596
S1134EF00C943A28672F782F8827B85F39F0B93F88
S1134F00CCF3869577956795B395D9F73EF490954C
S1134F108095709561957F4F8F4F9F4F0895E894CA
S1134F2009C097FB3EF490958095709561957F4FED
S1134F308F4F9F4F9923A9F0F92F96E9BB2793959B
S1134F40F695879577956795B795F111F8CFFAF4AB
S1134F50BB0F11F460FF1BC06F5F7F4F8F4F9F4FDC
S1134F6016C0882311F096E911C0772321F09EE83A
S1134F70872F762F05C0662371F096E8862F70E0A0
S1134F8060E02AF09A95660F771F881FDAF7880F7A
S1134F909695879597F90895990F0008550FAA0BD0
S1134FA0E0E8FEEF16161706E807F907C0F0121638
S1134FB01306E407F50798F0621B730B840B950B3B
S1134FC039F40A2661F0232B242B252B21F4089590
S1134FD00A2609F4A140A6958FEF811D811D08952D
S1134FE097F99F6780E870E060E008959FEF80EC98
S1134FF0089500240A94161617061806090608953B
S113500000240A9412161306140605060895092EA0
S11350100394000C11F4882352F0BB0F40F4BF2B0F
S113502011F460FF04C06F5F7F4F8F4F9F4F08954F
S113503057FD9058440F551F59F05F3F71F0479545
S1135040880F97FB991F61F09F3F79F0879508952A
S1135050121613061406551FF2CF4695F1DF08C049
S1135060161617061806991FF1CF86957105610566
S113507008940895E894BB2766277727CB0197F90E
S113508008950E94CC2708F48FEF08950E945628B3
S113509029ED3BE54EED5EE30C949E2816F00C944E
S11350A00B290C94F62768940C94F0270E9420286E
S11350B0A8F39923C1F3AEF3DF93CF931F930F9318
S11350C0FF92C92FDD2788232AF02197660F771FC7
S11350D0881FDAF720E030E040E85FEB9FE388398F
S11350E020F0803E38F021968F770E94E826ECE786
S11350F0F0E004C00E94E826E9EAF0E00E941929E1
S11351008B01BE01EC01FB2E6F5771097595771F5A
S1135110880B990B0E94912728E132E741E35FE372
S11351200E94B128AF2D9801AE01FF900F911F91FD
S1135130CF91DF910E94FF260C9407280E94B1288A
S11351400C9407280E94F92738F00E94002820F0C8
S1135150952311F00C94F0270C94F62711240C9449
S11351603B280E94182870F3959FC1F3950F50E0D7
S1135170551F629FF001729FBB27F00DB11D639F05
S1135180AA27F00DB11DAA1F649F6627B00DA11DAB
S1135190661F829F2227B00DA11D621F739FB00D51
S11351A0A11D621F839FA00D611D221F749F3327C1
S11351B0A00D611D231F849F600D211D822F762F5A
S11351C06A2F11249F5750409AF0F1F088234AF037
S11351D0EE0FFF1FBB1F661F771F881F91505040A3
S11351E0A9F79E3F510580F00C94F0270C943B28BE
S11351F05F3FE4F3983ED4F3869577956795B7952A
S1135200F795E7959F5FC1F7FE2B880F911D969543
S1135210879597F908959F3F31F0915020F4879531
S113522077956795B795880F911D9695879597F90A
S11352300895DF93CF931F930F93FF92EF92DF9222
S11352407B018C01689406C0DA2EEF010E94B1281C
S1135250FE01E894A5912591359145915591A6F3C8
S1135260EF010E94FF26FE019701A801DA9469F775
S1135270DF90EF90FF900F911F91CF91DF910895F0
S1135280AA1BBB1B51E107C0AA1FBB1FA617B70768
S113529010F0A61BB70B881F991F5A95A9F7809584
S11352A09095BC01CD01089597FB072E16F4009448
S11352B007D077FD09D00E94402907FC05D03EF4B1
S11352C0909581959F4F0895709561957F4F0895AE
S11352D0A1E21A2EAA1BBB1BFD010DC0AA1FBB1FF6
S11352E0EE1FFF1FA217B307E407F50720F0A21B68
S11352F0B30BE40BF50B661F771F881F991F1A94D5
S113530069F760957095809590959B01AC01BD01FE
S1135310CF010895A29FB001B39FC001A39F700D58
S1135320811D1124911DB29F700D811D1124911DA9
S11353300895FB01DC010D900020E9F7119701901D
S11353400D920020E1F708954532510520F44230D2
S113535010F00C94AF29FB011082CB010895BB27F8
S11353604A3031F4992322F4BDE2909581959F4F00
S11353700C94BB29BB27FB015527AA27880F991F2B
S1135380AA1FA41710F0A41B83955051B9F7A05D70
S1135390AA3308F0A95DA193009779F7B111B193ED
S11353A01192CB010C94D429DC01FC01672F71917B
S11353B07723E1F7329704C07C916D9370836291F7
S10F53C0AE17BF07C8F30895F894FFCFA0
S11353CC00000000000000000000000000000000CD
S11353DC00000000000000000000000000000000BD
S11353EC00000000000000000000000000000000AD
S11353FC000000000000000000000000000000009D
S113540C000000000000000000000000000000008C
S113541C000000000000000000000000000000007C
S113542C000000000000000000000000000000006C
S113543C000000000000000000000000000000005C
S113544C000000000000000000000000000000004C
S113545C000000000000000000000000000000003C
S113546C000000000000000000000000000000002C
S113547C000000000000000000000000000000001C
S113548C000000000000000000000000000000000C
S113549C00000000000000000000000000000000FC
S11354AC00000000000000000000000000000000EC
S11354BC00000000000000000000000000000000DC
S11354CC00000000000000000000000000000000CC
S11354DC00000000000000000000000000000000BC
S11354EC00000000000000000000000000000000AC
S11354FC000000000000000000000000000000009C
S113550C0000000000000000000003F80000000090
S113551C000000000000000000000000000000007B
S113552C000000000000000000001FFE00FC03F758
S113553CFFFF3FC01FE01FF0000000000000000050
S113554C000000000000000000007FFF80FC07E763
S113555CFFFE3FC03FE01FE0000000000000000021
S113556C00000000000000000000FFFFC1F807E786
S113557CFFFE3FC03FC01FE0000000000000000021
S113558C00000000000000000001FFFFC1F807EF5D
S113559CFFFE7F803FC03FE00000000000000000E1
S11355AC00000000000000000007FFFFE1F80FCF2F
S11355BCFFFC7F803FC03FC00000000000000000E3
S11355CC00000000000000000007FC7FE3F00FC0A7
S11355DC3F007F807F803FC000000000000000007F
S11355EC0000000000000000000FF01FE3F00FC0EB
S11355FC3F00FF007F807FC000000000000000001F
S113560C0000000000000000001FC00FE3F01F802A
S113561C7E00FF007F807F800000000000000000FF
S113562C0000000000000000003F800FE7E01F8036
S113563C7E0000FF007F80000000000000000000DE
S113564C0000000000000000003F800FE7E01F8016
S113565C7E0000FF00FF00000000000000000000BE
S113566C0000000000000000007F000FE7E03F0096
S113567CFC0001FF00FF000000000000000000001F
S113568C0000000000000000007F000FCFC03F00AE
S113569CFC0001FE00FF0000000000000000000000
S11356AC0000000000000000007E000FCFC03F008F
S11356BCFC0001FE01FE00000000000000000000E0
S11356CC0000000000000000007E01FFCFC07E013E
S11356DCF80003FE01FE00000000000000000000C2
S11356EC000000000000000000FE03FF9F807E010C
S11356FCF80003FC01FE00000000000000000000A4
S113570C000000000000000000FE03FF9F807E01EB
S113571CF80003FC03FC0000000000000000000083
S113572C000000000000000000FE01FF1F80FC03CD
S113573CF007F803FC03FC0000000000000000006C
S113574C000000000000000000FF01FF1F80FC03AC
S113575CF007F807FC03FC00000000000000000048
S113576C000000000000000000FF83FE3F81F803EE
S113577CF00FF807F803FC00000000000000000024
S113578C0000000000000000007FFFFC3FFFF80752
S113579CF00FF007F807F80000000000000000000C
S11357AC0000000000000000007FFFFC1FFFF0075A
S11357BCE00FF00FF807F8000000000000000000F4
S11357CC0000000000000000003FFFFC1FFFE0078A
S11357DCE01FF00FF007F8000000000000000000CC
S11357EC0000000000000000003FFFFE0FFFC00F90
S11357FCE01FE00FF00FF8000000000000000000B4
S113580C0000000000000000000FFFFE07FF000F67
S113581CC01FE01FF00FF0000000000000000000AB
S113582C00000000000000000003F87E01F8000FE7
S113583CC01FC01FE00FF0000000000000000000BB
S113584C0000000000000000000000000000000048
S113585C0000000000000000000000000000000038
S113586C0000000000000000000000000000000028
S113587C0000000000000000000000000000000018
S113588C000000000000000007FFFFFFFFFFFFFF08
S113589CFFFFFFFFFFFFE00000000000000000001E
S11358AC00000000000000000FFFFFFFFFFFFFFFE0
S11358BCFFFFFFFFFFFFE0000000000000000000FE
S11358CC00000000000000000FFFFFFFFFFFFFFFC0
S11358DCFFFFFFFFFFFFC0000000000000000000FE
S11358EC00000000000000000EFDF03C0781F03EBB
S11358FC0F81F03E0781C000000000000000000092
S113590C00000000000000001C79E01C0701E03CD2
S113591C0701E03C0701C00000000000000000008B
S113592C00000000000000001C61C71F3E38E7386F
S113593CCF39C71C67CF80000000000000000000B6
S113594C00000000000000001C03CF1E3C79E73867
S113595C3F318F1CE7CF80000000000000000000E6
S113596C000000000000000038038F1E7CF9C07C8E
S113597C1E039F380F8F8000000000000000000001
S113598C000000000000000039038F3E7CF1C0FFD2
S113599C8E079E381F9F00000000000000000000CE
S11359AC000000000000000039E78C3C7C63CCF361
S11359BC9C1F8C799F9F00000000000000000000D9
S11359CC000000000000000071E7807CFC078CF0F4
S11359DC1C7F80F19F1F00000000000000000000ED
S11359EC000000000000000073C7C1FCFE0F9C788F
S11359FC3CFFC1F38F3E00000000000000000000DB
S1135A0C00000000000000007FFFFFFFFFFFFFFF0E
S1135A1CFFFFFFFFFFFE000000000000000000007D
S1135A2C0000000000000000FFFFFFFFFFFFFFFF6E
S1135A3CFFFFFFFFFFFE000000000000000000005D
S1135A4C0000000000000000000000000000000046
S1135A5C0000000000000000000000000000000036
S1135A6C0000000000000000000000000000000026
S1135A7C0000000000000000000000000000000016
S1135A8C0000000000000000000000000000000006
S1135A9C00000000000000000000000000000000F6
S1135AAC00000000000000000000000000000000E6
S1135ABC00000000000000000000000000000000D6
S1135ACC00000000000000000000000000000000C6
S1135ADC00000000000000000000000000000000B6
S1135AEC00000000000000000000000000000000A6
S1135AFC0000000000000000000000000000000096
S1135B0C0000000000000000000000000000000085
S1135B1C0000000000000000000000000000000075
S1135B2C0000000000000000000000000000000065
S1135B3C0000000000000000000000000000000055
S1135B4C0000000000000000000000000000000045
S1135B5C0000000000000000000000000000000035
S1135B6C0000000000000000000000000000000025
S1135B7C0000000000000000000000000000000015
S1135B8C0000000000000000000000000000000005
S1135B9C00000000000000000000000000000000F5
S1135BAC00000000000000000000000000000000E5
S1135BBC00000000000000000000000000000000D5
S1135BCC00004F00000007000700147F147F14240A
S1135BDC2A7F2A1223130864623649552250000581
S1135BEC030000001C2241000041221C0014083E4A
S1135BFC081408083E08080050300000080808087B
S1135C0C08006060000020100804023E5149453E23
S1135C1C00427F400042615149462141454B3118B5
S1135C2C14127F1027454545393C4A4949300171C6
S1135C3C0905033649494936064949291E003636B1
S1135C4C00000056360000081422410014141414E9
S1135C5C1400412214080201510906324979413ECB
S1135C6C7E1111117E7F494949363E414141227FC3
S1135C7C4141221C7F494949417F090909013E419F
S1135C8C49497A7F0808087F00417F410020404140
S1135C9C3F017F081422417F404040407F020C02A8
S1135CAC7F7F0408107F3E4141413E7F090909066C
S1135CBC3E4151215E7F0919294646494949310122
S1135CCC017F01013F4040403F1F2040201F3F40C7
S1135CDC38403F631408146307087008076151497E
