S01200006F6C65645F74657374312E737265631E
S11300000C943E000C945B000C945B000C945B001D
S11300100C945B000C945B000C945B000C945B00F0
S11300200C945B000C945B000C9468020C945B00D1
S11300300C945B000C945B000C945B000C945B00D0
S11300400C945B000C945B000C948A020C945B008F
S11300500C945B000C945B000C945B000C945B00B0
S11300600C945B000C945B000C945B000C945B00A0
S11300700C945B000C945B000C945B0011241FBE79
S1130080CFEFD0E1DEBFCDBF18E0A0E0B1E0EEEEEF
S1130090FBE102C005900D92AC33B107D9F728E01B
S11300A0ACE3B8E001C01D92A336B207E1F70E94A9
S11300B05D000C94F50D0C940000EF92FF920F93E9
S11300C01F93CF93DF93CDB7DEB7CB58D1090FB6CB
S11300D0F894DEBF0FBECDBF84E290E023EEFC01B6
S11300E020838AE290E029E0FC01208385E290E00D
S11300F025E230E0F90120812068FC0120830E9480
S113010023040E943E040E94A90A0E941803E12CC1
S1130110F12C00E410E020E030E040E450E068E03E
S113012085E00E947C03789487E190E09D838C8332
S113013081E48E831F828CE0EAEEF7E0DE0196967E
S113014001900D928A95E1F787E0E6EFF7E0DE0192
S1130150D29601900D928A95E1F789E0EDEFF7E0F0
S1130160DE01D99601900D928A95E1F7CE018E5B5E
S11301709F4F29E0E6E0F8E0DC0101900D922A951A
S1130180E1F7CE01855B9F4F2EE3FC012083CE0176
S1130190855B9F4F2EE3FC012183CE01855B9F4F3E
S11301A02EE3FC012283CE01855B9F4F2EE3FC01ED
S11301B02383CE01815B9F4F2CE3FC012083CE017E
S11301C0815B9F4F2CE3FC012183CE01815B9F4F18
S11301D02CE3FC012283CE01815B9F4F2CE3FC01C5
S11301E02383CE018D5A9F4F29E0EFE0F8E0DC0134
S11301F001900D922A95E1F7CE01845A9F4F25E094
S1130200E8E1F8E0DC0101900D922A95E1F7CE01D6
S11302108F599F4F2EE0EDE1F8E0DC0101900D9243
S11302202A95E1F7CE0181599F4F2CE0EBE2F8E0EB
S1130230DC0101900D922A95E1F7CE0185589F4F7C
S113024025E0E7E3F8E0DC0101900D922A95E1F75F
S1130250CE0180589F4F2CE3FC012083CE018F57A1
S11302609F4F2EE3FC012083198618861B861A866D
S11302701D861C861F861E86198A188A1B8A1A8A5E
S11302801D8A1C8A1F8A1E8A198E188E1B8E1A8E2E
S113029081E090E09D8F8C8F1F8E1E8E19A218A274
S11302A01BA21AA21DA21CA280913C0890913D0899
S11302B0292F2F938F9387EE97E0892F8F9387EEC3
S11302C097E08F938FE498E0892F8F938FE498E0E1
S11302D08F930E940B0B0F900F900F900F900F9025
S11302E00F9080913E0890913F08292F2F938F9370
S11302F087EE97E0892F8F9387EE97E08F9389E5B8
S113030098E0892F8F9389E598E08F930E940B0BD7
S11303100F900F900F900F900F900F9080914008C6
S113032090914108A0914208B09143082B2F2F933C
S11303302A2F2F93292F2F938F9387EE97E0892FBE
S11303408F9387EE97E08F9384E498E0892F8F93BF
S113035084E498E08F930E940B0B8DB79EB70896A8
S11303600FB6F894DEBF0FBECDBF198227C08981B6
S1130370882F90E0815B974FFC0180818823D9F41A
S11303808981882F90E0815B974F20E6FC012083D0
S11303908981882F90E00196815B974F20E6FC01CC
S11303A020838981882F90E00296815B974FFC011E
S11303B010828AE0898389818F5F898389818A3069
S11303C0B0F21A8227C08A81882F90E0875A974F0B
S11303D0FC0180818823D9F48A81882F90E0875A90
S11303E0974F20E6FC0120838A81882F90E00196B4
S11303F0875A974F20E6FC0120838A81882F90E05A
S11304000296875A974FFC0110828AE08A838A8178
S11304108F5F8A838A818A30B0F21B8227C08B81E6
S1130420882F90E08C5B974FFC0180818823D9F45E
S11304308B81882F90E08C5B974F20E6FC01208312
S11304408B81882F90E001968C5B974F20E6FC010E
S113045020838B81882F90E002968C5B974FFC0160
S113046010828AE08B838B818F5F8B838B818A30B0
S1130470B0F284E690E00E948E0425E045E060E05E
S113048071E081E00E94310A25E047E26FE478E000
S113049081E00E94310A25E145E06AE071E081E0F3
S11304A00E94310A25E147E269E578E081E00E9493
S11304B0310A25E245E061E171E081E00E94310A00
S11304C025E247E264E478E081E00E94310AECCE60
S11304D01F920F9200905F000F9211242F938F931D
S11304E09F93EF93FF93CF93DF93CDB7DEB783E56D
S11304F090E022E0FC0120830000DF91CF91FF9186
S1130500EF919F918F912F910F9000925F000F9028
S11305101F9018951F920F9200905F000F92112464
S1130520EF92FF920F931F932F933F934F935F93F9
S11305306F937F938F939F93AF93BF93EF93FF93A7
S1130540CF93DF93CDB7DEB780EE90E0FC018081DE
S1130550882F90E080729927892BA9F18DEE90E085
S113056020E5FC0120838AEF90E0FC018081882F44
S113057090E090933D0880933C088AEF90E0FC0162
S11305808081882F90E090933F0880933E088AEF03
S113059090E0FC018081882F90E0A0E0B0E080939F
S11305A0400890934108A0934208B0934308E12C7B
S11305B0F12C00E410E020E030E040E450E068E09A
S11305C085E00E947C038DEE90E020E5FC01208311
S11305D08EEE90E02EEE30E0F90120812F7DFC01BB
S11305E020838DEE90E020E4FC0120838EEE90E0E9
S11305F02EEE30E0F90120812F7DFC0120830000E4
S1130600DF91CF91FF91EF91BF91AF919F918F9126
S11306107F916F915F914F913F912F911F910F9116
S1130620FF90EF900F9000925F000F901F9018952D
S1130630CF93DF931F92CDB7DEB788ED90E021E032
S1130640FC012083198222C08DEE90E0298122953D
S1130650207FFC0120838FEE90E0FC0110828EEE5F
S113066090E0FC01108287EF90E0FC01108286EF9D
S113067090E0FC01108285EF90E0FC01108284EF91
S113068090E0FC01108289818F5F898389818630A3
S1130690D8F282EE90E02EE0FC01208383EE90E01D
S11306A024E0FC01208384EE90E023E1FC0120831C
S11306B08EED90E020E3FC0120838BED90E020EAB6
S11306C0FC01208388ED90E022E0FC01208382E39A
S11306D090E00E948E0489ED90E0FC018081882FD7
S11306E090E084709927892B11F481E001C080E0A7
S11306F00F90DF91CF910895EF92FF920F931F9384
S1130700CF93DF93CDB7DEB72A970FB6F894DEBF49
S11307100FBECDBF89836A832B833C834D835E8365
S1130720EF82F88609871A878DEE90E02981229559
S1130730207FFC01208384EF90E02B81220F220F85
S1130740220FFC01208325EF30E08B819C81AD8159
S1130750BE81689414F8B695A795979587951694D5
S1130760D1F7F901808326EF30E08B819C81AD8144
S1130770BE81072E7DE0B695A795979587957A95C6
S1130780D1F7702DF901808327EF30E08B819C81B4
S1130790AD81BE81072E75E1B695A795979587958E
S11307A07A95D1F7702DF901808380EF90E02F8145
S11307B0220F220F220FFC01208321EF30E08F81D2
S11307C09885A985BA85689414F8B695A7959795E0
S11307D087951694D1F7F901808322EF30E08F8159
S11307E09885A985BA85072E7DE0B695A795979536
S11307F087957A95D1F7702DF901808323EF30E046
S11308008F819885A985BA85072E75E1B695A79538
S1130810979587957A95D1F7702DF90180838FEE9E
S113082090E02A812069FC01208300002A960FB6FB
S1130830F894DEBF0FBECDBFDF91CF911F910F9112
S1130840FF90EF900895CF93DF93CDB7DEB78CE799
S113085090E020E6FC0120838CE790E02CE730E078
S1130860F90120812F7DFC0120838AE790E027E8AD
S1130870FC0120830000DF91CF910895CF93DF9393
S1130880CDB7DEB785E590E025E530E0F9012081BC
S11308902F77FC0120838CE490E020E5FC01208389
S11308A08DE490E021E0FC0120838EE490E0FC01E3
S11308B010820000DF91CF910895CF93DF931F92B0
S11308C0CDB7DEB789838EE490E02981FC012083D3
S11308D000008DE490E0FC0180818823D4F78EE44D
S11308E090E0FC0180810F90DF91CF910895CF9328
S11308F0DF9300D0CDB7DEB79A8389830000898166
S11309009A819C01215031093A832983892BB9F7B3
S113091000000F900F90DF91CF910895CF93DF9354
S113092000D000D0CDB7DEB79C838B831A821982A6
S113093009C080E694E00E94770489819A81019637
S11309409A83898329813A818B819C81281739076D
S113095080F300000F900F900F900F90DF91CF91D4
S11309600895CF93DF931F92CDB7DEB7898385E2D5
S113097090E025E230E0F90120812F7DFC01208305
S11309808BE290E02BE230E0F90120812E7FFC0124
S1130990208389810E945D0485E290E025E230E0B5
S11309A0F90120812062FC0120838BE290E02BE29C
S11309B030E0F90120812160FC01208300000F90C8
S11309C0DF91CF910895CF93DF931F92CDB7DEB718
S11309D089838BE290E02BE230E0F90120812E7FC5
S11309E0FC01208385E290E025E230E0F9012081DA
S11309F02062FC01208389810E945D0485E290E0ED
S1130A0025E230E0F90120812062FC0120838BE2A1
S1130A1090E02BE230E0F90120812160FC01208389
S1130A2000000F90DF91CF910895CF93DF9300D012
S1130A30CDB7DEB789836A8385E10E94B1048981D9
S1130A400E94E3048A810E94E30400000F900F9047
S1130A50DF91CF910895CF93DF9300D0CDB7DEB768
S1130A6089836A8385E70E94B10489810E94E30433
S1130A708A810E94E30400000F900F90DF91CF91D0
S1130A800895CF93DF93CDB7DEB78CE50E94B10410
S1130A900000DF91CF910895CF93DF931F92CDB7DC
S1130AA0DEB7898380EA0E94B10489810E94E3044D
S1130AB081E10E94E30400000F90DF91CF9108953B
S1130AC0CF93DF931F92CDB7DEB7898381EA0E946B
S1130AD0B10489810E94E30400000F90DF91CF915B
S1130AE00895CF93DF931F92CDB7DEB7898382EA4F
S1130AF00E94B10489810E94E30400000F90DF91F9
S1130B00CF910895CF93DF931F92CDB7DEB789833A
S1130B108981846A0E94B10400000F90DF91CF9113
S1130B200895CF93DF9300D01F92CDB7DEB78983AA
S1130B306A834B838981886A0E94B10489818823EE
S1130B4031F48A810E94E3048B810E94E304000053
S1130B500F900F900F90DF91CF910895CF93DF9373
S1130B601F92CDB7DEB789838BEA0E94B1048981D5
S1130B700E94E30400000F90DF91CF910895CF937A
S1130B80DF931F92CDB7DEB7898389818E6A0E9475
S1130B90B10400000F90DF91CF910895CF93DF93BC
S1130BA01F92CDB7DEB7898381EB0E94B10489819E
S1130BB00E94E30400000F90DF91CF910895CF933A
S1130BC0DF931F92CDB7DEB7898383EB0E94B10414
S1130BD089810E94E30400000F90DF91CF91089572
S1130BE0CF93DF9300D0CDB7DEB789836A8384EBDC
S1130BF00E94B1048981806A0E94E3048A8185602D
S1130C000E94E30400000F900F90DF91CF910895AC
S1130C10CF93DF931F92CDB7DEB7898385EB0E9414
S1130C20B10489810E94E30400000F90DF91CF9109
S1130C300895CF93DF931F92CDB7DEB7898386EBF8
S1130C400E94B10489810E94E30400000F90DF91A7
S1130C50CF910895CF93DF931F92CDB7DEB78983E9
S1130C608BEB0E94B10489810E94E30400000F9081
S1130C70DF91CF910895CF93DF931F92CDB7DEB765
S1130C8089838EEB0E94B10489810E94E3040000F1
S1130C900F90DF91CF910895CF93DF931F92CDB73B
S1130CA0DEB7898381EC0E94B10489810E94E30448
S1130CB000000F90DF91CF910895CF93DF931F929F
S1130CC0CDB7DEB7898387EC0E94B10489810E9485
S1130CD0E30400000F90DF91CF910895CF93DF9349
S1130CE01F92CDB7DEB789838AEC0E94B104898153
S1130CF00E94E30400000F90DF91CF910895CF93F9
S1130D00DF931F92CDB7DEB7898381ED0E94B104D2
S1130D10898182680E94E30480E20E94E304000067
S1130D200F90DF91CF910895CF93DF931F92CDB7AA
S1130D30DEB789838DEF0E94B104898182610E94AC
S1130D40E30400000F90DF91CF910895CF93DF93D8
S1130D5000D01F92CDB7DEB78B8367E780E00E9497
S1130D6015056FE780E00E942B050E94410519825A
S1130D700EC01A8206C08B810E94E3048A818F5FB1
S1130D808A838A818837B8F389818F5F89838981CF
S1130D9088237CF700000F900F900F90DF91CF9184
S1130DA00895CF93DF93CDB7DEB72E970FB6F8949F
S1130DB0DEBF0FBECDBF8B876C874D872E878C859A
S1130DC0882F90E0819798878F838B85882F90E078
S1130DD08130910519F0029779F020C02F81388570
S1130DE0C901880F991F880F991F820F931F805E76
S1130DF09E4F9A83898312C08C85882F90E09C0132
S1130E0021503109C901880F991F880F991F820F3A
S1130E10931F80539A4F9A838983000085E10E942F
S1130E204C051B820DC389819A81FC0180818987CD
S1130E3089819A8101969A8389838B81813021F4F7
S1130E401C821D821E821EC089819A81FC018081C0
S1130E508C8389819A8101969A83898389819A8175
S1130E60FC0180818D8389819A8101969A8389838B
S1130E7089819A81FC0180818E8389819A8101967E
S1130E809A8389838D859CE1980F8D85845E692F73
S1130E900E9415058E85895F682F8E850E942B051B
S1130EA00E9441058985882F90E081709927829559
S1130EB09295907F9827807F9827982F8C818170B6
S1130EC0892B8A878A85882F90E0880F991F982F0D
S1130ED08A85292F282B8A85882F90E0880F991FCF
S1130EE0880F991F282B8A85882F90E0880F991FD7
S1130EF0880F991F880F991F822B8A878A850E94E1
S1130F00E3048D81882F90E08170992782959295D2
S1130F10907F9827807F9827982F8E818170892BC6
S1130F208A878A85882F90E0880F991F982F8A8551
S1130F30292F282B8A85882F90E0880F991F880FE6
S1130F40991F282B8A85882F90E0880F991F880F76
S1130F50991F880F991F822B8A878A850E94E30430
S1130F608985882F90E082709927880F991F880FB0
S1130F70991F880F991F282F8C81882F90E08270E9
S1130F80992795958795822B8A878A85882F90E063
S1130F90880F991F982F8A85292F282B8A85882FB7
S1130FA090E0880F991F880F991F282B8A85882F16
S1130FB090E0880F991F880F991F880F991F822B23
S1130FC08A878A850E94E3048D81882F90E082704D
S1130FD09927880F991F880F991F880F991F282F09
S1130FE08E81882F90E08270992795958795822B22
S1130FF08A878A85882F90E0880F991F982F8A8581
S1131000292F282B8A85882F90E0880F991F880F15
S1131010991F282B8A85882F90E0880F991F880FA5
S1131020991F880F991F822B8A878A850E94E3045F
S11310308985882F90E084709927880F991F880FDD
S1131040991F282F8C81882F90E08470992795957B
S1131050879595958795822B8A878A85882F90E036
S1131060880F991F982F8A85292F282B8A85882FE6
S113107090E0880F991F880F991F282B8A85882F45
S113108090E0880F991F880F991F880F991F822B52
S11310908A878A850E94E3048D81882F90E084707A
S11310A09927880F991F880F991F282F8E81882FC1
S11310B090E0847099279595879595958795822BCF
S11310C08A878A85882F90E0880F991F982F8A85B0
S11310D0292F282B8A85882F90E0880F991F880F45
S11310E0991F282B8A85882F90E0880F991F880FD5
S11310F0991F880F991F822B8A878A850E94E3048F
S11311008985882F90E088709927880F991F282F48
S11311108C81882F90E0887099279595879595956F
S1131120879595958795822B8A878A85882F90E065
S1131130880F991F982F8A85292F282B8A85882F15
S113114090E0880F991F880F991F282B8A85882F74
S113115090E0880F991F880F991F880F991F822B81
S11311608A878A850E94E3048D81882F90E08870A5
S11311709927880F991F282F8E81882F90E08870D7
S11311809927959587959595879595958795822B1C
S11311908A878A85882F90E0880F991F982F8A85DF
S11311A0292F282B8A85882F90E0880F991F880F74
S11311B0991F282B8A85882F90E0880F991F880F04
S11311C0991F880F991F822B8A878A850E94E304BE
S11311D08985882F90E080719927880F991F880F3F
S11311E0991F880F991F282F8C81882F90E0807178
S11311F0992795958795822B8A878A85982F969526
S11312008A85982B8A8586958695982B8A858695D6
S113121086958695892B8A878A850E94E3048D8129
S1131220882F90E080719927880F991F880F991F44
S1131230880F991F282F8E81882F90E0807199271D
S113124095958795822B8A878A85982F96958A8586
S1131250982B8A8586958695982B8A85869586957A
S11312608695892B8A878A850E94E3048985882F3D
S113127090E080729927880F991F880F991F282F53
S11312808C81882F90E08072992795958795959504
S11312908795822B8A878A85982F96958A85982B9D
S11312A08A8586958695982B8A85869586958695D2
S11312B0892B8A878A850E94E3048D81882F90E098
S11312C080729927880F991F880F991F282F8E8164
S11312D0882F90E0807299279595879595958795A5
S11312E0822B8A878A85982F96958A85982B8A855A
S11312F086958695982B8A85869586958695892BDD
S11313008A878A850E94E3048985882F90E0807407
S11313109927880F991F282F8C81882F90E080743B
S11313209927959587959595879595958795822B7A
S11313308A878A85982F96958A85982B8A8586959B
S11313408695982B8A85869586958695892B8A8796
S11313508A850E94E3048D81882F90E08074992708
S1131360880F991F282F8E81882F90E080749927E9
S1131370959587959595879595958795822B8A87D9
S11313808A85982F96958A85982B8A858695869541
S1131390982B8A85869586958695892B8A878A8552
S11313A00E94E3048985282F20788C81882F90E07F
S11313B0807899279595879595958795959587959F
S11313C095958795822B8A878A85982F96958A8505
S11313D0982B8A8586958695982B8A8586958695F9
S11313E08695892B8A878A850E94E3048D81282F1C
S11313F020788E81882F90E080789927959587951D
S1131400959587959595879595958795822B8A8748
S11314108A85982F96958A85982B8A8586958695B0
S1131420982B8A85869586958695892B8A878A85C1
S11314300E94E3048D858F5F8D878B818F5F8B8303
S11314408B81823008F4EFCC84E10E944C050000CB
S11314502E960FB6F894DEBF0FBECDBFDF91CF91AD
S11314600895CF93DF93CDB7DEB727970FB6F894DF
S1131470DEBF0FBECDBF8B837D836C834E832F83F2
S11314808C819D819A8389832F814E8160E681E0DE
S11314900E94D10689819A81FC0180812F814E812D
S11314A0682F8B810E94D10689819A8101969A8343
S11314B089838E818E5F8E8389819A81FC018081EC
S11314C0882309F0E7CF0000000027960FB6F894B0
S11314D0DEBF0FBECDBFDF91CF910895CF93DF93D1
S11314E0CDB7DEB788EB0E94B1048CE00E94E30420
S11314F088E10E94E30484E20E94E30480E30E9402
S1131500E3048CE30E94E30488E40E94E30484E59A
S11315100E94E30480E60E94E3048CE60E94E30454
S113152088E70E94E30484E80E94E30480E90E94BF
S1131530E3048CE90E94E30488EA0E94E30484EB58
S11315400E94E30480E00E94B1040000DF91CF9187
S11315500895CF93DF93CDB7DEB785E290E025E21F
S113156030E0F90120812F7BFC01208388EE93E099
S11315700E948E0485E290E025E230E0F9012081AA
S11315802064FC01208382E10E94940680E00E9492
S1131590BF0581E90E94DF058FE30E946E0680E0AB
S11315A00E94710580E00E94600584E10E944C0560
S11315B080E00E94080681E00E94AE056DEF80EA9B
S11315C00E94F0058FE70E944C068FE00E945D06A2
S11315D00E946E0A82EE0E94CE0580E20E947F067F
S11315E08FE10E942A0688E00E94190687E00E9483
S11315F03B0682E00E94820540E060E081E00E94B8
S1131600910580E00E94A60681E00E94BF050000CB
S1131610DF91CF910895AEE0B0E0E1E1FBE00C94FE
S1131620CC0D0D891E8986E08C831A8309838FEF84
S11316309FE79E838D83AE01475E5F4F6F89788DF0
S1131640CE0101960E942D0BEF81F885E00FF11F6A
S113165010822E96E4E00C94E80DABE0B0E0E3E3F6
S1131660FBE00C94BE0D6C017B018A01FC01178226
S11316701682838181FFCCC1CE0101963C01F60123
S11316809381F70193FD859193FF81917F018823D5
S113169009F4BAC1853239F493FD859193FF8191A0
S11316A07F01853229F4B60190E00E94240DE7CF32
S11316B0912C212C312CFFE1F315D8F08B3279F0E9
S11316C038F4803279F08332A1F4232D20611DC0D7
S11316D08D3261F0803369F4232D216016C0832D8F
S11316E08260382EE32DE4603E2E2AC0F32DF8608C
S11316F01DC037FC2DC020ED280F2A3040F08E325B
S1131700B9F436FC81C1232D2064322E19C036FE73
S113171006C08AE0989E200D1124922E11C0EAE0A2
S11317202E9E200D1124222EF32DF0623F2E08C090
S11317308C3621F4832D8068382E02C0883641F41B
S1131740F70193FD859193FF81917F018111B3CFBF
S1131750982F9F7D9554933028F40C5F1F4F9FE37F
S113176099830DC0833631F0833771F0833509F0E6
S113177059C021C0F801808189830E5F1F4F8824DE
S11317808394912C530113C02801F2E04F0E511C95
S1131790F801A080B18036FE03C0692D70E002C05C
S11317A06FEF7FEFC5010E94190D4C018201F32DEB
S11317B0FF773F2E16C0280122E0420E511CF8018B
S11317C0A080B18036FE03C0692D70E002C06FEFC7
S11317D07FEFC5010E940E0D4C01F32DF0683F2EE2
S11317E0820133FC1BC0822D90E088169906B0F468
S11317F0B60180E290E00E94240D2A94F4CFF50112
S113180037FC859137FE81915F01B60190E00E941B
S1131810240D21102A9421E0821A91088114910444
S113182071F7E8C0843611F0893641F5F80137FEC6
S113183007C060817181828193810C5F1F4F08C052
S113184060817181072E000C880B990B0E5F1F4F6E
S1131850F32DFF763F2E97FF09C0909580957095E4
S113186061957F4F8F4F9F4FF0683F2E2AE030E005
S1131870A3010E94600D882E861845C0853731F477
S1131880232D2F7EB22E2AE030E025C0932D997FA0
S1131890B92E8F36C1F018F4883579F0B5C0803789
S11318A019F0883721F0B0C0E92FE061BE2EB4FEF4
S11318B00DC0FB2DF460BF2E09C034FE0AC0292FD1
S11318C02660B22E06C028E030E005C020E130E0FA
S11318D002C020E132E0F801B7FE07C060817181E7
S11318E0828193810C5F1F4F06C06081718180E00B
S11318F090E00E5F1F4FA3010E94600D882E861892
S1131900FB2DFF773F2E36FE0DC0232D2E7FA22EFA
S1131910891458F434FE0BC032FC09C0832D8E7E2A
S1131920A82E05C0B82CA32C03C0B82C01C0B92C18
S1131930A4FE0FC0FE01E80DF11D8081803321F467
S11319409A2D997EA92E09C0A2FE06C0B394B39421
S113195004C08A2D867809F0B394A3FC11C0A0FEBC
S113196006C0B21488F4280C922C9B180EC0B21432
S113197060F4B60180E290E00E94240DB394F7CFA6
S1131980B21418F42B1802C0982C212CA4FE10C0F9
S1131990B60180E390E00E94240DA2FE17C0A1FCD2
S11319A003C088E790E002C088E590E0B6010CC06F
S11319B08A2D867859F0A1FE02C08BE201C080E234
S11319C0A7FC8DE2B60190E00E94240D891438F43E
S11319D0B60180E390E00E94240D9A94F7CF8A9494
S11319E0F301E80DF11D8081B60190E00E94240D01
S11319F08110F5CF222009F442CEB60180E290E0B6
S1131A000E94240D2A94F6CFF6018681978102C0A4
S1131A108FEF9FEF2B96E2E10C94DA0DFC01059019
S1131A20615070400110D8F7809590958E0F9F1FDC
S1131A300895FC016150704001900110D8F7809521
S1131A4090958E0F9F1F08950F931F93CF93DF934D
S1131A50FB01238121FD03C08FEF9FEF2CC022FFE8
S1131A6016C046815781248135814217530744F4B7
S1131A70A081B1819D012F5F3F4F318320838C93DF
S1131A80268137812F5F3F4F3783268314C08B0114
S1131A90EC01FB010084F185E02D0995892BE1F629
S1131AA0D80116968D919C911797019617969C9341
S1131AB08E931697CE01DF91CF911F910F910895C8
S1131AC0FA01AA27283051F1203181F1E8946F936B
S1131AD06E7F6E5F7F4F8F4F9F4FAF4FB1E03ED011
S1131AE0B4E03CD0670F781F891F9A1FA11D680FAF
S1131AF0791F8A1F911DA11D6A0F711D811D911DE2
S1131B00A11D20D009F468943F912AE0269F112456
S1131B103019305D3193DEF6CF010895462F4770BA
S1131B20405D4193B3E00FD0C9F7F6CF462F4F7015
S1131B30405D4A3318F0495D31FD4052419302D073
S1131B40A9F7EACFB4E0A695979587957795679519
S1131B50BA95C9F700976105710508959B01AC0119
S1131B600A2E06945795479537952795BA95C9F740
S1131B70620F731F841F951FA01D08952F923F921B
S1131B804F925F926F927F928F929F92AF92BF9289
S1131B90CF92DF92EF92FF920F931F93CF93DF9335
S1131BA0CDB7DEB7CA1BDB0B0FB6F894DEBF0FBE92
S1131BB0CDBF09942A88398848885F846E847D84DF
S1131BC08C849B84AA84B984C884DF80EE80FD80E1
S1131BD00C811B81AA81B981CE0FD11D0FB6F89457
S1111BE0DEBF0FBECDBFED010895F894FFCF18
S1131BEE5468726F74746C653A00427265616B3A34
S1131BFE00506F74656E74696F6D657465723A002A
S1131C0E00004F00000007000700147F147F142407
S1131C1E2A7F2A122313086462364955225000057E
S1131C2E030000001C2241000041221C0014083E47
S1131C3E081408083E080800503000000808080878
S1131C4E08006060000020100804023E5149453E21
S1131C5E00427F400042615149462141454B3118B3
S1131C6E14127F1027454545393C4A4949300171C4
S1131C7E0905033649494936064949291E003636AF
S1131C8E00000056360000081422410014141414E7
S1131C9E1400412214080201510906324979413EC9
S1131CAE7E1111117E7F494949363E414141227FC1
S1131CBE4141221C7F494949417F090909013E419D
S1131CCE49497A7F0808087F00417F41002040413E
S1131CDE3F017F081422417F404040407F020C02A6
S1131CEE7F7F0408107F3E4141413E7F090909066A
S1131CFE3E4151215E7F0919294646494949310120
S1131D0E017F01013F4040403F1F2040201F3F40C4
S1131D1E38403F631408146307087008076151497B
S1131D2E4543007F41410002040810200041417FD9
S1131D3E0004020102044040404040000000000044
S1131D4E20545454787F484444383844444420380A
S1131D5E4444487F3854545418087E0901020649F5
S1131D6E49493F7F0804047800447D4000204044E4
S1131D7E3D007F1028440000417F40007C0418047D
S1131D8E7C7C0804047838444444387C14141408C5
S1131D9E081414187C7C0804040848545454200471
S1131DAE3F4440203C4040207C1C2040201C3C40B2
S1131DBE30403C44281028440C5050503C44645449
S1131DCE4C44000836410000007F000000413608F4
S1131DDE0002010204023E5555412200000000009B
S1131DEE00007900001824742E24487E4942405D78
S1131DFE2222225D15167C161500007700000A5566
S1131E0E5555280001000100000A0D0A0408142A81
S1131E1E1422040404041C00080808000101010132
S1131E2E01000205020044445F4444000004020120
S1131E3E7E2020103E060F7F007F00181800000041
S1131E4E40502000000A0D0A0022142A1408170814
S1131E5E342A7D1708046A593048454020702926D3
S1131E6E28707028262970702A252A70722926292E
S1131E7E707029242970702A2D2A707E117F494989
S1131E8E0E515171117C555654447C555654447C14
S1131E9E565556447C5554554400457E44000044E2
S1131EAE7E450000467D460000457C45007F49493D
S1131EBE413E7C0A11227D38454644383844464515
S1131ECE3838464546383846454639384544453807
S1131EDE22140814222E5149453A3C4142403C3CBE
S1131EEE4042413C3C4241423C3C4140413C0C104E
S1131EFE62110C7F1212120C403E014936205556C7
S1131F0E54782054565578205655567820555655A3
S1131F1E782055545578205657567824547854586A
S1131F2E0C52527213385556541838545655183894
S1131F3E56555618385554551800497A40000048DD
S1131F4E7A4100004A794200004A784200314A4EF2
S1131F5E4A307A110A097030494A483030484A49A1
S1131F6E30304A494A30304A494A31304A484A3078
S1131F7E08082A08083864544C3838414220783806
S1131F8E40422178384241227838424022780C501F
S1131F9E52513C7E141414080C5150513C1E090924
S1131FAE295E081515354E384446452030484A49B1
S1131FBE20384546452030494A49207C4546453817
S1131FCE2050507C031F151535510E151535467CC2
S1131FDE55565544385556551800447C40007F4894
S1131FEE44404000497F44007C0812217C78100A4A
S1131FFE09707C0912217C78110A0970384744470C
S113200E38304B484B303E417F4949384438545858
S113201E7C1516354878110A091048545655202057
S113202E48565520485556552020495655200405E6
S113203E7E0504083C4822013C4245423C38424558
S113204E22783C4340433C38434023780C116011C2
S113205E0C4466554C44486A5948004464554C44F3
S113206E48685A48004465564D4448695A49000028
S113207E020102000001020100000101010001023F
S113208E020100000001000000020502000201022C
S113209E01007F05153A503E555541221814081477
S11320AE0C444A4A515151514A4A44744241427471
S11320BE7E1111117E7F494949367F020101037059
S11320CE4E414E707F4949494161514945437F080C
S11320DE08087F3E4949493E00417F41007F08146C
S11320EE2241700E010E707F020C027F7F040810D5
S11320FE7F635D495D633E4141413E413F013F4146
S113210E7F09090906635549414101017F01010314
S113211E017E010308557F550863140814630748AC
S113212E7F48075E6101615E384448304C7C2A2A40
S113213E2A144438040408304B4D5930285454445E
S113214E2000185552223E0402027C3C4A4A4A3C64
S113215E003C4020007C1028444041320C30407E2C
S113216E2020103E1C2040201C142B2A2A603844A8
S113217E444438443C047C4470282424180C121221
S113218E526038444C5424043C4420003C404020CB
S113219E1C18247E241844281028440C107E100C7D
S11321AE38443044380A0A4A2A1E044434140C2093
S11321BE1078040018084C4838484878484848288D
S11321CE187C08087C082818404848784054545411
S11321DE7C001800584038080808080801413D09D9
S11321EE0710087C02010E0243221E42427E424226
S11321FE22120A7F02423F02423E0A0A7F0A0A085C
S113220E4642221E0403423E02424242427E024F94
S113221E221F024A4A40201C4222122A46023F42F0
S113222E4A46064840201E08464A321E0A4A3E09BD
S113223E080E004E201E04453D0504007F081000C4
S113224E44241F04044042424240422A122A0622D7
S113225E127B16220040201F0078000204783F44AF
S113226E444444024242221E040204083032027FD5
S113227E0232021222520E002A2A2A403824222026
S113228E7040281028060A3E4A4A4A047F04140C59
S113229E4042427E404A4A4A4A7E040545251C0F66
S11322AE40201F007C007E40307E402010087E427D
S11322BE42427E0E0242221E424240201802040175
S11322CE02000705070000256400414343454C45C1
S11322DE524154494F4E534B494450414441555435
S11322EE4F43524F5353454E445552412C4345563A
S11322FE4F4C54414745203A52504D203A474541A0
S113230E52424F582054454D50203A5448524F543F
S10F231E544C452025203A20202020208B
S9030000FC
