S01200006F6C65645F74657374312E737265631E
S11300000C943E040C945B040C945B040C945B040D
S11300100C945B040C945B040C945B040C945B04E0
S11300200C945B040C945B040C9421070C945B0407
S11300300C945B040C945B040C945B040C945B04C0
S11300400C945B040C945B040C9442070C945B04C6
S11300500C945B040C945B040C945B040C945B04A0
S11300600C945B040C945B040C945B040C945B0490
S11300700C945B040C945B040C945B04000000007F
S1130080000000000000000000000000000000006C
S1130090000000000000000000000000000000005C
S11300A0000000000000000000000000000000004C
S11300B0000000000000000000000000000000003C
S11300C0000000000000000000000000000000002C
S11300D0000000000000000000000000000000001C
S11300E0000000000000000000000000000000000C
S11300F000000000000000000000000000000000FC
S113010000000000000000000000000000000000EB
S113011000000000000000000000000000000000DB
S113012000000000000000000000000000000000CB
S113013000000000000000000000000000000000BB
S113014000000000000000000000000000000000AB
S1130150000000000000000000000000000000009B
S1130160000000000000000000000000000000008B
S1130170000000000000000000000000000000007B
S1130180000000000000000000000000000000006B
S1130190000000000000000000000000000000005B
S11301A0000000000000000000000000000000004B
S11301B0000000000000000000000000000000003B
S11301C000000000000003F8000000000000000030
S11301D0000000000000000000000000000000001B
S11301E00000000000001FFE00FC03F7FFFF3FC0FB
S11301F01FE01FF0000000000000000000000000ED
S11302000000000000007FFF80FC07E7FFFE3FC006
S11302103FE01FE0000000000000000000000000BC
S1130220000000000000FFFFC1F807E7FFFE3FC029
S11302303FC01FE0000000000000000000000000BC
S1130240000000000001FFFFC1F807EFFFFE7F8000
S11302503FC03FE00000000000000000000000007C
S1130260000000000007FFFFE1F80FCFFFFC7F80D4
S11302703FC03FC00000000000000000000000007C
S1130280000000000007FC7FE3F00FC03F007F8008
S11302907F803FC00000000000000000000000005C
S11302A000000000000FF01FE3F00FC03F00FF004C
S11302B07F807FC0000000000000000000000000FC
S11302C000000000001FC00FE3F01F807E00FF004D
S11302D07F807F800000000000000000000000001C
S11302E000000000003F800FE7E01F807E0000FF59
S11302F0007F8000000000000000000000000000FB
S113030000000000003F800FE7E01F807E0000FF38
S113031000FF0000000000000000000000000000DA
S113032000000000007F000FE7E03F00FC0001FF39
S113033000FF0000000000000000000000000000BA
S113034000000000007F000FCFC03F00FC0001FE52
S113035000FF00000000000000000000000000009A
S113036000000000007E000FCFC03F00FC0001FE33
S113037001FE00000000000000000000000000007A
S113038000000000007E01FFCFC07E01F80003FEE4
S113039001FE00000000000000000000000000005A
S11303A00000000000FE03FF9F807E01F80003FCB4
S11303B001FE00000000000000000000000000003A
S11303C00000000000FE03FF9F807E01F80003FC94
S11303D003FC00000000000000000000000000001A
S11303E00000000000FE01FF1F80FC03F007F8037B
S11303F0FC03FC00000000000000000000000000FE
S11304000000000000FF01FF1F80FC03F007F80755
S1130410FC03FC00000000000000000000000000DD
S11304200000000000FF83FE3F81F803F00FF8078F
S1130430F803FC00000000000000000000000000C1
S113044000000000007FFFFC3FFFF807F00FF007FB
S1130450F807F800000000000000000000000000A1
S113046000000000007FFFFC1FFFF007E00FF00F0B
S1130470F807F80000000000000000000000000081
S113048000000000003FFFFC1FFFE007E01FF00F2B
S1130490F007F80000000000000000000000000069
S11304A000000000003FFFFE0FFFC00FE01FE00F41
S11304B0F00FF80000000000000000000000000041
S11304C000000000000FFFFE07FF000FC01FE01F29
S11304D0F00FF00000000000000000000000000029
S11304E0000000000003F87E01F8000FC01FC01FC9
S11304F0E00FF00000000000000000000000000019
S113050000000000000000000000000000000000E7
S113051000000000000000000000000000000000D7
S113052000000000000000000000000000000000C7
S113053000000000000000000000000000000000B7
S11305400000000007FFFFFFFFFFFFFFFFFFFFFFAB
S1130550FFFFE000000000000000000000000000B9
S1130560000000000FFFFFFFFFFFFFFFFFFFFFFF83
S1130570FFFFE00000000000000000000000000099
S1130580000000000FFFFFFFFFFFFFFFFFFFFFFF63
S1130590FFFFC00000000000000000000000000099
S11305A0000000000EFDF03C0781F03E0F81F03E9C
S11305B00781C000000000000000000000000000EF
S11305C0000000001C79E01C0701E03C0701E03C4E
S11305D00701C0000000000000000000000000004F
S11305E0000000001C61C71F3E38E738CF39C71C24
S11305F067CF800000000000000000000000000041
S1130600000000001C03CF1E3C79E7383F318F1CEB
S1130610E7CF8000000000000000000000000000A0
S11306200000000038038F1E7CF9C07C1E039F3835
S11306300F8F800000000000000000000000000098
S11306400000000039038F3E7CF1C0FF8E079E3806
S11306501F9F0000000000000000000000000000D8
S11306600000000039E78C3C7C63CCF39C1F8C7940
S11306709F9F000000000000000000000000000038
S11306800000000071E7807CFC078CF01C7F80F187
S11306909F1F000000000000000000000000000098
S11306A00000000073C7C1FCFE0F9C783CFFC1F33F
S11306B08F3E000000000000000000000000000069
S11306C0000000007FFFFFFFFFFFFFFFFFFFFFFFB2
S11306D0FFFE000000000000000000000000000019
S11306E000000000FFFFFFFFFFFFFFFFFFFFFFFF12
S11306F0FFFE0000000000000000000000000000F9
S113070000000000000000000000000000000000E5
S113071000000000000000000000000000000000D5
S113072000000000000000000000000000000000C5
S113073000000000000000000000000000000000B5
S113074000000000000000000000000000000000A5
S11307500000000000000000000000000000000095
S11307600000000000000000000000000000000085
S11307700000000000000000000000000000000075
S11307800000000000000000000000000000000065
S11307900000000000000000000000000000000055
S11307A00000000000000000000000000000000045
S11307B00000000000000000000000000000000035
S11307C00000000000000000000000000000000025
S11307D00000000000000000000000000000000015
S11307E00000000000000000000000000000000005
S11307F000000000000000000000000000000000F5
S113080000000000000000000000000000000000E4
S113081000000000000000000000000000000000D4
S113082000000000000000000000000000000000C4
S113083000000000000000000000000000000000B4
S113084000000000000000000000000000000000A4
S11308500000000000000000000000000000000094
S11308600000000000000000000000000000000084
S113087000000000000000000000000011241FBE62
S1130880CFEFD0E1DEBFCDBF16E0A0E0B1E0ECE3F6
S1130890FEE202C005900D92A631B107D9F726E019
S11308A0A6E1B6E001C01D92A532B207E1F70E94AD
S11308B018090C941C170C940000CF93DF93CDB748
S11308C0DEB72F970FB6F894DEBF0FBECDBF88ED0D
S11308D090E021E0FC012083198222C08DEE90E09B
S11308E029812295207FFC0120838FEE90E0FC017A
S11308F010828EEE90E0FC01108287EF90E0FC0104
S1130900108286EF90E0FC01108285EF90E0FC01FC
S1130910108284EF90E0FC01108289818F5F8983CB
S113092089818630D8F282EE90E02EE0FC012083AB
S113093083EE90E024E0FC01208384EE90E023E148
S1130940FC0120838EED90E020E3FC0120838BEDFD
S113095090E020EAFC01208388ED90E022E0FC0195
S1130960208380E090E0A8E4B2E48A839B83AC8394
S1130970BD8320E030E04AE755E46A817B818C81C5
S11309809D810E940B16DC01CB018E839F83A88777
S1130990B98720E030E040E85FE36E817F8188859D
S11309A099850E945D1588232CF481E090E09B8753
S11309B08A873FC020E03FEF4FE757E46E817F8195
S11309C0888599850E94061618164CF520E030E0BB
S11309D040E251E46A817B818C819D810E940B16E7
S11309E0DC01CB01BC01CD010E946215DC01CB010D
S11309F09B878A870FC080E991E09D878C878C85CF
S1130A009D850197F1F79D878C878A859B85019742
S1130A109B878A878A859B85892B69F714C06E8199
S1130A207F81888599850E946215DC01CB019B87B3
S1130A308A878A859B859F878E878E859F85019768
S1130A40F1F79F878E8789ED90E0FC018081882FE4
S1130A5090E084709927892B11F481E001C080E033
S1130A602F960FB6F894DEBF0FBECDBFDF91CF91A6
S1130A700895EF92FF920F931F93CF93DF93CDB717
S1130A80DEB72A970FB6F894DEBF0FBECDBF8983B9
S1130A906A832B833C834D835E83EF82F8860987C8
S1130AA01A878DEE90E029812295207FFC01208316
S1130AB084EF90E02B81220F220F220FFC01208370
S1130AC025EF30E08B819C81AD81BE81689414F860
S1130AD0B695A795979587951694D1F7F9018083D4
S1130AE026EF30E08B819C81AD81BE81072E7DE0B5
S1130AF0B695A795979587957A95D1F7702DF901B5
S1130B00808327EF30E08B819C81AD81BE81072EED
S1130B1075E1B695A795979587957A95D1F7702D38
S1130B20F901808380EF90E02F81220F220F220FA2
S1130B30FC01208321EF30E08F819885A985BA8557
S1130B40689414F8B695A795979587951694D1F758
S1130B50F901808322EF30E08F819885A985BA85D9
S1130B60072E7DE0B695A795979587957A95D1F749
S1130B70702DF901808323EF30E08F819885A9855A
S1130B80BA85072E75E1B695A795979587957A95B9
S1130B90D1F7702DF90180838FEE90E02A812069CE
S1130BA0FC0120832A960FB6F894DEBF0FBECDBF9A
S1130BB0DF91CF911F910F91FF90EF900895EF92E5
S1130BC00F931F93CF93DF93CDB7DEB769970FB61B
S1130BD0F894DEBF0FBECDBF898B6A8B5C8B4B8BC9
S1130BE00D8B1E8B2F8B388FE98E8DEE90E029892B
S1130BF02295207FFC0120838EEE90E02EEE30E0E3
S1130C00F90120812F7BFC01208384EF90E0FC011B
S1130C10108280EF90E02D89220F220F220FFC0119
S1130C20208321EF30E08D899E89AF89B88D689447
S1130C3014F8B695A795979587951694D1F7F90169
S1130C40808322EF30E08D899E89AF89B88D072E8D
S1130C507DE0B695A795979587957A95D1F7702DF0
S1130C60F901808323EF30E08D899E89AF89B88DA7
S1130C70072E75E1B695A795979587957A95D1F73F
S1130C80702DF9018083198210C08AEF90E02981C8
S1130C90222F30E04B895C89240F351FF901208114
S1130CA0FC01208389818F5F898399818A899817C0
S1130CB060F38FEE90E02A892065FC0120831A827C
S1130CC080C08EEE90E0FC018081882F90E08074DB
S1130CD09927892B09F07AC080E090E0A0E8BFE36F
S1130CE08B839C83AD83BE8320E030E04AE755E4E8
S1130CF06B817C818D819E810E940B16DC01CB016E
S1130D008F839887A987BA8720E030E040E85FE3C3
S1130D106F81788589859A850E945D1588232CF4D6
S1130D2081E090E09C878B873FC020E03FEF4FE756
S1130D3057E46F81788589859A850E94061618166E
S1130D404CF520E030E040E251E46B817C818D8100
S1130D509E810E940B16DC01CB01BC01CD010E94D7
S1130D606215DC01CB019C878B870FC080E991E081
S1130D709E878D878D859E850197F1F79E878D8748
S1130D808B859C8501979C878B878B859C85892B7C
S1130D9069F714C06F81788589859A850E946215E8
S1130DA0DC01CB019C878B878B859C85988B8F87F7
S1130DB08F8598890197F1F7988B8F878A818F5F48
S1130DC08A839A81898D981708F47BCF69960FB628
S1130DD0F894DEBF0FBECDBFDF91CF911F910F916D
S1130DE0EF900895CF93DF931F92CDB7DEB71982AA
S1130DF020C08DEE90E029812295207FFC01208384
S1130E008EEE90E0FC018081882F90E08074992719
S1130E10892B51F48FEE90E0FC018081882F90E0C3
S1130E2080749927892B11F4898107C089818F5F88
S1130E30898389818430E8F28FEF0F90DF91CF911D
S1130E4008951F920F9200905F000F9211242F9328
S1130E508F939F93EF93FF93CF93DF93CDB7DEB739
S1130E6083E590E022E0FC012083DF91CF91FF91A4
S1130E70EF919F918F912F910F9000925F000F90AF
S1130E801F9018951F920F9200905F000F921124EB
S1130E90EF92FF920F931F932F933F934F935F9380
S1130EA06F937F938F939F93AF93BF93EF93FF932E
S1130EB0CF93DF9300D0CDB7DEB780EE90E0FC0196
S1130EC08081882F90E080729927892B09F4D2C001
S1130ED08DEE90E020E5FC0120838AEF90E0FC0198
S1130EE08081882F90E0982F88279093170680930D
S1130EF016068AEF90E0FC018081282F30E0809173
S1130F00160690911706820F931F909317068093ED
S1130F101606809116069091170624E6289FA001D4
S1130F20299F500D11242FEF31E0CA01B9010E940D
S1130F307816CB0190931706809316068AEF90E0FB
S1130F40FC018081882F90E0982F8827092E000CBF
S1130F50AA0BBB0B8093180690931906A0931A064C
S1130F60B0931B068AEF90E0FC018081282F30E0CB
S1130F7040E050E08091180690911906A0911A065D
S1130F80B0911B06820F931FA41FB51F80931806F0
S1130F9090931906A0931A06B0931B068AEF90E06B
S1130FA0FC018081882F90E0982F8827092E000C5F
S1130FB0AA0BBB0B80931C0690931D06A0931E06E0
S1130FC0B0931F068AEF90E0FC018081282F30E067
S1130FD040E050E080911C0690911D06A0911E06F1
S1130FE0B0911F06820F931FA41FB51F80931C0688
S1130FF090931D06A0931E06B0931F068AEF90E0FF
S1131000FC018081882F90E0982F8827092E000CFE
S1131010AA0BBB0B8093200690932106A093220673
S1131020B09323068AEF90E0FC018081282F30E002
S113103040E050E08091200690912106A091220684
S1131040B0912306820F931FA41FB51F809320061F
S113105090932106A0932206B0932306E12CF12C51
S113106000E410E020E030E040E450E068E085E097
S11310700E9439058DEE90E020E5FC0120838EEE80
S113108090E02EEE30E0F90120812F7DFC012083D9
S11310908DEE90E020E4FC0120838EEE90E02EEEB5
S11310A030E0F90120812F7DFC0120830F900F9007
S11310B0DF91CF91FF91EF91BF91AF919F918F916C
S11310C07F916F915F914F913F912F911F910F915C
S11310D0FF90EF900F9000925F000F901F90189573
S11310E0CF93DF93CDB7DEB78CE790E020E6FC0129
S11310F020838CE790E02CE730E0F90120812F7DFC
S1131100FC0120838AE790E027E8FC012083DF913B
S1131110CF910895CF93DF9300D01F92CDB7DEB760
S11311208B838CE790E0FC018081982F907E8B81EB
S11311308F71892B8B838CE790E02B81FC012083BA
S11311408AE790E02AE730E0F90120812064FC017D
S1131150208300008AE790E0FC018081882F90E0E2
S113116080719927892BB1F31A82198288E790E05C
S1131170FC018081882F90E09A83898389E790E03D
S1131180FC018081882F90E083709927982F88270D
S11311909C0189819A81822B932B9A8389838AE784
S11311A090E02AE730E0F90120812061FC012083EE
S11311B089819A810F900F900F90DF91CF910895BC
S11311C0CF93DF93CDB7DEB785E590E025E530E03A
S11311D0F90120812F77FC0120838CE490E020E545
S11311E0FC0120838DE490E021E0FC0120838EE467
S11311F090E0FC011082DF91CF910895CF93DF93AB
S11312001F92CDB7DEB789838EE490E02981FC017B
S1131210208300008DE490E0FC0180818823D4F7D2
S11312208EE490E0FC0180810F90DF91CF910895CE
S1131230EF92FF920F931F93CF93DF93CDB7DEB757
S1131240C45AD1090FB6F894DEBF0FBECDBF84E2F5
S113125090E023EEFC0120838AE290E029E0FC0187
S1131260208385E290E025E230E0F90120812068C6
S1131270FC0120830E945D04E12CF12C00E410E0C9
S113128020E030E040E450E068E085E00E94390569
S11312900E9470080E94E0080E94FC14789480E088
S11312A00E940F108CE790E00E94A21488EB9BE050
S11312B00E947F0C80E00E940F108DE0E0EBF5E0CF
S11312C0DE019C9601900D928A95E1F788E0EDEBA2
S11312D0F5E0DE01D99601900D928A95E1F78AE056
S11312E0E5ECF5E0DE01AF5BBF4F01900D928A950E
S11312F0E1F7CE01855B9F4F2AE0EFECF5E0DC01DE
S113130001900D922A95E1F7CE018B5A9F4F25E06B
S1131310E9EDF5E0DC0101900D922A95E1F7CE01AB
S1131320865A9F4F25E0EEEDF5E0DC0101900D9229
S11313302A95E1F7CE01815A9F4F2AE0E3EEF5E0CA
S1131340DC0101900D922A95E1F7CE0187599F4F58
S113135026E0EDEEF5E0DC0101900D922A95E1F72F
S1131360CE0181599F4F2FE0E3EFF5E0DC010190BE
S11313700D922A95E1F7CE0182589F4F2DE0E2E0CD
S1131380F6E0DC0101900D922A95E1F7CE01855734
S11313909F4F26E0EFE0F6E0DC0101900D922A95E4
S11313A0E1F718861F821A8219821C821B821E8210
S11313B01D821A8619861C861B861E861D86188A1F
S11313C01F861A8A198A1C8A1B8A8BE090E09E8BDE
S11313D08D8B188E1F8A0E94FC0B82E00E948A0863
S11313E09A8F898F898D9A8D9695879596958795ED
S11313F028E130E0B9010E948C16CB019C8F8B8FC1
S11314000E94F2068D8FE12C01E010E020E430E030
S113141044E256E061E080E00E94DF0580E090E075
S1131420A8ECB2E48E8F9F8FA8A3B9A320E030E08C
S11314304AE755E46E8D7F8D88A199A10E940B1611
S1131440DC01CB018AA39BA3ACA3BDA320E030E0C5
S113145040E85FE36AA17BA18CA19DA10E945D1578
S113146088232CF481E090E09FA38EA33FC020E06A
S11314703FEF4FE757E46AA17BA18CA19DA10E9495
S1131480061618164CF520E030E040E251E46E8D6B
S11314907F8D88A199A10E940B16DC01CB01BC01B0
S11314A0CD010E946215DC01CB019FA38EA30FC066
S11314B080E991E099A788A788A599A50197F1F7F4
S11314C099A788A78EA19FA101979FA38EA38EA100
S11314D09FA1892B69F714C06AA17BA18CA19DA14E
S11314E00E946215DC01CB019FA38EA38EA19FA154
S11314F09BA78AA78AA59BA50197F1F79BA78AA713
S11315008B8D9C8D039749F4CE018B5A9F4F25E018
S113151041E3BC0181E00E948C138B8D9C8D049768
S113152049F4CE018B5A9F4F25E141E3BC0181E090
S11315300E948C138B8D9C8D059749F4CE018B5A98
S11315409F4F25E241E3BC0181E00E948C138B8D07
S11315509C8D069749F4CE018B5A9F4F25E341E3B6
S1131560BC0181E00E948C136894EE24E4F800E04E
S11315702FE340E061E08FEF0E94820ECE0182589B
S11315809F4F25E04AE0BC0181E00E948C136894DF
S1131590EE24E5F801E12FE340E061E08FEF0E94E3
S11315A0820ECE0187599F4F25E148E1BC0181E0BD
S11315B00E948C130F2EF0E3EF2EF02D01E22FE3A7
S11315C040E061E08FEF0E94820ECE0181599F4F6F
S11315D025E246E0BC0181E00E948C130F2EFFE35C
S11315E0EF2EF02D01E32FE340E061E08FEF0E9446
S11315F0820ECE01815A9F4F25E340E1BC0181E078
S11316000E948C1389819A81019759F4CE018557E0
S11316109F4F25E048E2BC0181E00E948C131A82AE
S1131620198280911606909117068436910521F44B
S113163081E090E09A838983809116069091170641
S11316400A9720F481E090E09C838B838B819C81BA
S1131650019759F4CE0185579F4F25E048E2BC011C
S113166081E00E948C131C821B828091160690914B
S113167017069C01CE018F569F4F4AE050E0BC01F3
S1131680C9010E94DC16CE018F569F4F25E048E227
S1131690BC0181E00E948C13809118069091190678
S11316A0A0911A06B0911B0683369105A105B105D8
S11316B020F481E090E09E838D83809118069091C0
S11316C01906A0911A06B0911B06873E9340A10506
S11316D0B10520F481E090E09E838D838D819E810D
S11316E0019759F4CE0185579F4F25E148E2BC018B
S11316F081E00E948C131E821D82809118069091B5
S11317001906A0911A06B0911B069C01CE018F56B2
S11317109F4F4AE050E0BC01C9010E94DC16CE0193
S11317208F569F4F25E148E2BC0181E00E948C1353
S113173080911C0690911D06A0911E06B0911F0673
S11317409C01CE018F569F4F4AE050E0BC01C90175
S11317500E94DC16CE018F569F4F25E248E2BC0161
S113176081E00E948C138091200690912106A09123
S11317702206B091230628EE33E040E050E0BC019D
S1131780CD010E94A016DA01C9019C01CE018F5639
S11317909F4F4AE050E0BC01C9010E94DC16CE0113
S11317A08F569F4F2EE2FC01218380912006909159
S11317B02106A0912206B091230628EE33E040E0F2
S11317C050E0BC01CD010E94A016DC01CB019C01BC
S11317D0CE018F569F4F02964AE050E0BC01C901EA
S11317E00E94DC16CE018F569F4F25E348E2BC01D0
S11317F081E00E948C13EFCDCF93DF93CDB7DEB79A
S11318006D970FB6F894DEBF0FBECDBF198282E08C
S11318100E948A089B838A8383E00E948A089D83AE
S11318208C838C819D8196958795969587959C014F
S1131830ABEABAEA0E94C216929582958F70892704
S11318409F7089279F838E838A819B819695879534
S1131850969587959C01ABEABAEA0E94C2169295C6
S113186082958F7089279F708927998788879E0121
S11318702C5E3F4F888599854AE050E0B9010E946B
S1131880DC169E01265F3F4F8E819F814AE050E027
S1131890B9010E94DC169E012C5E3F4FCE010A96D0
S11318A0B9010E94D1168E819F8182959295907F75
S11318B09827807F9827982F8885892B80932406E2
S11318C06D960FB6F894DEBF0FBECDBFDF91CF91FA
S11318D00895CF93DF9300D0CDB7DEB79A83898381
S11318E0000089819A819C01215031093A8329831E
S11318F0892BB9F70F900F90DF91CF910895CF9373
S1131900DF9300D000D0CDB7DEB79C838B831A82DF
S1131910198209C080E694E00E94690C89819A8149
S113192001969A83898329813A818B819C81281726
S1131930390780F30F900F900F900F90DF91CF91A4
S11319400895CF93DF931F92CDB7DEB7898385E2E5
S113195090E025E230E0F90120812F7DFC01208315
S11319608BE290E02BE230E0F90120812E7FFC0134
S113197020838981882F90E00E94FE0885E290E010
S113198025E230E0F90120812062FC0120838BE212
S113199090E02BE230E0F90120812160FC012083FA
S11319A00F90DF91CF910895CF93DF931F92CDB71E
S11319B0DEB789838BE290E02BE230E0F9012081ED
S11319C02E7FFC01208385E290E025E230E0F901DE
S11319D020812062FC0120838981882F90E00E946D
S11319E0FE0885E290E025E230E0F90120812062E2
S11319F0FC0120838BE290E02BE230E0F9012081AE
S1131A002160FC0120830F90DF91CF910895CF9343
S1131A10DF9300D0CDB7DEB789836A8385E10E9466
S1131A20A10C89810E94D40C8A810E94D40C0F904D
S1131A300F90DF91CF910895CF93DF9300D0CDB76E
S1131A40DEB789836A8385E70E94A10C89810E949D
S1131A50D40C8A810E94D40C0F900F90DF91CF9107
S1131A600895CF93DF93CDB7DEB78CE50E94A10C28
S1131A70DF91CF910895CF93DF931F92CDB7DEB757
S1131A80898380EA0E94A10C89810E94D40C81E19F
S1131A900E94D40C0F90DF91CF910895CF93DF93E0
S1131AA01F92CDB7DEB7898381EA0E94A10C898198
S1131AB00E94D40C0F90DF91CF910895CF93DF93C0
S1131AC01F92CDB7DEB7898382EA0E94A10C898177
S1131AD00E94D40C0F90DF91CF910895CF93DF93A0
S1131AE01F92CDB7DEB789838981846A0E94A10CD5
S1131AF00F90DF91CF910895CF93DF9300D01F9281
S1131B00CDB7DEB789836A834B838981886A0E9453
S1131B10A10C8981882331F48A810E94D40C8B81A1
S1131B200E94D40C0F900F900F90DF91CF910895E5
S1131B30CF93DF931F92CDB7DEB789838BEA0E94E0
S1131B40A10C89810E94D40C0F90DF91CF9108954C
S1131B50CF93DF931F92CDB7DEB7898389818E6AD5
S1131B600E94A10C0F90DF91CF910895CF93DF9342
S1131B701F92CDB7DEB7898381EB0E94A10C8981C6
S1131B800E94D40C0F90DF91CF910895CF93DF93EF
S1131B901F92CDB7DEB7898383EB0E94A10C8981A4
S1131BA00E94D40C0F90DF91CF910895CF93DF93CF
S1131BB000D0CDB7DEB789836A8384EB0E94A10C81
S1131BC08981806A0E94D40C8A8185600E94D40C29
S1131BD00F900F90DF91CF910895CF93DF931F92D1
S1131BE0CDB7DEB7898385EB0E94A10C89810E9461
S1131BF0D40C0F90DF91CF910895CF93DF931F9270
S1131C00CDB7DEB7898386EB0E94A10C89810E943F
S1131C10D40C0F90DF91CF910895CF93DF931F924F
S1131C20CDB7DEB789838BEB0E94A10C89810E941A
S1131C30D40C0F90DF91CF910895CF93DF931F922F
S1131C40CDB7DEB789838EEB0E94A10C89810E94F7
S1131C50D40C0F90DF91CF910895CF93DF931F920F
S1131C60CDB7DEB7898381EC0E94A10C89810E94E3
S1131C70D40C0F90DF91CF910895CF93DF931F92EF
S1131C80CDB7DEB7898387EC0E94A10C89810E94BD
S1131C90D40C0F90DF91CF910895CF93DF931F92CF
S1131CA0CDB7DEB789838AEC0E94A10C89810E949A
S1131CB0D40C0F90DF91CF910895CF93DF931F92AF
S1131CC0CDB7DEB7898381ED0E94A10C898182683A
S1131CD00E94D40C80E20E94D40C0F90DF91CF912B
S1131CE00895CF93DF931F92CDB7DEB789838DEF2D
S1131CF00E94A10C898182610E94D40C0F90DF9113
S1131D00CF910895EF920F93CF93DF93CDB7DEB7C2
S1131D102A970FB6F894DEBF0FBECDBF8D836E83B6
S1131D204F8328870987EA868E8183708C838C8110
S1131D30882331F48E818695869581508B8304C0E7
S1131D408E81869586958B8388859CE1980F8F81FB
S1131D50845E692F0E94070D99858E81890F8150B9
S1131D60682F89850E941C0D0E94310D198212C0B2
S1131D701A8209C08D810E94D40C8D810E94D40CDA
S1131D808A818F5F8A839A818E81981798F38981DB
S1131D908F5F89838981282F30E08885482F50E020
S1131DA08F81882F90E0BA01681B790BCB010196D3
S1131DB028173907ECF288852CE1280F98858B8148
S1131DC0792F781B872F845E622F0E94070D9A85D6
S1131DD08E81292F281B99858E81890F622F0E945D
S1131DE01C0D0E94310D19824DC01A823DC08A819A
S1131DF0882389F58C81882F90E08130910599F0B2
S1131E00823091051CF4892B39F02BC08230910566
S1131E1091F00397B9F025C08D810E94D40C8D8177
S1131E200E94D40C17C080E00E94D40C8D818F7066
S1131E300E94D40C0FC080E00E94D40C8D810E94BB
S1131E40D40C08C08D818F700E94D40C8D810E94A7
S1131E50D40C000006C08D810E94D40C8D810E9498
S1131E60D40C8A818F5F8A838A81282F30E08B810A
S1131E70882F90E00196281739070CF4B8CF898190
S1131E808F5F89838981282F30E08A85482F50E02D
S1131E908985882F90E0BA01681B790BCB010196E4
S1131EA0281739070CF4A1CF88859CE1980F8F81FE
S1131EB0845E692F0E94070D9A858E81792F781B85
S1131EC0872F8F5F6A850E941C0D0E94310D198235
S1131ED012C01A8209C08D810E94D40C8D810E9487
S1131EE0D40C8A818F5F8A839A818E81981798F3A4
S1131EF089818F5F89838981282F30E08885482FE5
S1131F0050E08F81882F90E0BA01681B790BCB01D8
S1131F10019628173907ECF29F818B81890F9CE188
S1131F20980F8F81845E692F0E94070D9A858E8198
S1131F30292F281B99858E81890F622F0E941C0DE1
S1131F400E94310D19824EC01A823EC09A818B8143
S1131F50981789F58C81882F90E08130910599F04C
S1131F60823091051CF4892B39F02BC08230910505
S1131F7091F00397B9F025C08D810E94D40C8D8116
S1131F800E94D40C17C08D81807F0E94D40C80E005
S1131F900E94D40C0FC08D810E94D40C80E00E945A
S1131FA0D40C08C08D810E94D40C8D81807F0E9446
S1131FB0D40C000006C08D810E94D40C8D810E9437
S1131FC0D40C8A818F5F8A838A81282F30E08B81A9
S1131FD0882F90E00196281739070CF4B7CF898130
S1131FE08F5F89838981282F30E08A85482F50E0CC
S1131FF08985882F90E0BA01681B790BCB01019683
S1132000281739070CF4A0CF2A960FB6F894DEBF30
S11320100FBECDBFDF91CF910F91EF900895CF9375
S1132020DF9300D01F92CDB7DEB78B8367E780E0E4
S11320300E94070D6FE780E00E941C0D0E94310D85
S113204019820EC01A8206C08B810E94D40C8A8128
S11320508F5F8A838A818837B8F389818F5F898308
S1132060898188237CF70F900F900F90DF91CF9197
S11320700895CF93DF93CDB7DEB72D970FB6F894BD
S1132080DEBF0FBECDBF8A876B874C872D878B85BC
S1132090803219F480E68B8703C08B8580528B874E
S11320A08D85805F8F838A85882F90E0019791F4D6
S11320B08B85882F90E09C0121503109C901880F3C
S11320C0991F880F991F820F931F80509F4F9A83E7
S11320D08983000085E10E943B0D1B820DC3898129
S11320E09A81FC018081888789819A8101969A83EB
S11320F089838B81813021F41C821D821E821EC043
S113210089819A81FC0180818C8389819A810196DD
S11321109A83898389819A81FC0180818D83898155
S11321209A8101969A83898389819A81FC018081AD
S11321308E8389819A8101969A8389838C859CE117
S1132140980F8C85845E692F0E94070D8D85895FA9
S1132150682F8D850E941C0D0E94310D8885882F63
S113216090E08170992782959295907F9827807F3F
S11321709827982F8C818170892B89878985882F4E
S113218090E0880F991F982F8985292F282B8985FE
S1132190882F90E0880F991F880F991F282B898515
S11321A0882F90E0880F991F880F991F880F991F17
S11321B0822B898789850E94D40C8D81882F90E099
S11321C08170992782959295907F9827807F982790
S11321D0982F8E818170892B89878985882F90E03B
S11321E0880F991F982F8985292F282B8985882F57
S11321F090E0880F991F880F991F282B8985882FB5
S113220090E0880F991F880F991F880F991F822BC0
S1132210898789850E94D40C8885882F90E08270F4
S11322209927880F991F880F991F880F991F282FA6
S11322308C81882F90E08270992795958795822BC1
S113224089878985882F90E0880F991F982F898521
S1132250292F282B8985882F90E0880F991F880FB4
S1132260991F282B8985882F90E0880F991F880F44
S1132270991F880F991F822B898789850E94D40C06
S11322808D81882F90E082709927880F991F880F7D
S1132290991F880F991F282F8E81882F90E08270B4
S11322A0992795958795822B89878985882F90E032
S11322B0880F991F982F8985292F282B8985882F86
S11322C090E0880F991F880F991F282B8985882FE4
S11322D090E0880F991F880F991F880F991F822BF0
S11322E0898789850E94D40C8885882F90E0847022
S11322F09927880F991F880F991F282F8C81882F61
S113230090E0847099279595879595958795822B6C
S113231089878985882F90E0880F991F982F898550
S1132320292F282B8985882F90E0880F991F880FE3
S1132330991F282B8985882F90E0880F991F880F73
S1132340991F880F991F822B898789850E94D40C35
S11323508D81882F90E084709927880F991F880FAA
S1132360991F282F8E81882F90E084709927959546
S1132370879595958795822B89878985882F90E005
S1132380880F991F982F8985292F282B8985882FB5
S113239090E0880F991F880F991F282B8985882F13
S11323A090E0880F991F880F991F880F991F822B1F
S11323B0898789850E94D40C8885882F90E088704D
S11323C09927880F991F282F8C81882F90E0887077
S11323D09927959587959595879595958795822BBA
S11323E089878985882F90E0880F991F982F898580
S11323F0292F282B8985882F90E0880F991F880F13
S1132400991F282B8985882F90E0880F991F880FA2
S1132410991F880F991F822B898789850E94D40C64
S11324208D81882F90E088709927880F991F282F15
S11324308E81882F90E0887099279595879595953A
S1132440879595958795822B89878985882F90E034
S1132450880F991F982F8985292F282B8985882FE4
S113246090E0880F991F880F991F282B8985882F42
S113247090E0880F991F880F991F880F991F822B4E
S1132480898789850E94D40C8885882F90E0807183
S11324909927880F991F880F991F880F991F282F34
S11324A08C81882F90E08071992795958795822B50
S11324B089878985982F96958985982B898586950E
S11324C08695982B8985869586958695892B898707
S11324D089850E94D40C8D81882F90E08071992782
S11324E0880F991F880F991F880F991F282F8E8195
S11324F0882F90E08071992795958795822B8987FD
S11325008985982F96958985982B898586958695B2
S1132510982B8985869586958695892B89878985C3
S11325200E94D40C8885882F90E080729927880FA8
S1132530991F880F991F282F8C81882F90E0807213
S113254099279595879595958795822B8987898570
S1132550982F96958985982B898586958695982BAD
S11325608985869586958695892B898789850E9494
S1132570D40C8D81882F90E080729927880F991F41
S1132580880F991F282F8E81882F90E080729927B9
S11325909595879595958795822B89878985982F19
S11325A096958985982B898586958695982B898516
S11325B0869586958695892B898789850E94D40C72
S11325C08885882F90E080749927880F991F282F79
S11325D08C81882F90E0807499279595879595959F
S11325E0879595958795822B89878985982F9695C8
S11325F08985982B898586958695982B89858695D6
S113260086958695892B898789850E94D40C8D812E
S1132610882F90E080749927880F991F282F8E8126
S1132620882F90E08074992795958795959587953F
S113263095958795822B89878985982F9695898585
S1132640982B898586958695982B89858695869578
S11326508695892B898789850E94D40C8885282FA3
S113266020788C81882F90E080789927959587959C
S1132670959587959595879595958795822B8987C7
S11326808985982F96958985982B89858695869531
S1132690982B8985869586958695892B8987898542
S11326A00E94D40C8D81282F20788E81882F90E071
S11326B0807899279595879595958795959587958C
S11326C095958795822B89878985982F96958985F5
S11326D0982B898586958695982B898586958695E8
S11326E08695892B898789850E94D40C8C858F5F78
S11326F08C878B818F5F8B838B81823008F4EFCC46
S113270084E10E943B0D2D960FB6F894DEBF0FBEF8
S1132710CDBFDF91CF910895CF93DF93CDB7DEB7CF
S113272027970FB6F894DEBF0FBECDBF8B837D8392
S11327306C834E832F838C819D819A8389832F811F
S11327404E8160E681E00E94391089819A81FC0102
S113275080812F814E81682F8B810E94391089815D
S11327609A8101969A8389838E818E5F8E83898173
S11327709A81FC018081882309F401C0E6CF279661
S11327800FB6F894DEBF0FBECDBFDF91CF91089591
S1132790CF93DF93CDB7DEB765970FB6F894DEBF5E
S11327A00FBECDBF8D8B8D89807889838D89882FCD
S11327B090E080749927959587959595879595953B
S11327C087958A838D898072880F880F8B838D8982
S11327D0882F90E080719927959587958C838D89B2
S11327E088708295807F8D838D898470880F8E8315
S11327F08D8982708295880F880F807C8F838D8964
S11328008170880F880F880F88878981982F969503
S11328108981982B898186958695982B89818695BF
S113282086958695892B89878A81982F96958A81A2
S1132830982B8A8186958695982B8A81869586958C
S11328408695892B8A878B81982F96958B81982BD7
S11328508B8186958695982B8B8186958695869512
S1132860892B8B878C81982F96958C81982B8C81C2
S113287086958695982B8C81869586958695892B49
S11328808C878D81982F96958D81982B8D81869537
S11328908695982B8D81869586958695892B8D872F
S11328A08E81982F96958E81982B8E81869586950C
S11328B0982B8E81869586958695892B8E878F8118
S11328C0982F96958F81982B8F8186958695982B36
S11328D08F81869586958695892B8F878885982FF5
S11328E096958885982B888586958695982B8885D6
S11328F0869586958695892B888B99858A85892BDB
S1132900898B9B858C85892B8A8B9D858E85892BCC
S11329108B8B9F858889892B8C8B89890E94D40C09
S11329208A890E94D40C8B890E94D40C8C890E94C1
S1132930D40C65960FB6F894DEBF0FBECDBFDF9101
S1132940CF910895CF93DF93CDB7DEB727970FB616
S1132950F894DEBF0FBECDBF9F838E8363E98CE105
S11329600E94070D6FE780E00E941C0D0E94310D4C
S113297019822BC01A8223C08981882F90E09C0180
S1132980220F331F22953295307F3227207F322742
S11329908A81882F90E0820F931F9C018E819F81F2
S11329A0820F931F9C838B838B819C81FC01849178
S11329B08D838D810E94C8138A818F5F8A838A8167
S11329C08C33D0F289818F5F89838981803490F23E
S11329D0000027960FB6F894DEBF0FBECDBFDF917F
S11329E0CF910895CF93DF93CDB7DEB789EB0E94E3
S11329F0A10CDF91CF910895CF93DF93CDB7DEB7CC
S1132A0085E290E025E230E0F90120812F7BFC0192
S1132A1020838AE090E00E947F0C85E290E025E22A
S1132A2030E0F90120812064FC01208382E10E94CE
S1132A30710E80E00E94A80D81E90E94C60D8FE30B
S1132A400E944D0E80E00E945E0D80E00E944E0DBB
S1132A5084E10E943B0D80E00E94ED0D81E00E9424
S1132A60980D6DEF80EA0E94D60D8FE70E942D0E1F
S1132A708FE00E943D0E0E94F21482EE0E94B60D79
S1132A8080E20E945D0E8FE10E940D0E88E00E949C
S1132A90FD0D87E00E941D0E82E00E946E0D40E055
S1132AA060E081E00E947C0D80E00E940F1081E0D4
S1132AB00E94A80DDF91CF9108950E94911508F40A
S1132AC081E008950E94E51588F09F5798F0B92F8A
S1132AD09927B751B0F0E1F0660F771F881F991F4F
S1132AE01AF0BA95C9F714C0B13091F00E94FF15DD
S1132AF0B1E008950C94FF15672F782F8827B85FED
S1132B0039F0B93FCCF3869577956795B395D9F7A6
S1132B103EF490958095709561957F4F8F4F9F4FB0
S1132B200895990F0008550FAA0BE0E8FEEF16165A
S1132B301706E807F907C0F012161306E407F507AD
S1132B4098F0621B730B840B950B39F40A2661F021
S1132B50232B242B252B21F408950A2609F4A140C4
S1132B60A6958FEF811D811D089597F99F6780E8D1
S1132B7070E060E008959FEF80EC089500240A94CB
S1132B801616170618060906089500240A94121644
S1132B901306140605060895092E0394000C11F477
S1132BA0882352F0BB0F40F4BF2B11F460FF04C024
S1132BB06F5F7F4F8F4F9F4F089557FD9058440F7D
S1132BC0551F59F05F3F71F04795880F97FB991F88
S1132BD061F09F3F79F08795089512161306140645
S1132BE0551FF2CF4695F1DF08C0161617061806D2
S1132BF0991FF1CF86957105610508940895E894AD
S1132C00BB2766277727CB0197F908950E94911572
S1132C1008F48FEF08950E941E160C94CC150E94A0
S1132C20BE1538F00E94C51520F0952311F00C94C0
S1132C30B5150C94BB1511240C9400160E94DD15D7
S1132C4070F3959FC1F3950F50E0551F629FF001FB
S1132C50729FBB27F00DB11D639FAA27F00DB11D14
S1132C60AA1F649F6627B00DA11D661F829F22279D
S1132C70B00DA11D621F739FB00DA11D621F839F24
S1132C80A00D611D221F749F3327A00D611D231FFA
S1132C90849F600D211D822F762F6A2F11249F5748
S1132CA050409AF0F1F088234AF0EE0FFF1FBB1F4B
S1132CB0661F771F881F91505040A9F79E3F51050A
S1132CC080F00C94B5150C9400165F3FE4F3983E25
S1132CD0D4F3869577956795B795F795E7959F5FB4
S1132CE0C1F7FE2B880F911D9695879597F9089546
S1132CF0AA1BBB1B51E107C0AA1FBB1FA617B7071E
S1132D0010F0A61BB70B881F991F5A95A9F7809539
S1132D109095BC01CD01089597FB072E16F40094FD
S1132D2007D077FD09D00E94781607FC05D03EF441
S1132D30909581959F4F0895709561957F4F089563
S1132D40A1E21A2EAA1BBB1BFD010DC0AA1FBB1FAB
S1132D50EE1FFF1FA217B307E407F50720F0A21B1D
S1132D60B30BE40BF50B661F771F881F991F1A948A
S1132D7069F760957095809590959B01AC01BD01B4
S1132D80CF010895A29FB001B39FC001A39F700D0E
S1132D90811D1124911DB29F700D811D1124911D5F
S1132DA00895FB01DC010D900020E9F711970190D3
S1132DB00D920020E1F708954532510520F4423088
S1132DC010F00C94E716FB011082CB010895BB2789
S1132DD04A3031F4992322F4BDE2909581959F4FB6
S1132DE00C94F316BB27FB015527AA27880F991FBC
S1132DF0AA1FA41710F0A41B83955051B9F7A05D26
S1132E00AA3308F0A95DA193009779F7B111B193A2
S1132E101192CB010C940C17DC01FC01672F71910A
S1132E207723E1F7329704C07C916D9370836291AC
S10F2E30AE17BF07C8F30895F894FFCF55
S1132E3C00004F00000007000700147F147F1424C7
S1132E4C2A7F2A122313086462364955225000053E
S1132E5C030000001C2241000041221C0014083E07
S1132E6C081408083E080800503000000808080838
S1132E7C08006060000020100804023E5149453EE1
S1132E8C00427F400042615149462141454B311873
S1132E9C14127F1027454545393C4A494930017184
S1132EAC0905033649494936064949291E0036366F
S1132EBC00000056360000081422410014141414A7
S1132ECC1400412214080201510906324979413E89
S1132EDC7E1111117E7F494949363E414141227F81
S1132EEC4141221C7F494949417F090909013E415D
S1132EFC49497A7F0808087F00417F4100204041FE
S1132F0C3F017F081422417F404040407F020C0265
S1132F1C7F7F0408107F3E4141413E7F0909090629
S1132F2C3E4151215E7F09192946464949493101DF
S1132F3C017F01013F4040403F1F2040201F3F4084
S1132F4C38403F631408146307087008076151493B
S1132F5C4543007F41410002040810200041417F99
S1132F6C00040201020440404040400102040000FD
S1132F7C20545454787F48444438384444442038CA
S1132F8C4444487F3854545418087E0901020649B5
S1132F9C49493F7F0804047800447D4000204044A4
S1132FAC3D007F1028440000417F40007C0418043D
S1132FBC7C7C0804047838444444387C1414140885
S1132FCC081414187C7C0804040848545454200431
S1132FDC3F4440203C4040207C1C2040201C3C4072
S1132FEC30403C44281028440C5050503C44645409
S1132FFC4C44000836410000007F000000413608B4
S113300C0002010204023E5555412200000000005A
S113301C00007900001824742E24487E4942405D37
S113302C2222225D15167C161500007700000A5525
S113303C5555280001000100000A0D0A0408142A41
S113304C1422040404041C000808080001010101F2
S113305C01000205020044445F44440000040201E0
S113306C7E2020103E060F7F007F00181800000001
S113307C40502000000A0D0A0022142A14081708D4
S113308C342A7D1708046A59304845402070292693
S113309C28707028262970702A252A7072292629EE
S11330AC707029242970702A2D2A707E117F494949
S11330BC0E515171117C555654447C555654447CD4
S11330CC565556447C5554554400457E44000044A2
S11330DC7E450000467D460000457C45007F4949FD
S11330EC413E7C0A11227D384546443838444645D5
S11330FC38384645463838464546393845444538C7
S113310C22140814222E5149453A3C4142403C3C7D
S113311C4042413C3C4241423C3C4140413C0C100D
S113312C62110C7F1212120C403E01493620555686
S113313C5478205456557820565556782055565563
S113314C782055545578205657567824547854582A
S113315C0C52527213385556541838545655183854
S113316C56555618385554551800497A400000489D
S113317C7A4100004A794200004A784200314A4EB2
S113318C4A307A110A097030494A483030484A4961
S113319C30304A494A30304A494A31304A484A3038
S11331AC08082A08083864544C38384142207838C6
S11331BC40422178384241227838424022780C50DF
S11331CC52513C7E141414080C5150513C1E0909E4
S11331DC295E081515354E384446452030484A4971
S11331EC20384546452030494A49207C45464538D7
S11331FC2050507C031F151535510E151535467C82
S113320C55565544385556551800447C40007F4853
S113321C44404000497F44007C0812217C78100A09
S113322C09707C0912217C78110A097038474447CB
S113323C38304B484B303E417F4949384438545818
S113324C7C1516354878110A091048545655202017
S113325C48565520485556552020495655200405A6
S113326C7E0504083C4822013C4245423C38424518
S113327C22783C4340433C38434023780C11601182
S113328C0C4466554C44486A5948004464554C44B3
S113329C48685A48004465564D4448695A490000E8
S11332AC02010200000102010000010101000102FF
S11332BC02010000000100000002050200020102EC
S11332CC01007F05153A503E555541221814081437
S11332DC0C444A4A515151514A4A44744241427431
S11332EC414343454C45524154494F4E00534B497D
S11332FC44504144004155544F43524F535300459D
S113330C4E445552412C4345003E3E3E3E003C3C0F
S113331C3C3C00564F4C54414745203A0052504DCA
S113332C203A0047454152424F582054454D5020B5
S113333C3A005448524F54544C452025203A00200E
S109334C202020200000F7
S9030000FC
