S01F00005155544D535F5374656572696E67576865656C5F365F322E73726563B0
S11300000C943E000C9448000C9448000C94480056
S11300100C9448000C9448000C9448000C9448003C
S11300200C9448000C9448000C9448000C9448002C
S11300300C9448000C9448000C9448000C9448001C
S11300400C9448000C9448000C9448000C9448000C
S11300500C9448000C9448000C9448000C944800FC
S11300600C9448000C9448000C9448000C944800EC
S11300700C9448000C9448000C94480011241FBEB2
S1130080CFEFD0E1DEBFCDBF0E943B010C944D0108
S11300900C94000095B1907795B995B181FB7727C1
S11300A070F9682F661F6627661F660F660F660F56
S11300B0E62FE72B20E8829FB00111246E2B82FBF0
S11300C0442740F950E0440F551F462B84FB222758
S11300D020F930E0220F331F220F331F242B292B4A
S11300E025B95F982BB183FB992790F997959927A8
S11300F09795922B9BB998B19F7998B998B18072D2
S1130100892B88B908952D982E98589847980E945D
S11301104A00479A589A08952E9A589847980E94E8
S11301204A00479A589A0895CF93DF9385E10E9435
S1130130830080E00E948C0087E70E948C0085E7A2
S11301400E94830080E00E948C008FE70E948C0054
S11301508CE50E948300D0E008C080E00E948C00FF
S1130160C150D9F7DF5FD03811F0C8E7F6CFDF917F
S1130170CF9108952E9A83EF91E00197F1F700C093
S113018000002E9883EF91E00197F1F700C0000082
S11301902E9A8DEF0E9483008DEF0E94830082E1EE
S11301A00E948C008EEA0E94830083EB0E948300ED
S11301B081E90E948C008AEC0E9483008FE30E94F4
S11301C08C0082EA0E94830080E00E948C0081EA15
S11301D00E94830080E00E948C0080EA0E948300D9
S11301E084E10E948C0081E10E948C008BEA0E94D1
S11301F0830081E00E948C0084EB0E94830080EAEB
S11302000E948C008DEF0E948C0081EC0E94830080
S113021080EA0E948C0087EC0E9483008FE00E9499
S11302208C0081EB0E94830082EE0E948C0081EDA1
S11302300E94830082E80E948C0080E20E948C006D
S11302408BEB0E9483008FE10E948C0086EB0E945E
S1130250830088E00E948C008EEB0E94830087E07C
S11302600E948C0086EA0E9483000E94940085EA22
S11302700E94830008958FEF84B980EE87B981E8E6
S11302808AB90E94BA002FE986E891E021508040A3
S11102909040E1F700C00000F4CFF894FFCFD7
S9030000FC
