S01200006F6C65645F74657374312E737265631E
S11300000C943E000C9453000C9453000C94530035
S11300100C9453000C9453000C9453000C94530010
S11300200C9453000C9453000C9453000C94530000
S11300300C9453000C9453000C9453000C945300F0
S11300400C9453000C9453000C9453000C945300E0
S11300500C9453000C9453000C9453000C945300D0
S11300600C9453000C9453000C9453000C945300C0
S11300700C9453000C9453000C94530011241FBE91
S1130080CFEFD0E1DEBFCDBF1FE0A0E0B1E0E8E5F7
S1130090F1E102C005900D92A43DB107D9F70E9489
S11300A01E080C94AA080C940000CF93DF93CDB7DC
S11300B0DEB785E590E025E530E0F90120812F7772
S11300C0FC0120838CE490E020E5FC0120838DE496
S11300D090E021E0FC0120838EE490E0FC0110829A
S11300E0DF91CF910895CF93DF931F92CDB7DEB701
S11300F089838EE490E02981FC01208300008DE453
S113010090E0FC0180818823D4F78EE490E0FC0128
S113011080810F90DF91CF910895CF93DF9300D02A
S1130120CDB7DEB79A838983000089819A819C01C7
S1130130215031093A832983892BB9F70F900F9005
S1130140DF91CF910895CF93DF9300D000D0CDB746
S1130150DEB79C838B831A82198209C080E694E0FF
S11301600E948D0089819A8101969A8389832981CD
S11301703A818B819C812817390780F30F900F9067
S11301800F900F90DF91CF910895CF93DF931F923B
S1130190CDB7DEB7898385E290E025E230E0F9014E
S11301A020812F7DFC0120838BE290E02BE230E064
S11301B0F90120812E7FFC01208389810E94730034
S11301C085E290E025E230E0F90120812062FC0123
S11301D020838BE290E02BE230E0F9012081216062
S11301E0FC0120830F90DF91CF910895CF93DF938B
S11301F01F92CDB7DEB789838BE290E02BE230E02B
S1130200F90120812E7FFC01208385E290E025E224
S113021030E0F90120812062FC01208389810E9461
S1130220730085E290E025E230E0F901208120624C
S1130230FC0120838BE290E02BE230E0F901208185
S11302402160FC0120830F90DF91CF910895CF931B
S1130250DF9300D0CDB7DEB789836A8385E10E943E
S1130260C50089810E94F6008A810E94F6000F90E1
S11302700F90DF91CF910895CF93DF9300D0CDB746
S1130280DEB789836A8385E70E94C50089810E945D
S1130290F6008A810E94F6000F900F90DF91CF91B3
S11302A00895CF93DF93CDB7DEB78CE50E94C500E8
S11302B0DF91CF910895CF93DF931F92CDB7DEB72F
S11302C0898380EA0E94C50089810E94F60081E149
S11302D00E94F6000F90DF91CF910895CF93DF93A2
S11302E01F92CDB7DEB7898381EA0E94C500898158
S11302F00E94F6000F90DF91CF910895CF93DF9382
S11303001F92CDB7DEB7898382EA0E94C500898136
S11303100E94F6000F90DF91CF910895CF93DF9361
S11303201F92CDB7DEB789838981846A0E94C50094
S11303300F90DF91CF910895CF93DF9300D01F9258
S1130340CDB7DEB789836A834B838981886A0E942B
S1130350C5008981882331F48A810E94F6008B814B
S11303600E94F6000F900F900F90DF91CF910895A7
S1130370CF93DF931F92CDB7DEB789838BEA0E94B8
S1130380C50089810E94F6000F90DF91CF910895F6
S1130390CF93DF931F92CDB7DEB7898389818E6AAD
S11303A00E94C5000F90DF91CF910895CF93DF9302
S11303B01F92CDB7DEB7898381EB0E94C500898186
S11303C00E94F6000F90DF91CF910895CF93DF93B1
S11303D01F92CDB7DEB7898383EB0E94C500898164
S11303E00E94F6000F90DF91CF910895CF93DF9391
S11303F000D0CDB7DEB789836A8384EB0E94C50041
S11304008981806A0E94F6008A8185600E94F600D4
S11304100F900F90DF91CF910895CF93DF931F92A8
S1130420CDB7DEB7898385EB0E94C50089810E9420
S1130430F6000F90DF91CF910895CF93DF931F9231
S1130440CDB7DEB7898386EB0E94C50089810E94FF
S1130450F6000F90DF91CF910895CF93DF931F9211
S1130460CDB7DEB789838BEB0E94C50089810E94DA
S1130470F6000F90DF91CF910895CF93DF931F92F1
S1130480CDB7DEB789838EEB0E94C50089810E94B7
S1130490F6000F90DF91CF910895CF93DF931F92D1
S11304A0CDB7DEB7898381EC0E94C50089810E94A3
S11304B0F6000F90DF91CF910895CF93DF931F92B1
S11304C0CDB7DEB7898387EC0E94C50089810E947D
S11304D0F6000F90DF91CF910895CF93DF931F9291
S11304E0CDB7DEB789838AEC0E94C50089810E945A
S11304F0F6000F90DF91CF910895CF93DF931F9271
S1130500CDB7DEB7898381ED0E94C50089818268F9
S11305100E94F60080E20E94F6000F90DF91CF91D6
S11305200895CF93DF931F92CDB7DEB789838DEF04
S11305300E94C500898182610E94F6000F90DF91BC
S1130540CF910895CF93DF9300D01F92CDB7DEB73C
S11305508B8367E780E00E9427016FE780E00E94B9
S11305603C010E94510119820EC01A8206C08B817F
S11305700E94F6008A818F5F8A838A818837B8F364
S113058089818F5F8983898188237CF70F900F90FD
S11305900F90DF91CF910895CF93DF93CDB7DEB75E
S11305A02C970FB6F894DEBF0FBECDBF89876A873C
S11305B04B872C878985882F90E08130910519F02D
S11305C0029799F024C08A85882F90E09C012150DD
S11305D03109C901880F991F880F991F820F931F32
S11305E080509F4F9A83898312C08A85882F90E018
S11305F09C0121503109C901880F991F880F991F47
S1130600820F931F80559A4F9A838983000085E156
S11306100E945B011B820DC389819A81FC01808148
S11306208F8389819A8101969A8389838B81813012
S113063021F41C821D821E821EC089819A81FC01C4
S113064080818C8389819A8101969A8389838981A7
S11306509A81FC0180818D8389819A8101969A8394
S1130660898389819A81FC0180818E8389819A8121
S113067001969A8389838B859CE1980F8B85845E90
S1130680692F0E9427018C85895F682F8C850E94C1
S11306903C010E9451018F81882F90E0817099273D
S11306A082959295907F9827807F9827982F8C81A8
S11306B08170892B88878885882F90E0880F991FFF
S11306C0982F8885292F282B8885882F90E0880FDC
S11306D0991F880F991F282B8885882F90E0880FF1
S11306E0991F880F991F880F991F822B88878885E7
S11306F00E94F6008D81882F90E081709927829561
S11307009295907F9827807F9827982F8E8181706B
S1130710892B88878885882F90E0880F991F982FC8
S11307208885292F282B8885882F90E0880F991F8A
S1130730880F991F282B8885882F90E0880F991F90
S1130740880F991F880F991F822B888788850E949C
S1130750F6008F81882F90E082709927880F991F67
S1130760880F991F880F991F282F8C81882F90E05C
S11307708270992795958795822B88878885882FFD
S113078090E0880F991F982F8885292F282B88851A
S1130790882F90E0880F991F880F991F282B888530
S11307A0882F90E0880F991F880F991F880F991F31
S11307B0822B888788850E94F6008D81882F90E09F
S11307C082709927880F991F880F991F880F991F86
S11307D0282F8E81882F90E0827099279595879590
S11307E0822B88878885882F90E0880F991F982FFF
S11307F08885292F282B8885882F90E0880F991FBA
S1130800880F991F282B8885882F90E0880F991FBF
S1130810880F991F880F991F822B888788850E94CB
S1130820F6008F81882F90E084709927880F991F94
S1130830880F991F282F8C81882F90E08470992726
S11308409595879595958795822B88878885882F98
S113085090E0880F991F982F8885292F282B888549
S1130860882F90E0880F991F880F991F282B88855F
S1130870882F90E0880F991F880F991F880F991F60
S1130880822B888788850E94F6008D81882F90E0CE
S113089084709927880F991F880F991F282F8E819C
S11308A0882F90E0847099279595879595958795DD
S11308B0822B88878885882F90E0880F991F982F2E
S11308C08885292F282B8885882F90E0880F991FE9
S11308D0880F991F282B8885882F90E0880F991FEF
S11308E0880F991F880F991F822B888788850E94FB
S11308F0F6008F81882F90E088709927880F991FC0
S1130900282F8C81882F90E088709927959587955A
S11309109595879595958795822B88878885882FC7
S113092090E0880F991F982F8885292F282B888578
S1130930882F90E0880F991F880F991F282B88858E
S1130940882F90E0880F991F880F991F880F991F8F
S1130950822B888788850E94F6008D81882F90E0FD
S113096088709927880F991F282F8E81882F90E0EF
S113097088709927959587959595879595958795E9
S1130980822B88878885882F90E0880F991F982F5D
S11309908885292F282B8885882F90E0880F991F18
S11309A0880F991F282B8885882F90E0880F991F1E
S11309B0880F991F880F991F822B888788850E942A
S11309C0F6008F81882F90E080719927880F991FF6
S11309D0880F991F880F991F282F8C81882F90E0EA
S11309E08071992795958795822B88878885982F7C
S11309F096958885982B888586958695982B8885E5
S1130A00869586958695892B888788850E94F60029
S1130A108D81882F90E080719927880F991F880F06
S1130A20991F880F991F282F8E81882F90E080713D
S1130A30992795958795822B88878885982F9695F1
S1130A408885982B888586958695982B88858695A4
S1130A5086958695892B888788850E94F6008F81E4
S1130A60882F90E080729927880F991F880F991F0B
S1130A70282F8C81882F90E08072992795958795EF
S1130A8095958795822B88878885982F9695888554
S1130A90982B888586958695982B88858695869546
S1130AA08695892B888788850E94F6008D81882FFA
S1130AB090E080729927880F991F880F991F282F1B
S1130AC08E81882F90E080729927959587959595CA
S1130AD08795822B88878885982F96958885982B6B
S1130AE0888586958695982B88858695869586959E
S1130AF0892B888788850E94F6008F81882F90E053
S1130B0080749927880F991F282F8C81882F90E053
S1130B10807499279595879595958795959587954B
S1130B20822B88878885982F96958885982B888529
S1130B3086958695982B8885869586958695892BA6
S1130B40888788850E94F6008D81882F90E08074C4
S1130B509927880F991F282F8E81882F90E0807401
S1130B609927959587959595879595958795822B42
S1130B7088878885982F96958885982B888586956B
S1130B808695982B8885869586958695892B888762
S1130B9088850E94F6008F81282F20788C81882FE9
S1130BA090E0807899279595879595958795959563
S1130BB0879595958795822B88878885982F969514
S1130BC08885982B888586958695982B8885869523
S1130BD086958695892B888788850E94F6008D8165
S1130BE0282F20788E81882F90E0807899279595FA
S1130BF08795959587959595879595958795822B56
S1130C0088878885982F96958885982B88858695DA
S1130C108695982B8885869586958695892B8887D1
S1130C2088850E94F6008B858F5F8B878B818F5F11
S1130C308B838B81823008F4EFCC84E10E945B01CA
S1130C402C960FB6F894DEBF0FBECDBFDF91CF91C7
S1130C500895CF93DF93CDB7DEB727970FB6F894F7
S1130C60DEBF0FBECDBF8B837D836C834E832F830A
S1130C708C819D819A8389832F814E8160E681E0F6
S1130C800E94CC0289819A81FC0180812F814E814E
S1130C90682F8B810E94CC0289819A8101969A8364
S1130CA089838E818E5F8E8389819A81FC01808104
S1130CB0882309F401C0E6CF27960FB6F894DEBF67
S1130CC00FBECDBFDF91CF910895CF93DF93CDB702
S1130CD0DEB765970FB6F894DEBF0FBECDBF8D8B20
S1130CE08D89807889838D89882F90E080749927F5
S1130CF09595879595958795959587958A838D89FB
S1130D008072880F880F8B838D89882F90E0807183
S1130D109927959587958C838D8988708295807F96
S1130D208D838D898470880F8E838D8982708295DE
S1130D30880F880F807C8F838D898170880F880F3E
S1130D40880F88878981982F96958981982B898126
S1130D5086958695982B8981869586958695892B87
S1130D6089878A81982F96958A81982B8A8186957E
S1130D708695982B8A81869586958695892B8A8770
S1130D808B81982F96958B81982B8B818695869550
S1130D90982B8B81869586958695892B8B878C815C
S1130DA0982F96958C81982B8C8186958695982B77
S1130DB08C81869586958695892B8C878D81982F35
S1130DC096958D81982B8D8186958695982B8D810E
S1130DD0869586958695892B8D878E81982F9695F5
S1130DE08E81982B8E8186958695982B8E818695FB
S1130DF086958695892B8E878F81982F96958F81DE
S1130E00982B8F8186958695982B8F8186958695CC
S1130E108695892B8F878885982F96958885982B1A
S1130E20888586958695982B88858695869586955A
S1130E30892B888B99858A85892B898B9B858C85C1
S1130E40892B8A8B9D858E85892B8B8B9F858889A1
S1130E50892B8C8B89890E94F6008A890E94F6006E
S1130E608B890E94F6008C890E94F60065960FB665
S1130E70F894DEBF0FBECDBFDF91CF910895CF931D
S1130E80DF9300D000D0CDB7DEB79C838B8363E9BA
S1130E908CE10E9427016FE780E00E943C010E94E0
S1130EA05101198225C01A821DC08981882F90E0C2
S1130EB09C01220F331F22953295307F3227207FE9
S1130EC032278A81882F90E0820F931F9C018B81A7
S1130ED09C81820F931FFC0180810E9465068A8198
S1130EE08F5F8A838A818C3300F389818F5F898342
S1130EF089818034C0F200000F900F900F900F9002
S1130F00DF91CF910895CF93DF93CDB7DEB788EB10
S1130F100E94C5008CE00E94F60088E10E94F60061
S1130F2084E20E94F60080E30E94F6008CE30E94B3
S1130F30F60088E40E94F60084E50E94F60080E64C
S1130F400E94F6008CE60E94F60088E70E94F600F4
S1130F5084E80E94F60080E90E94F6008CE90E9471
S1130F60F60088EA0E94F60084EB0E94F60080E016
S1130F700E94C500DF91CF910895CF93DF93CDB741
S1130F80DEB785E290E025E230E0F90120812F7B95
S1130F90FC01208388EE93E00E94A30085E290E0A8
S1130FA025E230E0F90120812064FC01208382E104
S1130FB00E94910280E00E94C80181E90E94E6013A
S1130FC08FE30E946D0280E00E947E0180E00E9417
S1130FD06E0184E10E945B0180E00E940D0281E0C9
S1130FE00E94B8016DEF80EA0E94F6018FE70E942B
S1130FF04D028FE00E945D020E94830782EE0E94F0
S1131000D60180E20E947D028FE10E942D0288E0D9
S11310100E941D0287E00E943D0282E00E948E0130
S113102040E060E081E00E949C0180E00E94A20216
S113103081E00E94C801DF91CF910895CF93DF939F
S1131040CDB7DEB7A3970FB6F894DEBF0FBECDBF02
S113105084E290E023EEFC0120838AE290E029E020
S1131060FC01208385E290E025E230E0F901208153
S11310702068FC01208386E0E7ECFFE0DE011596A2
S113108001900D928A95E1F786E0E7ECFFE0DE013E
S11310901B9601900D928A95E1F786E0E7ECFFE05C
S11310A0DE01519601900D928A95E1F786E0E7EC16
S11310B0FFE0DE01579601900D928A95E1F787E0F3
S11310C0EDECFFE0DE015D9601900D928A95E1F76B
S11310D00E9455000E94BD0780E00E94A20287E1A1
S11310E090E09A83898381E48B831C8287EC97E068
S11310F00E943F0780ED97E00E94A30080E00E94D9
S1131100A202CE01059625E045E0BC0181E00E94E3
S11311102906CE010B9625E145E0BC0181E00E9441
S11311202906CE01419625E245E0BC0181E00E94FA
S11311302906CE01479620E345E0BC0181E00E94E8
S11311402906CE014D9625E047E2BC0181E00E94CC
S10B11502906D7CFF894FFCF64
S113115800004F00000007000700147F147F1424C8
S11311682A7F2A122313086462364955225000053F
S1131178030000001C2241000041221C0014083E08
S1131188081408083E080800503000000808080839
S113119808006060000020100804023E5149453EE2
S11311A800427F400042615149462141454B311874
S11311B814127F1027454545393C4A494930017185
S11311C80905033649494936064949291E00363670
S11311D800000056360000081422410014141414A8
S11311E81400412214080201510906324979413E8A
S11311F87E1111117E7F494949363E414141227F82
S11312084141221C7F494949417F090909013E415D
S113121849497A7F0808087F00417F4100204041FE
S11312283F017F081422417F404040407F020C0266
S11312387F7F0408107F3E4141413E7F090909062A
S11312483E4151215E7F09192946464949493101E0
S1131258017F01013F4040403F1F2040201F3F4085
S113126838403F631408146307087008076151493C
S11312784543007F41410002040810200041417F9A
S113128800040201020440404040400102040000FE
S113129820545454787F48444438384444442038CB
S11312A84444487F3854545418087E0901020649B6
S11312B849493F7F0804047800447D4000204044A5
S11312C83D007F1028440000417F40007C0418043E
S11312D87C7C0804047838444444387C1414140886
S11312E8081414187C7C0804040848545454200432
S11312F83F4440203C4040207C1C2040201C3C4073
S113130830403C44281028440C5050503C44645409
S11313184C44000836410000007F000000413608B4
S11313280002010204023E5555412200000000005B
S113133800007900001824742E24487E4942405D38
S11313482222225D15167C161500007700000A5526
S11313585555280001000100000A0D0A0408142A42
S11313681422040404041C000808080001010101F3
S113137801000205020044445F44440000040201E1
S11313887E2020103E060F7F007F00181800000002
S113139840502000000A0D0A0022142A14081708D5
S11313A8342A7D1708046A59304845402070292694
S11313B828707028262970702A252A7072292629EF
S11313C8707029242970702A2D2A707E117F49494A
S11313D80E515171117C555654447C555654447CD5
S11313E8565556447C5554554400457E44000044A3
S11313F87E450000467D460000457C45007F4949FE
S1131408413E7C0A11227D384546443838444645D5
S113141838384645463838464546393845444538C7
S113142822140814222E5149453A3C4142403C3C7E
S11314384042413C3C4241423C3C4140413C0C100E
S113144862110C7F1212120C403E01493620555687
S11314585478205456557820565556782055565564
S1131468782055545578205657567824547854582B
S11314780C52527213385556541838545655183855
S113148856555618385554551800497A400000489E
S11314987A4100004A794200004A784200314A4EB3
S11314A84A307A110A097030494A483030484A4962
S11314B830304A494A30304A494A31304A484A3039
S11314C808082A08083864544C38384142207838C7
S11314D840422178384241227838424022780C50E0
S11314E852513C7E141414080C5150513C1E0909E5
S11314F8295E081515354E384446452030484A4972
S113150820384546452030494A49207C45464538D7
S11315182050507C031F151535510E151535467C82
S113152855565544385556551800447C40007F4854
S113153844404000497F44007C0812217C78100A0A
S113154809707C0912217C78110A097038474447CC
S113155838304B484B303E417F4949384438545819
S11315687C1516354878110A091048545655202018
S113157848565520485556552020495655200405A7
S11315887E0504083C4822013C4245423C38424519
S113159822783C4340433C38434023780C11601183
S11315A80C4466554C44486A5948004464554C44B4
S11315B848685A48004465564D4448695A490000E9
S11315C80201020000010201000001010100010200
S11315D802010000000100000002050200020102ED
S11315E801007F05153A503E555541221814081438
S11315F80C444A4A515151514A4A44744241427432
S11316087E1111117E7F494949367F020101037019
S11316184E414E707F4949494161514945437F08CC
S113162808087F3E4949493E00417F41007F08142C
S11316382241700E010E707F020C027F7F04081095
S11316487F635D495D633E4141413E413F013F4106
S11316587F09090906635549414101017F010103D5
S1131668017E010308557F5508631408146307486D
S11316787F48075E6101615E384448304C7C2A2A01
S11316882A144438040408304B4D5930285454441F
S11316982000185552223E0402027C3C4A4A4A3C25
S11316A8003C4020007C1028444041320C30407EED
S11316B82020103E1C2040201C142B2A2A60384469
S11316C8444438443C047C4470282424180C1212E2
S11316D8526038444C5424043C4420003C4040208C
S11316E81C18247E241844281028440C107E100C3E
S11316F838443044380A0A4A2A1E044434140C2054
S11317081078040018084C4838484878484848284D
S1131718187C08087C0828184048487840545454D1
S11317287C001800584038080808080801413D0999
S11317380710087C02010E0243221E42427E4242E6
S113174822120A7F02423F02423E0A0A7F0A0A081C
S11317584642221E0403423E02424242427E024F55
S1131768221F024A4A40201C4222122A46023F42B1
S11317784A46064840201E08464A321E0A4A3E097E
S1131788080E004E201E04453D0504007F08100085
S113179844241F04044042424240422A122A062298
S11317A8127B16220040201F0078000204783F4470
S11317B8444444024242221E040204083032027F96
S11317C80232021222520E002A2A2A4038242220E7
S11317D87040281028060A3E4A4A4A047F04140C1A
S11317E84042427E404A4A4A4A7E040545251C0F27
S11317F840201F007C007E40307E402010087E423E
S113180842427E0E0242221E424240201802040135
S113181802000705070000000000000000000000A7
S113182800000000000000000000000000000000AC
S1131838000000000000000000000000000000009C
S1131848000000000000000000000000000000008C
S1131858000000000000000000000000000000007C
S1131868000000000000000000000000000000006C
S1131878000000000000000000000000000000005C
S1131888000000000000000000000000000000004C
S1131898000000000000000000000000000000003C
S11318A8000000000000000000000000000000002C
S11318B8000000000000000000000000000000001C
S11318C8000000000000000000000000000000000C
S11318D800000000000000000000000000000000FC
S11318E800000000000000000000000000000000EC
S11318F800000000000000000000000000000000DC
S113190800000000000000000000000000000000CB
S113191800000000000000000000000000000000BB
S113192800000000000000000000000000000000AB
S1131938000000000000000000000000000000009B
S1131948000000000000000000000000000000008B
S1131958000000000000000000000000000000007B
S11319680003F80000000000000000000000000070
S1131978000000000000000000000000000000005B
S1131988001FFE00FC03F7FFFF3FC01FE01FF0002D
S1131998000000000000000000000000000000003B
S11319A8007FFF80FC07E7FFFE3FC03FE01FE00029
S11319B8000000000000000000000000000000001B
S11319C800FFFFC1F807E7FFFE3FC03FC01FE0006C
S11319D800000000000000000000000000000000FB
S11319E801FFFFC1F807EFFFFE7F803FC03FE00023
S11319F800000000000000000000000000000000DB
S1131A0807FFFFE1F80FCFFFFC7F803FC03FC00016
S1131A1800000000000000000000000000000000BA
S1131A2807FC7FE3F00FC03F007F807F803FC0004A
S1131A38000000000000000000000000000000009A
S1131A480FF01FE3F00FC03F00FF007F807FC0004E
S1131A58000000000000000000000000000000007A
S1131A681FC00FE3F01F807E00FF007F807F80008F
S1131A78000000000000000000000000000000005A
S1131A883F800FE7E01F807E0000FF007F8000009A
S1131A98000000000000000000000000000000003A
S1131AA83F800FE7E01F807E0000FF00FF0000007A
S1131AB8000000000000000000000000000000001A
S1131AC87F000FE7E03F00FC0001FF00FF0000007B
S1131AD800000000000000000000000000000000FA
S1131AE87F000FCFC03F00FC0001FE00FF00000094
S1131AF800000000000000000000000000000000DA
S1131B087E000FCFC03F00FC0001FE01FE00000074
S1131B1800000000000000000000000000000000B9
S1131B287E01FFCFC07E01F80003FE01FE00000025
S1131B380000000000000000000000000000000099
S1131B48FE03FF9F807E01F80003FC01FE000000F5
S1131B580000000000000000000000000000000079
S1131B68FE03FF9F807E01F80003FC03FC000000D5
S1131B780000000000000000000000000000000059
S1131B88FE01FF1F80FC03F007F803FC03FC0000C0
S1131B980000000000000000000000000000000039
S1131BA8FF01FF1F80FC03F007F807FC03FC00009B
S1131BB80000000000000000000000000000000019
S1131BC8FF83FE3F81F803F00FF807F803FC0000D9
S1131BD800000000000000000000000000000000F9
S1131BE87FFFFC3FFFF807F00FF007F807F8000045
S1131BF800000000000000000000000000000000D9
S1131C087FFFFC1FFFF007E00FF00FF807F8000054
S1131C1800000000000000000000000000000000B8
S1131C283FFFFC1FFFE007E01FF00FF007F800007C
S1131C380000000000000000000000000000000098
S1131C483FFFFE0FFFC00FE01FE00FF00FF800008A
S1131C580000000000000000000000000000000078
S1131C680FFFFE07FF000FC01FE01FF00FF000007A
S1131C780000000000000000000000000000000058
S1131C8803F87E01F8000FC01FC01FE00FF000002A
S1131C980000000000000000000000000000000038
S1131CA80000000000000000000000000000000028
S1131CB80000000000000000000000000000000018
S1131CC80000000000000000000000000000000008
S1131CD800000000000000000000000000000007F1
S1131CE8FFFFFFFFFFFFFFFFFFFFFFFFFFE0000015
S1131CF80000000000000000000000000000000FC9
S1131D08FFFFFFFFFFFFFFFFFFFFFFFFFFE00000F4
S1131D180000000000000000000000000000000FA8
S1131D28FFFFFFFFFFFFFFFFFFFFFFFFFFC00000F4
S1131D380000000000000000000000000000000E89
S1131D48FDF03C0781F03E0F81F03E0781C00000A2
S1131D580000000000000000000000000000001C5B
S1131D6879E01C0701E03C0701E03C0701C00000E2
S1131D780000000000000000000000000000001C3B
S1131D8861C71F3E38E738CF39C71C67CF800000CA
S1131D980000000000000000000000000000001C1B
S1131DA803CF1E3C79E7383F318F1CE7CF80000012
S1131DB800000000000000000000000000000038DF
S1131DC8038F1E7CF9C07C1E039F380F8F80000090
S1131DD800000000000000000000000000000039BE
S1131DE8038F3E7CF1C0FF8E079E381F9F000000C2
S1131DF8000000000000000000000000000000399E
S1131E08E78C3C7C63CCF39C1F8C799F9F0000007B
S1131E180000000000000000000000000000007145
S1131E28E7807CFC078CF01C7F80F19F1F0000007A
S1131E380000000000000000000000000000007323
S1131E48C7C1FCFE0F9C783CFFC1F38F3E00000025
S1131E580000000000000000000000000000007FF7
S1131E68FFFFFFFFFFFFFFFFFFFFFFFFFE00000074
S1131E78000000000000000000000000000000FF57
S1131E88FFFFFFFFFFFFFFFFFFFFFFFFFE00000054
S1131E980000000000000000000000000000000036
S1131EA80000000000000000000000000000000026
S1131EB80000000000000000000000000000000016
S1131EC80000000000000000000000000000000006
S1131ED800000000000000000000000000000000F6
S1131EE800000000000000000000000000000000E6
S1131EF800000000000000000000000000000000D6
S1131F0800000000000000000000000000000000C5
S1131F1800000000000000000000000000000000B5
S1131F2800000000000000000000000000000000A5
S1131F380000000000000000000000000000000095
S1131F480000000000000000000000000000000085
S1131F580000000000000000000000000000000075
S1131F680000000000000000000000000000000065
S1131F780000000000000000000000000000000055
S1131F880000000000000000000000000000000045
S1131F980000000000000000000000000000000035
S1131FA80000000000000000000000000000000025
S1131FB80000000000000000000000000000000015
S1131FC80000000000000000000000000000000005
S1131FD800000000000000000000000000000000F5
S1131FE800000000000000000000000000000000E5
S1131FF800000000000000000000000000000000D5
S113200800000000000000000000000000000000C4
S1132018000000000000004D54454D500043484165
S107202852474500D2
S9030000FC
