S01A00005374656572696E67576865656C54657374312E7372656303
S11300000C943E000C9448000C9448000C94480056
S11300100C9448000C9448000C9448000C9448003C
S11300200C9448000C9448000C9448000C9448002C
S11300300C9448000C9448000C9448000C9448001C
S11300400C9448000C9448000C9448000C9448000C
S11300500C9448000C9448000C9448000C944800FC
S11300600C9448000C9448000C9448000C944800EC
S11300700C9448000C9448000C94480011241FBEB2
S1130080CFEFD0E1DEBFCDBF0E944A000C946B00DD
S11300900C94000084B18FEF84B987B1806E87B966
S11300A08AB181688AB915B818B881E08BB92E9ADB
S11300B083ED90E30197F1F700C00000589885B1F3
S11300C08A6885B9459A8FE493EC0197F1F700C0EB
S10D00D00000479AFFCFF894FFCF19
S9030000FC
