S01C00005155544D535F5374656572696E675F576865656C2E737265637A
S11300000C9407130C9424130C9424130C942413AD
S11300100C9424130C9424130C9424130C94241380
S11300200C9424130C9424130C94EE150C942413A4
S11300300C9424130C9424130C9424130C94241360
S11300400C9424130C9424130C9410160C94241361
S11300500C9424130C9424130C9424130C94241340
S11300600C9424130C9424130C9424130C94241330
S11300700C9424130C9424130C94241308000000EF
S1130080BE922449123EABAAAA2ABECDCCCC4C3E89
S113009000000080BEABAAAAAA3E00000000BF0078
S11300A00000803F0000000000084178D3BB438774
S11300B0D1133D190E3CC3BD4282AD2B3E68EC8288
S11300C076BED98FE1A93E4C80EFFFBE01C4FF7F0D
S11300D03F000000000000000000000000000000DD
S11300E0000000000000000000000000000000000C
S11300F000000000000000000000000000000000FC
S113010000000000000000000000000000000000EB
S113011000000000000000000000000000000000DB
S113012000000000000000000000000000000000CB
S113013000000000000000000000000000000000BB
S113014000000000000000000000000000000000AB
S1130150000000000000000000000000000000009B
S1130160000000000000000000000000000000008B
S1130170000000000000000000000000000000007B
S1130180000000000000000000000000000000006B
S1130190000000000000000000000000000000005B
S11301A0000000000000000000000000000000004B
S11301B0000000000000000000000000000000003B
S11301C0000000000000000000000000000000002B
S11301D0000000000000000000000000000000001B
S11301E0000000000000000000000000000000000B
S11301F000000000000000000000000000000000FB
S113020000000000000000000000000000000000EA
S113021000000000000000000000000000000000DA
S113022003F80000000000000000000000000000CF
S113023000000000000000000000000000000000BA
S11302401FFE00FC03F7FFFF3FC01FE01FF000008C
S1130250000000000000000000000000000000009A
S11302607FFF80FC07E7FFFE3FC03FE01FE0000088
S1130270000000000000000000000000000000007A
S1130280FFFFC1F807E7FFFE3FC03FC01FE00000CB
S11302900000000000000000000000000000000159
S11302A0FFFFC1F807EFFFFE7F803FC03FE0000083
S11302B00000000000000000000000000000000733
S11302C0FFFFE1F80FCFFFFC7F803FC03FC000007D
S11302D00000000000000000000000000000000713
S11302E0FC7FE3F00FC03F007F807F803FC00000B1
S11302F00000000000000000000000000000000FEB
S1130300F01FE3F00FC03F00FF007F807FC00000BC
S11303100000000000000000000000000000001FBA
S1130320C00FE3F01F807E00FF007F807F8000000D
S11303300000000000000000000000000000003F7A
S1130340800FE7E01F807E0000FF007F8000000038
S11303500000000000000000000000000000003F5A
S1130360800FE7E01F807E0000FF00FF0000000018
S11303700000000000000000000000000000007FFA
S1130380000FE7E03F00FC0001FF00FF0000000059
S11303900000000000000000000000000000007FDA
S11303A0000FCFC03F00FC0001FE00FF0000000072
S11303B00000000000000000000000000000007EBB
S11303C0000FCFC03F00FC0001FE01FE0000000052
S11303D00000000000000000000000000000007E9B
S11303E001FFCFC07E01F80003FE01FE0000000003
S11303F0000000000000000000000000000000FEFB
S113040003FF9F807E01F80003FC01FE0000000052
S1130410000000000000000000000000000000FEDA
S113042003FF9F807E01F80003FC03FC0000000032
S1130430000000000000000000000000000000FEBA
S113044001FF1F80FC03F007F803FC03FC0000001D
S1130450000000000000000000000000000000FF99
S113046001FF1F80FC03F007F807FC03FC000000F9
S1130470000000000000000000000000000000FF79
S113048083FE3F81F803F00FF807F803FC00000037
S11304900000000000000000000000000000007FD9
S11304A0FFFC3FFFF807F00FF007F807F800000023
S11304B00000000000000000000000000000007FB9
S11304C0FFFC1FFFF007E00FF00FF807F800000033
S11304D00000000000000000000000000000003FD9
S11304E0FFFC1FFFE007E01FF00FF007F80000001B
S11304F00000000000000000000000000000003FB9
S1130500FFFE0FFFC00FE01FE00FF00FF800000028
S11305100000000000000000000000000000000FC8
S1130520FFFE07FF000FC01FE01FF00FF0000000E8
S113053000000000000000000000000000000003B4
S1130540F87E01F8000FC01FC01FE00FF00000008C
S11305500000000000000000000000000000000097
S11305600000000000000000000000000000000087
S11305700000000000000000000000000000000077
S11305800000000000000000000000000000000067
S1130590000000000000000000000000000007FF51
S11305A0FFFFFFFFFFFFFFFFFFFFFFFFE000000073
S11305B000000000000000000000000000000FFF29
S11305C0FFFFFFFFFFFFFFFFFFFFFFFFE000000053
S11305D000000000000000000000000000000FFF09
S11305E0FFFFFFFFFFFFFFFFFFFFFFFFC000000053
S11305F000000000000000000000000000000EFDEC
S1130600F03C0781F03E0F81F03E0781C0000000FE
S113061000000000000000000000000000001C7941
S1130620E01C0701E03C0701E03C0701C0000000BA
S113063000000000000000000000000000001C6139
S1130640C71F3E38E738CF39C71C67CF800000008A
S113065000000000000000000000000000001C0377
S1130660CF1E3C79E7383F318F1CE7CF8000000074
S1130670000000000000000000000000000038033B
S11306808F1E7CF9C07C1E039F380F8F80000000F2
S1130690000000000000000000000000000039031A
S11306A08F3E7CF1C0FF8E079E381F9F0000000024
S11306B0000000000000000000000000000039E716
S11306C08C3C7C63CCF39C1F8C799F9F00000000C2
S11306D0000000000000000000000000000071E7BE
S11306E0807CFC078CF01C7F80F19F1F00000000C1
S11306F0000000000000000000000000000073C7BC
S1130700C1FCFE0F9C783CFFC1F38F3E000000004B
S113071000000000000000000000000000007FFF57
S1130720FFFFFFFFFFFFFFFFFFFFFFFE00000000D2
S11307300000000000000000000000000000FFFFB7
S1130740FFFFFFFFFFFFFFFFFFFFFFFE00000000B2
S11307500000000000000000000000000000000095
S11307600000000000000000000000000000000085
S11307700000000000000000000000000000000075
S11307800000000000000000000000000000000065
S11307900000000000000000000000000000000055
S11307A00000000000000000000000000000000045
S11307B00000000000000000000000000000000035
S11307C00000000000000000000000000000000025
S11307D00000000000000000000000000000000015
S11307E00000000000000000000000000000000005
S11307F000000000000000000000000000000000F5
S113080000000000000000000000000000000000E4
S113081000000000000000000000000000000000D4
S113082000000000000000000000000000000000C4
S113083000000000000000000000000000000000B4
S113084000000000000000000000000000000000A4
S11308500000000000000000000000000000000094
S11308600000000000000000000000000000000084
S11308700000000000000000000000000000000074
S11308800000000000000000000000000000000064
S11308900000000000000000000000000000000054
S11308A00000000000000000000000000000000044
S11308B00000000000000000000000000000000034
S11308C00000000000000000000000000000000024
S11308D00000000000000000000000000000000014
S11308E00000000000000000000000000000000004
S11308F000000000000000000000000000000C00E8
S11309000C000C000C000C000C000C000C000C0083
S11309100C0000000E000E000E000000000000009D
S113092000000000198019801980198019800000C6
S113093000000000000000000000000000000000B3
S1130940000000000000000000000000130013007D
S11309501300FFC0FFC013003600FF80FF80360085
S113096036003600360000000000000000000200DF
S113097002001F803F806600660074003C001F0078
S113098007800CC00CC04DC07F803F0008000800E9
S11309900000000000007840FCC0CD80CD00FF00C6
S11309A07E0004000C000BC017E03660266067E090
S11309B0C3C0000000000000000000000F003F80E2
S11309C03180318033801F001C003C60666063E02E
S11309D061C071C03FE01F70000000000000000013
S11309E000000C000C000C000C000C0000000000C7
S11309F000000000000000000000000000000000F3
S1130A0000000000000001000380030006000C0049
S1130A100C0018001800180018001800180018001E
S1130A200C000C00060007000380010010003800D1
S1130A3018000C0006000600030003000300030076
S1130A40030003000300060006000C001800380031
S1130A50100000000400248035800E000E00378052
S1130A6024800400000000000000000000000000DA
S1130A700000000000000000000000000000000072
S1130A8006000600060006007FE07FE00600060080
S1130A900600060000000000000000000000000046
S1130AA00000000000000000000000000000000042
S1130AB00000000000000C000E00060006003C00D0
S1130AC038000000000000000000000000000000EA
S1130AD0000000001F801F800000000000000000D4
S1130AE00000000000000000000000000000000002
S1130AF000000000000000000000000000000000F2
S1130B0000000E000E000E000000000000000000B7
S1130B100000008001800180030003000200060041
S1130B2004000C0008001800180010003000200019
S1130B30600000000000000000000F001FC030C073
S1130B4070E060E063E06F607C60706070E030C013
S1130B503F800F00000000000000000000000000C3
S1130B6006001E00360026000600060006000600E9
S1130B700600060006003FC03FC000000000000061
S1130B800000000000003C007E004300030003005E
S1130B90030006000C001800300020007F807F80D6
S1130BA00000000000000000000000001E003F8064
S1130BB02180018001800F000F8001C000C000C0AF
S1130BC001C03F803E000000000000000000000063
S1130BD0000007000F000B001B003300230063001C
S1130BE0C300FFC0FFC003000300030000000000B7
S1130BF000000000000000003F803F803000300013
S1130C0030003F003F8001C000C000C001C03F80F1
S1130C103E0000000000000000000000000007800B
S1130C201F803800300060006F007F8071C060C09A
S1130C3060C031C03F801F000000000000000000C1
S1130C40000000007FC07FC000C00180018003005D
S1130C500300060006000C000C0018001800000039
S1130C60000000000000000000001F003FC060C042
S1130C7060C071801F001F00338060C060C060C00E
S1130C803F801F0000000000000000000000000082
S1130C901F003F80718060C060C071C03FC01EC033
S1130CA000C0018003803F003C0000000000000001
S1130CB00000000000000000000000000E000E0014
S1130CC00E0000000000000000000E000E000E00E8
S1130CD00000000000000000000000000000000010
S1130CE000000E000E000E000000000000000000D6
S1130CF00C000E00060006003C0038000000000056
S1130D000000000000000100030006000C00300099
S1130D10600030000C000600030001000000000029
S1130D2000000000000000000000000000000000BF
S1130D3000007F807F80000000007F807F800000B3
S1130D40000000000000000000000000000000009F
S1130D500000100018000C000600018000C0018093
S1130D6006000C0018001000000000000000000045
S1130D7000001C001F0003000180018001800F801F
S1130D800F000C000C0000000E000E000E0000000E
S1130D9000000000000000000F001180208060406F
S1130DA040404F409F409B40B340B340B340BF805E
S1130DB09D808000C000400061003E0000000000F3
S1130DC00E000A000A001B001B0011003180318054
S1130DD03F803F8060C060C040C000000000000051
S1130DE00000000000003F803FE03060306030E0F1
S1130DF03F803FC030E03060306030E03FC03F00B3
S1130E000000000000000000000000000F801FC070
S1130E1038403000600060006000600060007000D6
S1130E2038401FC00F8000000000000000000000D8
S1130E3000007E007F80618061C060C060C060C0CF
S1130E4060C060C061C063807F007E00000000005D
S1130E5000000000000000003F803F8030003000B0
S1130E6030003F803F8030003000300030003F8051
S1130E703F800000000000000000000000003F80F0
S1130E803F803000300030003F803F803000300031
S1130E90300030003000300000000000000000008E
S1130EA00000000007C01FE038203000600063E04D
S1130EB063E060606060706038601FE00FC0000035
S1130EC00000000000000000000060C060C060C0BE
S1130ED060C060C07FC07FC060C060C060C060C0D0
S1130EE060C060C0000000000000000000000000BE
S1130EF03FC03FC0060006000600060006000600CC
S1130F000600060006003FC03FC0000000000000CD
S1130F100000000000003F803F80018001800180CC
S1130F200180018001800180018023803F001E0038
S1130F3000000000000000000000000030C031800C
S1130F4033003300360034003C00340036003300F4
S1130F503300318030C000000000000000000000B9
S1130F60000030003000300030003000300030002D
S1130F7030003000300030003F803F80000000002F
S1130F80000000000000000060C071C071C071C0AA
S1130F907BC06AC06AC06EC064C060C060C060C00C
S1130FA060C000000000000000000000000070C0ED
S1130FB070C078C068C068C06CC064C066C062C0DD
S1130FC062C063C061C061C0000000000000000096
S1130FD0000000000F003F80318070C060C060C01E
S1130FE060C060C060C061C031803F801E000000EE
S1130FF0000000000000000000003F803FC030E01F
S11310003060306030E03FC03F00300030003000DE
S1131010300030000000000000000000000000006C
S11310200F001FC030C070E060606060606060608E
S1131030606070E030C03F801F000600071003F0BE
S113104001E0000000003F003F8031C030C030C0EC
S113105031C03F803E003380318030C030C03060CA
S11310600000000000000000000000001F003F809E
S11310706080600070003C001F00038000C000C05E
S113108041C07F803F00000000000000000000001D
S113109000007FE07FE00600060006000600060070
S11310A00600060006000600060006000000000018
S11310B0000000000000000060C060C060C060C0AC
S11310C060C060C060C060C060C060C071C03F806C
S11310D01F00000000000000000000000000C040ED
S11310E0C0C0C0C0608061802180318031001B009D
S11310F01B001A000E000E0000000000000000009B
S113110000000000404040404040404044404E40C9
S11311104A404A405B40514051C071C060C0000029
S11311200000000000000000000060C031803B00AF
S11311301B000E000E000E001F001B0031803180CA
S113114060C0C0E0000000000000000000000000DB
S1131150C030606030C030C019801D800F000600B0
S1131160060006000600060006000000000000005D
S11311700000000000007FC07FC000800100030069
S1131180060004000C001800100030007FC07FC06F
S1131190000000000000000000000000000000004B
S11311A000001F003F80218001801F807F806180BC
S11311B063807F803D80000000000000000000008C
S11311C0300030003000300037803FC038E03060FD
S11311D030603060306030C03FC01F00000000004D
S11311E00000000000000000000000000000078074
S11311F01FC01840300030003000300038401FC09D
S11312000F800000000000000000000000C000C0CB
S113121000C000C00FC03FC030C060C060C060C02C
S113122060C073C03FC01EC000000000000000008A
S1131230000000000000000000001F003F8031C0DB
S113124060C07FC07FC0600070003F801F800000CE
S1131250000000000000000003C007C00C000C00E8
S11312600C007F807F800C000C000C000C000C0034
S11312700C000C0000000000000000000000000052
S11312800000000000000FC01FC031803180318099
S11312901F003E0060007F803FC060C060C07F8050
S11312A03F000000300030003000300037803FC085
S11312B038C030C030C030C030C030C030C030C0A2
S11312C000000000000000000E000E000E000000F0
S11312D000003E003E000600060006000600060070
S11312E006003FC03FC00000000000000000038073
S11312F003800380000000003F803F800180018064
S113130001800180018001800180018001802180B1
S11313103F001E000000300030003000300030C0BC
S11313203180330036003C00360036003300318013
S113133030C0000000000000000000003E003E003D
S11313400600060006000600060006000600060069
S1131350060006003FC03FC000000000000000007F
S1131360000000000000000000006CC07FE0776017
S113137066606660666066606660666066600000FF
S11313800000000000000000000000000000000059
S113139037803FC038C030C030C030C030C030C0EB
S11313A030C030C000000000000000000000000059
S11313B00000000000001F003F8031C060C060C01A
S11313C060C060C071803F801F000000000000000A
S11313D000000000000000000000000037003F8013
S11313E039C030C030C030C030C031C03F803F0051
S11313F03000300030003000000000000000000029
S113140000000FC03FC030C060C060C060C060C09A
S113141073C03FC01EC000C000C000C000C00000B8
S1131420000000000000000037803FC038C030C01A
S11314303000300030003000300030000000000088
S113144000000000000000000000000000000F0089
S11314503F80308030001E00078000C020C03FC0A5
S11314601F000000000000000000000000000C004D
S11314700C000C007FC07FC00C000C000C000C00A2
S11314800C000C000FC007C00000000000000000AA
S11314900000000000000000000030C030C030C078
S11314A030C030C030C030C031C03FC01EC00000AA
S11314B00000000000000000000000000000000028
S11314C060C060C060803180318011001B001A0050
S11314D00A000E00000000000000000000000000F0
S11314E000000000000040404040644066406A4004
S11314F06A402B40294039C031C000000000000080
S113150000000000000000000000000060C0318006
S11315101B001B000E000E001B001B00318061C06D
S113152000000000000000000000000000000000B7
S1131530000060C060C060803180310011001B0079
S11315401A000E000C000C001800F800F000000057
S113155000000000000000003FC03FC00080010008
S113156002000400080018003FC03FC00000000053
S11315700000000000000000000000000000000067
S11315800000000000000000000000000000000057
S11315900000000000000000000000000000000047
S11315A0000000000000000003800380038003802B
S11315B0038003800380038003800380038003800F
S11315C00380038000000000038003800380000088
S11315D0000000000000000000001CE01CE01CE013
S11315E01CE01CE01CE00000000000000000000003
S11315F000000000000000000000000000000000E7
S113160000000000000000000000000000000000D6
S113161006380638063806383FFE3FFE0E700E7058
S11316200C700C707FFC7FFC0C701CE01CE01CE058
S11316301CE000000000000000000000006000C08A
S113164000C007F00FF81CC838C038C038801F80AD
S11316500F8007E001F801BC019C031C031C233824
S11316603FF81FE003000300060000000000000034
S11316703C0C7E18E738E730E760E7607EC03D80C9
S113168001800300070006780CFC1DCE19CE31CE74
S113169031CE60FCC07800000000000000000000B3
S11316A0000007C01FE03CF038703870387038E034
S11316B01DC01F801E003F1C3B9C71DC71D870F85C
S11316C0707078F83FFC0F8E0000000000000000EE
S11316D000000000038003800380038003800380F4
S11316E000000000000000000000000000000000F6
S11316F000000000000000000000000000000000E6
S113170000000000004000E001C003800300070067
S11317100E000E000E001C001C001C001C001C000F
S11317201C001C000E000E000E00070007000380C2
S113173001C000E0004004000E000700038001C067
S113174001C000E000E000E0007000700070007074
S113175000700070007000E000E000E001C0018053
S1131760038007000E00040000000180018009903E
S11317701DB807E0018007E01DB8019001800180D9
S11317800000000000000000000000000000000055
S11317900000000000000000000000000000000045
S11317A00000000000000000038003800380038029
S11317B003807FFC7FFC038003800380038003801D
S11317C00000000000000000000000000000000015
S11317D00000000000000000000000000000000005
S11317E00000000000000000000000000700078067
S11317F0078003800380038007001E001C00000094
S113180000000000000000000000000000000000D4
S11318100000000000001FE01FE0000000000000C6
S113182000000000000000000000000000000000B4
S113183000000000000000000000000000000000A4
S11318400000000000000000000000000000000094
S11318500300078007800300000000000000000070
S11318600000000000180038003000300060006004
S113187000E000C000C001800180030003000700F5
S1131880060006000C000C001C00180018003000B4
S11318900000000000000000000007C01FF01C78DA
S11318A038383838703C707C71DC739C771C7C1C35
S11318B0781C383838383C701FF007C0000000002E
S11318C000000000000000000000000001C007C08C
S11318D01DC039C011C001C001C001C001C001C098
S11318E001C001C001C001C001C01FF81FF8000001
S11318F000000000000000000000000000000F8055
S11319001FE038E0107000700070007000E000E02C
S113191001C0038007000E001C0018003FF83FF8C8
S113192000000000000000000000000000000000B3
S11319301F803FE020F000700070007000E00FC0D6
S11319400FE000F0003800380038003800F03FE0C5
S11319503F800000000000000000000000000000C4
S11319600000007800F801F803B8033806380E3890
S11319700C381838303870387FFE7FFE0038003855
S113198000380038000000000000000000000000E3
S1131990000000003FF03FF0380038003800380005
S11319A038003FC03FF000F80038003800380078B5
S11319B000F03FE03F800000000000000000000055
S11319C000000000000001F807F80F001E001C00D2
S11319D0180038003BF03FF83C3C381C381C381CDD
S11319E01C1C1C380FF007E0000000000000000081
S11319F000000000000000003FFC3FFC001C001839
S1131A00003800300070006000E000C001C00180B8
S1131A1003800300070006000E0000000000000021
S1131A200000000000000000000007E01FF83C3C3C
S1131A30381C381C3C1C1E780FE007F01E781C3C38
S1131A40381C381C381C3C3C1FF807E00000000020
S1131A5000000000000000000000000007C01FF0AC
S1131A603C787838701C701C701C701C383C3FFC2F
S1131A700FDC00180038007000F03FC03F00000089
S1131A800000000000000000000000000000000052
S1131A90000000000000030007800780030000002E
S1131AA0000000000000000003000780078003001E
S1131AB00000000000000000000000000000000022
S1131AC00000000000000000018003C003C001808A
S1131AD000000000000000000000038003C003C0F9
S1131AE001C001C001C003800F000E00000000000F
S1131AF00000000000000020007000E001C00700AA
S1131B000E001C0038001C000E00078001C000E01D
S1131B100070002000000000000000000000000031
S1131B2000000000000000000000000000000000B1
S1131B303FF83FF80000000000003FF83FF80000C5
S1131B400000000000000000000000000000000091
S1131B500000000000000000000008001C000E004F
S1131B60070003C000E000700038007000E001C00E
S1131B7007000E001C000800000000000000000028
S1131B80000000000F000FC001E0007000380038B2
S1131B9000380038007803F003E0038003800380FA
S1131BA0000000000700070007000000000000001C
S1131BB000000000000003E007F80E18180C380CB1
S1131BC03006600661F663F6C736C676CE66CE6624
S1131BD0CE66CE66CEECCFBCC738E00060007000A5
S1131BE038201FE00FC0000000000000038002C086
S1131BF006C006C006E00C600C600C70183018308B
S1131C0018303FF83FF83018701C600C600C00006E
S1131C1000000000000000000000000000003FE0A1
S1131C203FF0387838383838383838703FE03FF08B
S1131C303838381C381C381C381C38383FF03FC042
S1131C400000000000000000000000000000000090
S1131C5003F00FF81E083C0038007000700070009C
S1131C607000700070007000380038001E080FF813
S1131C7007F0000000000000000000000000000069
S1131C8000007F807FE0707070387038701C701CAA
S1131C90701C701C701C701C701C7038703870F0D4
S1131CA07FE07F80000000000000000000000000D2
S1131CB0000000001FF81FF81C001C001C001C0082
S1131CC01C001FF81FF81C001C001C001C001C003A
S1131CD01C001FF81FF800000000000000000000B6
S1131CE00000000000001FF81FF81C001C001C006E
S1131CF01C001C001FF81FF81C001C001C001C000A
S1131D001C001C001C001C0000000000000000005F
S1131D10000000000000000003F80FFC1E043C005B
S1131D2038007800700070FC70FC701C701C701C13
S1131D30381C381C1E1C0FFC03F0000000000000BF
S1131D400000000000000000000070387038703897
S1131D5070387038703870387FF87FF870387038A1
S1131D60703870387038703870387038000000007F
S1131D700000000000000000000000003FF83FF8F1
S1131D800380038003800380038003800380038037
S1131D90038003800380038003803FF83FF8000042
S1131DA000000000000000000000000000003FF000
S1131DB03FF00070007000700070007000700070E0
S1131DC00070007000700070007020E03FC01F8041
S1131DD000000000000000000000000000000000FF
S1131DE038183838387038E038C039803B803B00C8
S1131DF03E003B003B8039C038C038E0387038388A
S1131E00381C00000000000000000000000000007A
S1131E1000001C001C001C001C001C001C001C00FA
S1131E201C001C001C001C001C001C001C001C00CE
S1131E301FF81FF800000000000000000000000070
S1131E40000000003838383838383C783C7834584A
S1131E5036D83698329833983018301830183018ED
S1131E603018301830180000000000000000000096
S1131E700000000000003C383C383C383E383A381A
S1131E803A383B383938393839B839B838B838F885
S1131E9038F83878387838780000000000000000FE
S1131EA0000000000000000007C00FF01C78383864
S1131EB0383C701C701C701C701C701C701C701CD6
S1131EC0783838383C701FE007C00000000000007C
S1131ED0000000000000000000003FE03FF0387800
S1131EE0381C381C381C381C383C38783FF03FC04C
S1131EF0380038003800380038003800000000008E
S1131F0000000000000000000000000007E00FF8DF
S1131F101C3C381C381C700E700E700E700E700E47
S1131F20700E700E781C381C3C381FF007E001C09E
S1131F3001C000E200FF003E0000000000003FC0BE
S1131F403FF03878383838383838383838703FE027
S1131F503FC038E038703870383838383818381C92
S1131F60000000000000000000000000000000006D
S1131F7007F00FF81C083800380038001E001F80D6
S1131F8007E000F8003C001C001C001C20383FF057
S1131F901FE000000000000000000000000000003E
S1131FA000007FFC7FFC03800380038003800380A8
S1131FB00380038003800380038003800380038005
S1131FC00380038000000000000000000000000007
S1131FD000000000701C701C701C701C701C701CB5
S1131FE0701C701C701C701C701C701C701C703C6D
S1131FF038381FF00FC0000000000000000000008F
S1132000000000000000600C700C701C30183018C8
S11320103838183018301C701C600C600EE00EC08C
S113202006C006C007800380000000000000000016
S11320300000000000000000701C701C701C701C6C
S1132040701C701C719C739C739C729C76DC36D8DB
S113205034583C783C7838383838000000000000A8
S113206000000000000000000000701C3838183028
S11320701C700EE007C007C00380038007C00EE099
S11320800EE01C7038383838701CE00E0000000078
S1132090000000000000000000000000E00E701CC2
S11320A0701C383838381C700C600EE006C007C04D
S11320B00380038003800380038003800380000087
S11320C000000000000000000000000000007FF895
S11320D07FF80030006000E000C001C00180030010
S11320E0070006000C001C00180030007FFC7FFC79
S11320F000000000000000000000000000000000DC
S1132100000000000000000007E01FF8103C001C65
S1132110001C07FC1FFC3C1C381C381C3C7C1FFCAE
S11321200F9C0000000000000000000000003800C8
S11321303800380038003800380039E03BF83E38C1
S11321403C1C381C381C381C381C381C383838786F
S11321503FF01FC00000000000000000000000006D
S113216000000000000000000000000003E00FF089
S11321701E101C00380038003800380038003C00BD
S11321801E100FF007E00000000000000000000037
S1132190000000380038003800380038003807F8EC
S11321A01FF83C38383870387038703870387038E8
S11321B0707838F83FB80F380000000000000000C5
S11321C0000000000000000000000000000000000B
S11321D003E00FF01C38181C381C3FFC3FFC38008F
S11321E038003C001E080FF807F000000000000053
S11321F000000000000000FC03FC0380070007004F
S1132200070007007FF87FF80700070007000700B2
S11322100700070007000700070007000000000090
S113222000000000000000000000000000000000AA
S11322300000000007FC1FFC3C7838383838383878
S11322403C781FF03FC0380038003FF01FFC701C82
S1132250701C783C3FF81FE000003800380038005C
S113226038003800380039E03BF03E783C383838E4
S113227038383838383838383838383838383838DA
S113228000000000000000000000000000000180C9
S113229003C00180000000003FC03FC001C001C076
S11322A001C001C001C001C001C001C001C03FF8AC
S11322B03FF80000000000000000000000000000E3
S11322C000C001E000C0000000003FE03FE000E08B
S11322D000E000E000E000E000E000E000E000E0FA
S11322E000E000E000E000E041C07F803F0000002B
S11322F03800380038003800380038003838387072
S113230038E039C03B803F003B803B8039C038E037
S113231038E0387038380000000000000000000089
S113232000003FC03FC001C001C001C001C001C0E6
S113233001C001C001C001C001C001C001C001C091
S113234001C001C03FF83FF8000000000000000099
S11323500000000000000000000000000000000079
S113236077387F7C7BDC739C739C739C739C739C1D
S1132370739C739C739C739C739C0000000000000E
S11323800000000000000000000000000000000049
S1132390000039E03FF03E783C3838383838383877
S11323A03838383838383838383838380000000089
S11323B00000000000000000000000000000000019
S11323C00000000007E01FF03C78383C701C701CD3
S11323D0701C701C701C38383C781FF00FC0000053
S11323E000000000000000000000000000000000E9
S11323F000000000000039E03FF83E383C1C381C67
S1132400381C381C381C381C383838783FF03FC02A
S113241038003800380038003800000000000000A0
S1132420000000000000000007F81FF83C383838AE
S113243070387038703870387038707838F83FB841
S11324400F38003800380038003800380000000029
S1132450000000000000000000001CF81DFC1F1E0E
S11324601E0E1C0E1C001C001C001C001C001C006A
S11324701C001C0000000000000000000000000020
S113248000000000000000000000000007E01FF052
S11324903C1038003C001F000FE001F00038003809
S11324A020783FF01FC00000000000000000000082
S11324B000000000000007000700070007007FF885
S11324C07FF8070007000700070007000700070060
S11324D00700078003F801F8000000000000000076
S11324E000000000000000000000000000000000E8
S11324F03838383838383838383838383838383858
S1132500383838783CF81FF80F3800000000000015
S113251000000000000000000000000000000000B7
S113252000006018701830383030383018601C6083
S11325300C600CC006C006C00780038000000000C9
S11325400000000000000000000000000000000087
S113255000000000600C600C600C618C638C738C58
S113256032CC32CC366C346834681C381C380000E9
S11325700000000000000000000000000000000057
S1132580000000000000701C38381C700C600EE065
S113259007C0038007C006E00C601C703838701C4C
S11325A00000000000000000000000000000000027
S11325B00000000000000000601870383038383027
S11325C0383018601C600C600EC006C006800380A2
S11325D00380030007000E00FC00F0000000000070
S11325E0000000000000000000003FF03FF0006029
S11325F000C001C00180030006000E000C0018009A
S11326003FF03FF000000000000000000000112433
S11326101FBECFEFD0E1DEBFCDBF16E0A0E0B1E03A
S1132620E2E4F9E502C005900D92A230B107D9F7B2
S113263026E0A2E0B6E001C01D92A131B207E1F7A5
S11326400E94E6170C949F2C0C940000CF93DF9308
S1132650CDB7DEB72F970FB6F894DEBF0FBECDBF50
S113266088ED90E021E0FC012083198222C08DEEE8
S113267090E029812295207FFC0120838FEE90E059
S1132680FC0110828EEE90E0FC01108287EF90E056
S1132690FC01108286EF90E0FC01108285EF90E04F
S11326A0FC01108284EF90E0FC01108289818F5F2D
S11326B0898389818630D8F282EE90E02EE0FC0195
S11326C0208383EE90E024E0FC01208384EE90E0FC
S11326D023E1FC0120838EED90E020E3FC012083C4
S11326E08BED90E020EAFC01208388ED90E022E06D
S11326F0FC01208380E090E0A8E4B2E48A839B8319
S1132700AC83BD8320E030E04AE755E46A817B81F5
S11327108C819D810E94592BDC01CB018E839F8388
S1132720A887B98720E030E040E85FE36E817F81CD
S1132730888599850E940F2A88232CF481E090E0F3
S11327409B878A873FC020E03FEF4FE757E46E81C5
S11327507F81888599850E94FC2A18164CF520E013
S113276030E040E251E46A817B818C819D810E944A
S1132770592BDC01CB01BC01CD010E941B2ADC01D9
S1132780CB019B878A870FC080E991E09D878C8766
S11327908C859D850197F1F79D878C878A859B851C
S11327A001979B878A878A859B85892B69F714C043
S11327B06E817F81888599850E941B2ADC01CB016B
S11327C09B878A878A859B859F878E878E859F8531
S11327D00197F1F79F878E8789ED90E0FC01808156
S11327E0882F90E084709927892B11F481E001C02F
S11327F080E02F960FB6F894DEBF0FBECDBFDF91F9
S1132800CF910895EF92FF920F931F93CF93DF938D
S1132810CDB7DEB72A970FB6F894DEBF0FBECDBF93
S113282089836A832B833C834D835E83EF82F8869E
S113283009871A878DEE90E029812295207FFC017B
S1132840208384EF90E02B81220F220F220FFC01C2
S1132850208325EF30E08B819C81AD81BE8168941B
S113286014F8B695A795979587951694D1F7F9011D
S1132870808326EF30E08B819C81AD81BE81072E61
S11328807DE0B695A795979587957A95D1F7702DA4
S1132890F901808327EF30E08B819C81AD81BE817B
S11328A0072E75E1B695A795979587957A95D1F7F3
S11328B0702DF901808380EF90E02F81220F220F89
S11328C0220FFC01208321EF30E08F819885A985B8
S11328D0BA85689414F8B695A79597958795169434
S11328E0D1F7F901808322EF30E08F819885A985A3
S11328F0BA85072E7DE0B695A795979587957A9525
S1132900D1F7702DF901808323EF30E08F81988512
S1132910A985BA85072E75E1B695A79597958795EC
S11329207A95D1F7702DF90180838FEE90E02A819A
S11329302069FC01208300002A960FB6F894DEBFBC
S11329400FBECDBFDF91CF911F910F91FF90EF90FC
S11329500895EF920F931F93CF93DF93CDB7DEB714
S113296069970FB6F894DEBF0FBECDBF898B6A8B13
S11329705C8B4B8B0D8B1E8B2F8B388FE98E8DEEE2
S113298090E029892295207FFC0120838EEE90E03F
S11329902EEE30E0F90120812F7BFC01208384EFAF
S11329A090E0FC01108280EF90E02D89220F220F2D
S11329B0220FFC01208321EF30E08D899E89AF89AD
S11329C0B88D689414F8B695A7959795879516943D
S11329D0D1F7F901808322EF30E08D899E89AF8998
S11329E0B88D072E7DE0B695A795979587957A952E
S11329F0D1F7702DF901808323EF30E08D899E8912
S1132A00AF89B88D072E75E1B695A79597958795EB
S1132A107A95D1F7702DF9018083198210C08AEF5D
S1132A2090E02981222F30E04B895C89240F351FE7
S1132A30F9012081FC01208389818F5F8983998139
S1132A408A89981760F38FEE90E02A892065FC014B
S1132A5020831A8280C08EEE90E0FC018081882F52
S1132A6090E080749927892B09F07BC080E090E086
S1132A70A0E8BFE38B839C83AD83BE8320E030E07A
S1132A804AE755E46B817C818D819E810E94592B9C
S1132A90DC01CB018F839887A987BA8720E030E0D7
S1132AA040E85FE36F81788589859A850E940F2AC3
S1132AB088232CF481E090E09C878B873FC020E042
S1132AC03FEF4FE757E46F81788589859A850E94A7
S1132AD0FC2A18164CF520E030E040E251E46B810A
S1132AE07C818D819E810E94592BDC01CB01BC012C
S1132AF0CD010E941B2ADC01CB019C878B870FC070
S1132B0080E991E09E878D878D859E850197F1F7F9
S1132B109E878D878B859C8501979C878B878B856A
S1132B209C85892B69F714C06F81788589859A857E
S1132B300E941B2ADC01CB019C878B878B859C859B
S1132B40988B8F878F8598890197F1F7988B8F875A
S1132B508A818F5F8A839A81898D981708F47BCF45
S1132B6001C00000000069960FB6F894DEBF0FBEE6
S1132B70CDBFDF91CF911F910F91EF900895CF9327
S1132B80DF931F92CDB7DEB7198220C08DEE90E09F
S1132B9029812295207FFC0120838EEE90E0FC01A8
S1132BA08081882F90E080749927892B51F48FEECF
S1132BB090E0FC018081882F90E080749927892B14
S1132BC011F4898107C089818F5F89838981843069
S1132BD0E8F28FEF0F90DF91CF9108951F920F923B
S1132BE000905F000F9211242F938F939F93EF9384
S1132BF0FF93CF93DF93CDB7DEB783E590E022E078
S1132C00FC0120830000DF91CF91FF91EF919F9110
S1132C108F912F910F9000925F000F901F90189545
S1132C201F920F9200905F000F921124EF92FF9277
S1132C300F931F932F933F934F935F936F937F93C0
S1132C408F939F93AF93BF93EF93FF93CF93DF93B0
S1132C50CDB7DEB780EE90E0FC018081882F90E054
S1132C6080729927892B09F4D2C08DEE90E020E57B
S1132C70FC0120838AEF90E0FC018081882F90E0A2
S1132C80982F882790930306809302068AEF90E09A
S1132C90FC018081282F30E0809102069091030688
S1132CA0820F931F9093030680930206809102067D
S1132CB09091030624E6289FA001299F500D11241A
S1132CC02FEF31E0CA01B9010E94FB2BCB01909395
S1132CD00306809302068AEF90E0FC018081882F2E
S1132CE090E0982F8827092E000CAA0BBB0B809329
S1132CF0040690930506A0930606B09307068AEF90
S1132D0090E0FC018081282F30E040E050E0809189
S1132D10040690910506A0910606B0910706820F5D
S1132D20931FA41FB51F8093040690930506A093D8
S1132D300606B09307068AEF90E0FC018081882F95
S1132D4090E0982F8827092E000CAA0BBB0B8093C8
S1132D50080690930906A0930A06B0930B068AEF1F
S1132D6090E0FC018081282F30E040E050E0809129
S1132D70080690910906A0910A06B0910B06820FED
S1132D80931FA41FB51F8093080690930906A09370
S1132D900A06B0930B068AEF90E0FC018081882F2D
S1132DA090E0982F8827092E000CAA0BBB0B809368
S1132DB00C0690930D06A0930E06B0930F068AEFAF
S1132DC090E0FC018081282F30E040E050E08091C9
S1132DD00C0690910D06A0910E06B0910F06820F7D
S1132DE0931FA41FB51F80930C0690930D06A09308
S1132DF00E06B0930F06E12CF12C00E410E020E065
S1132E0030E040E450E068E085E00E9402148DEE7A
S1132E1090E020E5FC0120838EEE90E02EEE30E081
S1132E20F90120812F7DFC0120838DEE90E020E4C8
S1132E30FC0120838EEE90E02EEE30E0F90120813B
S1132E402F7DFC0120830000DF91CF91FF91EF9152
S1132E50BF91AF919F918F917F916F915F914F91AE
S1132E603F912F911F910F91FF90EF900F9000923F
S1132E705F000F901F901895CF93DF93CDB7DEB707
S1132E808CE790E020E6FC0120838CE790E02CE7BF
S1132E9030E0F90120812F7DFC0120838AE790E056
S1132EA027E8FC0120830000DF91CF910895CF93A0
S1132EB0DF9300D01F92CDB7DEB78B838CE790E011
S1132EC0FC018081982F907E8B818F71892B8B835D
S1132ED08CE790E02B81FC0120838AE790E02AE7CD
S1132EE030E0F90120812064FC01208300008AE79E
S1132EF090E0FC018081882F90E080719927892BD4
S1132F00B1F31A82198288E790E0FC018081882F4E
S1132F1090E09A83898389E790E0FC018081882F7F
S1132F2090E083709927982F88279C0189819A8142
S1132F30822B932B9A8389838AE790E02AE730E0F7
S1132F40F90120812061FC01208389819A810F90FD
S1132F500F900F90DF91CF910895CF93DF93CDB76A
S1132F60DEB785E590E025E530E0F90120812F7793
S1132F70FC0120838CE490E020E5FC0120838DE4B7
S1132F8090E021E0FC0120838EE490E0FC011082BB
S1132F900000DF91CF910895CF93DF931F92CDB7B7
S1132FA0DEB789838EE490E02981FC012083000050
S1132FB08DE490E0FC0180818823D4F78EE490E0D6
S1132FC0FC0180810F90DF91CF910895AF92CF9251
S1132FD0EF92FF920F931F93CF93DF93CDB7DEB79A
S1132FE0CB59D1090FB6F894DEBF0FBECDBF84E232
S1132FF090E023EEFC0120838AE290E029E0FC01CA
S1133000208385E290E025E230E0F9012081206808
S1133010FC0120830E942613E12CF12C00E410E033
S113302020E030E040E450E068E085E00E940214D3
S11330300E943C170E94AD170E944029789480E0BA
S11330400E946E2086ED90E00E94E52888EB9BE0CC
S11330500E94521E80E00E946E208CE0E0EBF5E0BE
S1133060DE01D69601900D928A95E1F7CE018E5B32
S11330709F4F27E0ECEBF5E0DC0101900D922A95DF
S1133080E1F7CE01875B9F4F29E0E3ECF5E0DC013B
S113309001900D922A95E1F7CE018E5A9F4F29E0B7
S11330A0ECECF5E0DC0101900D922A95E1F7CE01FC
S11330B0855A9F4F2EE3FC012083CE01855A9F4FF2
S11330C02EE3FC012183CE01855A9F4F2EE3FC01A0
S11330D02283CE01855A9F4F2EE3FC012383CE0128
S11330E0815A9F4F2CE3FC012083CE01815A9F4FCC
S11330F02CE3FC012183CE01815A9F4F2CE3FC0178
S11331002283CE01815A9F4F2CE3FC012383CE01FD
S11331108D599F4F29E0E5EDF5E0DC0101900D921A
S11331202A95E1F7CE0184599F4F25E0EEEDF5E0B5
S1133130DC0101900D922A95E1F7CE018F589F4F43
S11331402EE0E3EEF5E0DC0101900D922A95E1F723
S1133150CE0181589F4F2CE0E1EFF5E0DC010190B6
S11331600D922A95E1F7CE0185579F4F25E0EDEFAB
S1133170F5E0DC0101900D922A95E1F7CE0180572C
S11331809F4F2CE3FC012083CE018F569F4F2EE3EB
S1133190FC0120831C861B861A8219821C821B82D6
S11331A01E821D821E861D86188A1F861A8A198A07
S11331B01C8A1B8A1E8A1D8A188E1F8A81E090E051
S11331C098878F831A8E198E1C8E1B8E1A861986E9
S11331D01E8E1D8E0E94CD1D83E00E94571798A35A
S11331E08F8F8F8D98A1969587959695879528E1D1
S11331F030E0B9010E940F2CCB019AA389A382E08D
S11332000E9457179CA38BA38BA19CA1969587958D
S11332109695879528E130E0B9010E940F2CCB01E7
S11332209EA38DA30E94BF158FA3E12C01E010E0A3
S113323020E430E040E156E061E080E00E94A9141F
S113324080E090E0A8ECB2E488A799A7AAA7BBA75E
S113325020E030E04AE755E468A579A58AA59BA556
S11332600E94592BDC01CB018CA79DA7AEA7BFA759
S113327020E030E040E85FE36CA57DA58EA59FA526
S11332800E940F2A88232CF481E090E099AB88AB4C
S11332903FC020E03FEF4FE757E46CA57DA58EA526
S11332A09FA50E94FC2A18164CF520E030E040E26D
S11332B051E468A579A58AA59BA50E94592BDC0138
S11332C0CB01BC01CD010E941B2ADC01CB0199ABCF
S11332D088AB0FC080E991E09BAB8AAB8AA99BA91C
S11332E00197F1F79BAB8AAB88A999A9019799AB90
S11332F088AB88A999A9892B69F714C06CA57DA509
S11333008EA59FA50E941B2ADC01CB0199AB88AB3B
S113331088A999A99DAB8CAB8CA99DA90197F1F7BC
S11333209DAB8CAB89A19AA129853A8528173907C9
S113333021F081E090E098878F8389A19AA1039777
S113334009F0EAC08F819885019709F043C0188677
S11333501F8229A13AA189859A8582179307A0F42F
S1133360CE018F569F4F0F2EF0EFAF2EF02D0F2E64
S1133370FFE0CF2EF02DEE24E394F12C0FE721E1B2
S113338040E66AE30E946E2729A13AA189859A85BD
S113339028173907A0F4CE0180579F4F0F2EF0EF66
S11333A0AF2EF02D0F2EFFE0CF2EF02DEE24E39460
S11333B0F12C0FE721E145E160E00E946E2789A12D
S11333C09AA19A87898784EF91E00E94521E80E037
S11333D00E946E2089819A81019711F41A821982C0
S11333E080910206909103068436910521F481E0D0
S11333F090E09A83898380910206909103060A974C
S113340020F481E090E09C838B838B819C810197E5
S113341011F41C821B8280910206909103069C0188
S1133420CE018E569F4F4AE050E0BC01C9010E9474
S11334305F2C8091020690910306892B21F18091E3
S1133440020690910306CC01A0E0B0E0BC01CD01DE
S11334500E944A2ADC01CB01BC01CD010E94012B50
S1133460DC01CB0120E030E040E85FE3BC01CD01AA
S11334700E94A329DC01CB01BC01CD010E94142AC6
S1133480DC01CB0102C081E090E09C8F8B8FCE01E8
S113349081589F4F0F2EF0EFAF2EF02D0F2EFFE02F
S11334A0CF2EF02D0F2EFCE0EF2EF12CF02D0FE798
S11334B026E144E665E00E94BC27CE018E569F4F6C
S11334C025E048E2BC0181E00E9431272B8D3C8D30
S11334D0CE018E569F4F0F2EF0EFAF2EF02D0F2EF4
S11334E0FFE0CF2EF02D79010FE726E144E66DE2EF
S11334F00E94BC27CE018F569F4F6894AA24A6F839
S11335006894CC24C2F8EE24E394F12C0FE721E173
S113351040E66AE30E946E2789A19AA1049709F004
S11335200EC18F819885019709F043C018861F82C8
S113353029A13AA189859A8582179307A0F4CE011F
S11335408F569F4F0F2EF0EFAF2EF02D0F2EFFE072
S1133550CF2EF02DEE24E394F12C0FE721E140E689
S11335606AE30E946E2729A13AA189859A852817C2
S11335703907A0F4CE0180579F4F0F2EF0EFAF2EE6
S1133580F02D0F2EFFE0CF2EF02DEE24E394F12C3E
S11335900FE721E145E160E00E946E2789A19AA12D
S11335A09A87898784EF91E00E94521E80E00E94EE
S11335B06E208091040690910506A0910606B091B4
S11335C0070683369105A105B10520F481E090E05A
S11335D09E838D838091040690910506A091060632
S11335E0B0910706873E9340A105B10520F481E020
S11335F090E09E838D838D819E81019711F41E82BC
S11336001D828091040690910506A0910606B09152
S113361007069C01CE018E569F4F4AE050E0BC0144
S1133620C9010E945F2C8091040690910506A09127
S11336300606B0910706892B8A2B8B2B29F18091E2
S1133640040690910506A0910606B0910706BC01F8
S1133650CD010E944A2ADC01CB01BC01CD010E94AC
S1133660012BDC01CB0120E030E040E85FE3BC014A
S1133670CD010E94A329DC01CB01BC01CD010E9434
S1133680142ADC01CB0102C081E090E09C8F8B8F77
S1133690CE018E569F4F25E048E2BC0181E00E9496
S11336A03127CE0184599F4F0F2EF0EFAF2EF02D0E
S11336B00F2EFFE0CF2EF02D0F2EF5E0EF2EF12C84
S11336C0F02D0FE726E144E665E00E94BC272B8D30
S11336D03C8DCE018E569F4F0F2EF0EFAF2EF02D66
S11336E00F2EFFE0CF2EF02D79010FE726E144E6FF
S11336F06DE20E94BC27CE0180579F4F6894AA2494
S1133700A6F86894CC24C2F8EE24E394F12C0FE7D5
S113371021E145E160E00E946E27CE018F569F4F64
S11337206894AA24A6F86894CC24C2F8EE24E394FE
S1133730F12C0FE721E140E66AE30E946E2789A19C
S11337409AA1059709F0E6C08F819885019709F041
S113375043C018861F8229A13AA189859A858217B8
S11337609307A0F4CE018F569F4F0F2EF0EFAF2E8C
S1133770F02D0F2EFFE0CF2EF02DEE24E394F12C4C
S11337800FE721E140E66AE30E946E2729A13AA1EE
S113379089859A8528173907A0F4CE0180579F4F51
S11337A00F2EF0EFAF2EF02D0F2EFFE0CF2EF02DC9
S11337B0EE24E394F12C0FE721E145E160E00E945F
S11337C06E2789A19AA19A87898784EF91E00E9444
S11337D0521E80E00E946E20809108069091090696
S11337E0A0910A06B0910B069C01CE018E569F4F04
S11337F04AE050E0BC01C9010E945F2C8091080698
S113380090910906A0910A06B0910B06892B8A2B88
S11338108B2B29F18091080690910906A0910A0644
S1133820B0910B06BC01CD010E944A2ADC01CB01F8
S1133830BC01CD010E94012BDC01CB0120E030E072
S113384040E85FE3BC01CD010E94A329DC01CB0168
S1133850BC01CD010E94142ADC01CB0102C081E02D
S113386090E09C8F8B8FCE018E569F4F25E048E2CF
S1133870BC0181E00E943127CE018F589F4F0F2E4B
S1133880F0EFAF2EF02D0F2EFFE0CF2EF02D0F2EE8
S1133890FEE0EF2EF12CF02D0FE726E144E665E083
S11338A00E94BC272B8D3C8DCE018E569F4F0F2E30
S11338B0F0EFAF2EF02D0F2EFFE0CF2EF02D79017B
S11338C00FE726E144E660E30E94BC27CE0180575F
S11338D09F4F6894AA24A6F86894CC24C2F8EE24D6
S11338E0E394F12C0FE721E145E160E00E946E27AB
S11338F0CE018F569F4F6894AA24A6F86894CC24CE
S1133900C2F8EE24E394F12C0FE721E140E66AE3E8
S11339100E946E2789A19AA1069709F0DEC08F81C3
S11339209885019709F043C018861F8229A13AA1FE
S113393089859A8582179307A0F4CE018F569F4FED
S11339400F2EF0EFAF2EF02D0F2EFFE0CF2EF02D27
S1133950EE24E394F12C0FE721E140E66AE30E94B0
S11339606E2729A13AA189859A8528173907A0F4D9
S1133970CE0180579F4F0F2EF0EFAF2EF02D0F2E5C
S1133980FFE0CF2EF02DEE24E394F12C0FE721E19C
S113399045E160E00E946E2789A19AA19A878987F0
S11339A084EF91E00E94521E80E00E946E2080917C
S11339B00C0690910D06A0910E06B0910F0628EE0C
S11339C033E040E050E0BC01CD010E94232CDA0139
S11339D0C9019C01CE018E569F4F4AE050E0BC01C4
S11339E0C9010E945F2CCE018E569F4F2EE2FC012E
S11339F021838E010E561F4F0E5F1F4F80910C06C0
S1133A0090910D06A0910E06B0910F0628EE33E0BA
S1133A1040E050E0BC01CD010E94232CDC01CB012D
S1133A204AE050E0B8010E945F2CCE018E569F4FB1
S1133A3025E048E2BC0181E00E943127CE018D5986
S1133A409F4F0F2EF0EFAF2EF02D0F2EFFE0CF2E55
S1133A50F02D0F2EF9E0EF2EF12CF02D0FE726E1DB
S1133A6044E665E00E94BC27CE018E569F4F0F2E80
S1133A70F0EFAF2EF02D0F2EFFE0CF2EF02D689437
S1133A80EE24E2F8F12C0FE726E144E66DE20E9411
S1133A90BC27CE0180579F4F6894AA24A6F8689447
S1133AA0CC24C2F8EE24E394F12C0FE721E145E1A4
S1133AB060E00E946E27CE018F569F4F6894AA241F
S1133AC0A6F86894CC24C2F8EE24E394F12C0FE712
S1133AD021E140E66AE30E946E2789A19AA1079733
S1133AE00CF478CB8F819885019709F043C0188630
S1133AF01F8229A13AA189859A8582179307A0F488
S1133B00CE018F569F4F0F2EF0EFAF2EF02D0F2EBC
S1133B10FFE0CF2EF02DEE24E394F12C0FE721E10A
S1133B2040E66AE30E946E2729A13AA189859A8515
S1133B3028173907A0F4CE0180579F4F0F2EF0EFBE
S1133B40AF2EF02D0F2EFFE0CF2EF02DEE24E394B8
S1133B50F12C0FE721E145E160E00E946E2789A185
S1133B609AA19A87898784EF91E00E94521E80E08F
S1133B700E946E20CE0180579F4F6894AA24A6F815
S1133B806894CC24C2F8EE24E394F12C0FE721E1ED
S1133B9045E160E00E946E271DCBCF93DF93CDB744
S1133BA0DEB76D970FB6F894DEBF0FBECDBF198296
S1133BB082E00E9457179B838A8383E00E945717F1
S1133BC09D838C838C819D81969587959695879509
S1133BD09C01ABEABAEA0E94452C929582958F70BB
S1133BE089279F7089279F838E838A819B819695DD
S1133BF08795969587959C01ABEABAEA0E94452C75
S1133C00929582958F7089279F70892799878887D5
S1133C109E012C5E3F4F888599854AE050E0B901AA
S1133C200E945F2C9E01265F3F4F8E819F814AE058
S1133C3050E0B9010E945F2C9E012C5E3F4FCE01E3
S1133C400A96B9010E94542C8E819F818295929587
S1133C50907F9827807F9827982F8885892B809339
S1133C60100600006D960FB6F894DEBF0FBECDBFF0
S1133C70DF91CF910895CF93DF9300D0CDB7DEB716
S1133C809A838983000089819A819C01215031099A
S1133C903A832983892BB9F700000F900F90DF91A5
S1133CA0CF910895CF93DF9300D000D0CDB7DEB786
S1133CB09C838B831A82198209C080E694E00E9457
S1133CC03B1E89819A8101969A83898329813A814D
S1133CD08B819C812817390780F300000F900F9087
S1133CE00F900F90DF91CF910895CF93DF931F92A0
S1133CF0CDB7DEB7898385E290E025E230E0F901B3
S1133D0020812F7DFC0120838BE290E02BE230E0C8
S1133D10F90120812E7FFC0120838981882F90E086
S1133D200E94CC1785E290E025E230E0F901208181
S1133D302062FC0120838BE290E02BE230E0F90169
S1133D4020812160FC01208300000F90DF91CF913E
S1133D500895CF93DF931F92CDB7DEB789838BE2AB
S1133D6090E02BE230E0F90120812E7FFC012083DA
S1133D7085E290E025E230E0F90120812062FC0137
S1133D8020838981882F90E00E94CC1785E290E0FF
S1133D9025E230E0F90120812062FC0120838BE2DE
S1133DA090E02BE230E0F90120812160FC012083C6
S1133DB000000F90DF91CF910895CF93DF9300D04F
S1133DC0CDB7DEB789836A8385E10E94751E898138
S1133DD00E94A91E8A810E94A91E00000F900F90C4
S1133DE0DF91CF910895CF93DF9300D0CDB7DEB7A5
S1133DF089836A8385E70E94751E89810E94A91EB2
S1133E008A810E94A91E00000F900F90DF91CF912C
S1133E100895CF93DF93CDB7DEB78CE50E94751E6E
S1133E200000DF91CF910895CF93DF931F92CDB718
S1133E30DEB7898380EA0E94751E89810E94A91ECB
S1133E4081E10E94A91E00000F90DF91CF91089597
S1133E50CF93DF931F92CDB7DEB7898381EA0E94A7
S1133E60751E89810E94A91E00000F90DF91CF91D9
S1133E700895CF93DF931F92CDB7DEB7898382EA8B
S1133E800E94751E89810E94A91E00000F90DF9177
S1133E90CF910895CF93DF931F92CDB7DEB7898377
S1133EA08981846A0E94751E00000F90DF91CF9172
S1133EB00895CF93DF9300D01F92CDB7DEB78983E7
S1133EC06A834B838981886A0E94751E898188234D
S1133ED031F48A810E94A91E8B810E94A91E0000D0
S1133EE00F900F900F90DF91CF910895CF93DF93B0
S1133EF01F92CDB7DEB789838BEA0E94751E898134
S1133F000E94A91E00000F90DF91CF910895CF93D6
S1133F10DF931F92CDB7DEB7898389818E6A0E94B1
S1133F20751E00000F90DF91CF910895CF93DF931A
S1133F301F92CDB7DEB7898381EB0E94751E8981FC
S1133F400E94A91E00000F90DF91CF910895CF9396
S1133F50DF931F92CDB7DEB7898383EB0E94751E72
S1133F6089810E94A91E00000F90DF91CF910895CE
S1133F70CF93DF9300D0CDB7DEB789836A8384EB18
S1133F800E94751E8981806A0E94A91E8A818560AB
S1133F900E94A91E00000F900F90DF91CF91089509
S1133FA0CF93DF931F92CDB7DEB7898385EB0E9451
S1133FB0751E89810E94A91E00000F90DF91CF9188
S1133FC00895CF93DF931F92CDB7DEB7898386EB35
S1133FD00E94751E89810E94A91E00000F90DF9126
S1133FE0CF910895CF93DF931F92CDB7DEB7898326
S1133FF08BEB0E94751E89810E94A91E00000F9000
S1134000DF91CF910895CF93DF931F92CDB7DEB7A1
S113401089838EEB0E94751E89810E94A91E00006F
S11340200F90DF91CF910895CF93DF931F92CDB777
S1134030DEB7898381EC0E94751E89810E94A91EC6
S113404000000F90DF91CF910895CF93DF931F92DB
S1134050CDB7DEB7898387EC0E94751E89810E94E3
S1134060A91E00000F90DF91CF910895CF93DF93A5
S11340701F92CDB7DEB789838AEC0E94751E8981B1
S11340800E94A91E00000F90DF91CF910895CF9355
S1134090DF931F92CDB7DEB7898381ED0E94751E31
S11340A0898182680E94A91E80E20E94A91E0000E4
S11340B00F90DF91CF910895CF93DF931F92CDB7E7
S11340C0DEB789838DEF0E94751E898182610E940B
S11340D0A91E00000F90DF91CF910895CF93DF9335
S11340E000D01F92CDB7DEB78B8367E780E00E94D4
S11340F0DD1E6FE780E00E94F31E0E94091F1982F3
S11341000EC01A8206C08B810E94A91E8A818F5F0D
S11341108A838A818837B8F389818F5F898389810B
S113412088237CF700000F900F900F90DF91CF91C0
S11341300895CF93DF93CDB7DEB72D970FB6F894DC
S1134140DEBF0FBECDBF8A876B874C872D878B85DB
S1134150803219F480E68B8703C08B8580528B876D
S11341608D85805F8F838A85882F90E0019791F4F5
S11341708B85882F90E09C0121503109C901880F5B
S1134180991F880F991F820F931F80509F4F9A8306
S11341908983000085E10E94141F1B820DC389815D
S11341A09A81FC018081888789819A8101969A830A
S11341B089838B81813021F41C821D821E821EC062
S11341C089819A81FC0180818C8389819A810196FD
S11341D09A83898389819A81FC0180818D83898175
S11341E09A8101969A83898389819A81FC018081CD
S11341F08E8389819A8101969A8389838C859CE137
S1134200980F8C85845E692F0E94DD1E8D85895FE1
S1134210682F8D850E94F31E0E94091F8885882FB0
S113422090E08170992782959295907F9827807F5E
S11342309827982F8C818170892B89878985882F6D
S113424090E0880F991F982F8985292F282B89851D
S1134250882F90E0880F991F880F991F282B898534
S1134260882F90E0880F991F880F991F880F991F36
S1134270822B898789850E94A91E8D81882F90E0D1
S11342808170992782959295907F9827807F9827AF
S1134290982F8E818170892B89878985882F90E05A
S11342A0880F991F982F8985292F282B8985882F76
S11342B090E0880F991F880F991F282B8985882FD4
S11342C090E0880F991F880F991F880F991F822BE0
S11342D0898789850E94A91E8885882F90E082702D
S11342E09927880F991F880F991F880F991F282FC6
S11342F08C81882F90E08270992795958795822BE1
S113430089878985882F90E0880F991F982F898540
S1134310292F282B8985882F90E0880F991F880FD3
S1134320991F282B8985882F90E0880F991F880F63
S1134330991F880F991F822B898789850E94A91E3E
S11343408D81882F90E082709927880F991F880F9C
S1134350991F880F991F282F8E81882F90E08270D3
S1134360992795958795822B89878985882F90E051
S1134370880F991F982F8985292F282B8985882FA5
S113438090E0880F991F880F991F282B8985882F03
S113439090E0880F991F880F991F880F991F822B0F
S11343A0898789850E94A91E8885882F90E084705A
S11343B09927880F991F880F991F282F8C81882F80
S11343C090E0847099279595879595958795822B8C
S11343D089878985882F90E0880F991F982F898570
S11343E0292F282B8985882F90E0880F991F880F03
S11343F0991F282B8985882F90E0880F991F880F93
S1134400991F880F991F822B898789850E94A91E6D
S11344108D81882F90E084709927880F991F880FC9
S1134420991F282F8E81882F90E084709927959565
S1134430879595958795822B89878985882F90E024
S1134440880F991F982F8985292F282B8985882FD4
S113445090E0880F991F880F991F282B8985882F32
S113446090E0880F991F880F991F880F991F822B3E
S1134470898789850E94A91E8885882F90E0887085
S11344809927880F991F282F8C81882F90E0887096
S11344909927959587959595879595958795822BD9
S11344A089878985882F90E0880F991F982F89859F
S11344B0292F282B8985882F90E0880F991F880F32
S11344C0991F282B8985882F90E0880F991F880FC2
S11344D0991F880F991F822B898789850E94A91E9D
S11344E08D81882F90E088709927880F991F282F35
S11344F08E81882F90E0887099279595879595955A
S1134500879595958795822B89878985882F90E053
S1134510880F991F982F8985292F282B8985882F03
S113452090E0880F991F880F991F282B8985882F61
S113453090E0880F991F880F991F880F991F822B6D
S1134540898789850E94A91E8885882F90E08071BB
S11345509927880F991F880F991F880F991F282F53
S11345608C81882F90E08071992795958795822B6F
S113457089878985982F96958985982B898586952D
S11345808695982B8985869586958695892B898726
S113459089850E94A91E8D81882F90E080719927BA
S11345A0880F991F880F991F880F991F282F8E81B4
S11345B0882F90E08071992795958795822B89871C
S11345C08985982F96958985982B898586958695D2
S11345D0982B8985869586958695892B89878985E3
S11345E00E94A91E8885882F90E080729927880FE1
S11345F0991F880F991F282F8C81882F90E0807233
S113460099279595879595958795822B898789858F
S1134610982F96958985982B898586958695982BCC
S11346208985869586958695892B898789850E94B3
S1134630A91E8D81882F90E080729927880F991F79
S1134640880F991F282F8E81882F90E080729927D8
S11346509595879595958795822B89878985982F38
S113466096958985982B898586958695982B898535
S1134670869586958695892B898789850E94A91EAA
S11346808885882F90E080749927880F991F282F98
S11346908C81882F90E080749927959587959595BE
S11346A0879595958795822B89878985982F9695E7
S11346B08985982B898586958695982B89858695F5
S11346C086958695892B898789850E94A91E8D8167
S11346D0882F90E080749927880F991F282F8E8146
S11346E0882F90E08074992795958795959587955F
S11346F095958795822B89878985982F96958985A5
S1134700982B898586958695982B89858695869597
S11347108695892B898789850E94A91E8885282FDB
S113472020788C81882F90E08078992795958795BB
S1134730959587959595879595958795822B8987E6
S11347408985982F96958985982B89858695869550
S1134750982B8985869586958695892B8987898561
S11347600E94A91E8D81282F20788E81882F90E0A9
S113477080789927959587959595879595958795AB
S113478095958795822B89878985982F9695898514
S1134790982B898586958695982B89858695869507
S11347A08695892B898789850E94A91E8C858F5FB0
S11347B08C878B818F5F8B838B81823008F4EFCC65
S11347C084E10E94141F00002D960FB6F894DEBFFA
S11347D00FBECDBFDF91CF910895CF92EF920F938B
S11347E0CF93DF93CDB7DEB7A0970FB6F894DEBFB3
S11347F00FBECDBF8A8F6B8F4C8F2D8F0E8FEF8E98
S1134800C8A28C8D9CE1980F8B8D845E692F0E94C9
S1134810DD1E8D8D875E682F8D8D0E94F31E0E9494
S1134820091F1F821E821A8219821A821982A7C145
S11348301C821B8286C11D828B819C8104970CF093
S113484078C023E030E08B819C81A901481B590B7F
S1134850CA01880F991F9C012F5F3F4F81E090E0B0
S1134860FC0102C0EE0FFF1F2A95E2F79F018A8D1B
S1134870882F90E0BC016052710989819A81880F68
S1134880991FE2E3E69FA001E79F500D1124840FD6
S1134890951F8C589A4E9987888788859985FC013D
S11348A084918A878A85882F90E08223932318161F
S11348B0190624F49D8188A1890F8D8323E030E0BB
S11348C08B819C81A901481B590BCA019C01220FB1
S11348D0331F81E090E0FC0102C0EE0FFF1F2A9518
S11348E0E2F79F018A8D882F90E0BC016052710924
S11348F089819A81880F991FE2E3E69FA001E79FCF
S1134900500D1124840F951F8C589A4E9C878B87C9
S11349108B859C85FC0184918D878D85882F90E003
S1134920822393231816190624F49D818F8D890FF1
S11349308D838B819C8104970CF481C08B819C8135
S113494008970CF07CC027E030E08B819C81A901A2
S1134950481B590BCA01880F991F9C012F5F3F4FB9
S113496081E090E0FC0102C0EE0FFF1F2A95E2F700
S11349709F018A8D882F90E0BC0160527109898162
S11349809A81880F991F0196E2E3E69FA001E79FB1
S1134990500D1124840F951F8C589A4E9F878E8733
S11349A08E859F85FC018491888B8889882F90E06F
S11349B0822393231816190624F49D8188A1890F54
S11349C08D8327E030E08B819C81A901481B590B22
S11349D0CA019C01220F331F81E090E0FC0102C058
S11349E0EE0FFF1F2A95E2F79F018A8D882F90E032
S11349F0BC016052710989819A81880F991F0196BF
S1134A00E2E3E69FA001E79F500D1124840F951F58
S1134A108C589A4E9A8B898B89899A89FC01849146
S1134A208B8B8B89882F90E0822393231816190689
S1134A300CF07FC09D818F8D890F8D837AC028E013
S1134A4030E08B819C81A901481B590BCA01880F56
S1134A50991F9C012F5F3F4F81E090E0FC0102C051
S1134A60EE0FFF1F2A95E2F79F018A8D882F90E0B1
S1134A70BC016052710989819A81880F991F01963E
S1134A80E2E3E69FA001E79F500D1124840F951FD8
S1134A908C589A4E9D8B8C8B8C899D89FC018491BA
S1134AA08E8B8E89882F90E0822393231816190603
S1134AB024F49D8188A1890F8D8328E030E08B81C7
S1134AC09C81A901481B590BCA019C01220F331F69
S1134AD081E090E0FC0102C0EE0FFF1F2A95E2F78F
S1134AE09F018A8D882F90E0BC01605271098981F1
S1134AF09A81880F991F0196E2E3E69FA001E79F40
S1134B00500D1124840F951F8C589A4E988F8F8BBB
S1134B108F89988DFC018491898F898D882F90E0ED
S1134B20822393231816190624F49D818F8D890FEF
S1134B308D838D810E94A91E8B819C8101969C830B
S1134B408B838B819C8108970CF475CE8C8D9CE1B2
S1134B50980F8B8D845E692F0E94DD1E8D8D2EE152
S1134B60280F99818D8D890F8F5F622F0E94F31E0C
S1134B700E94091F89819A8101969A838983898178
S1134B809A8149970CF454CE0000A0960FB6F8947D
S1134B90DEBF0FBECDBFDF91CF910F91EF90CF90CD
S1134BA00895CF92EF920F93CF93DF93CDB7DEB7F3
S1134BB06A970FB6F894DEBF0FBECDBF8C8B6D8B9A
S1134BC04E8B2F8B088FE98ECA8E8E899CE1980FAD
S1134BD08D89845E692F0E94DD1E8F898F5E682F08
S1134BE08F890E94F31E0E94091F1F821E821A824F
S1134BF019821A82198223C11C821B8202C11D825E
S1134C008B819C8104970CF07AC023E030E08B8187
S1134C109C81A901481B590BCA01880F991F9C014B
S1134C202F5F3F4F81E090E0FC0102C0EE0FFF1FB9
S1134C302A95E2F79F018C89882F90E0BC0160528D
S1134C40710989819A81880F991FE6E2E69FA00184
S1134C50E79F500D1124840F951F8A52974F99870F
S1134C60888788859985FC0184918A878A85882F1D
S1134C7090E0822393231816190624F49D818A8DCB
S1134C80890F8D8323E030E08B819C81A901481B2F
S1134C90590BCA019C01220F331F81E090E0FC01F3
S1134CA002C0EE0FFF1F2A95E2F79F018C89882F1F
S1134CB090E0BC016052710989819A81880F991F23
S1134CC0E6E2E69FA001E79F500D1124840F951F93
S1134CD08A52974F9C878B878B859C85FC01849196
S1134CE08D878D85882F90E08223932318161906CB
S1134CF00CF07FC09D81898D890F8D837AC027E058
S1134D0030E08B819C81A901481B590BCA01880F93
S1134D10991F9C012F5F3F4F81E090E0FC0102C08E
S1134D20EE0FFF1F2A95E2F79F018C89882F90E0F0
S1134D30BC016052710989819A81880F991F01967B
S1134D40E6E2E69FA001E79F500D1124840F951F12
S1134D508A52974F9F878E878E859F85FC01849109
S1134D60888B8889882F90E082239323181619064C
S1134D7024F49D818A8D890F8D8327E030E08B8117
S1134D809C81A901481B590BCA019C01220F331FA6
S1134D9081E090E0FC0102C0EE0FFF1F2A95E2F7CC
S1134DA09F018C89882F90E0BC0160527109898130
S1134DB09A81880F991F0196E6E2E69FA001E79F7A
S1134DC0500D1124840F951F8A52974F9A8B898B0B
S1134DD089899A89FC0184918B8B8B89882F90E037
S1134DE0822393231816190624F49D81898D890F33
S1134DF08D838D810E94A91E8B819C8101969C8349
S1134E008B838B819C8107970CF4F9CE8E899CE16E
S1134E10980F8D89845E692F0E94DD1E8F8921E1A0
S1134E20280F99818F89890F8F5F622F0E94F31E4B
S1134E300E94091F89819A8101969A8389838981B5
S1134E409A8141970CF4D8CE00006A960FB6F89474
S1134E50DEBF0FBECDBFDF91CF910F91EF90CF900A
S1134E600895CF93DF93CDB7DEB727970FB6F894A5
S1134E70DEBF0FBECDBF8B837D836C834E832F83B8
S1134E808C819D819A8389832F814E8160E681E0A4
S1134E900E94992089819A81FC0180812F814E8111
S1134EA0682F8B810E94992089819A8101969A8327
S1134EB089838E818E5F8E8389819A81FC018081B2
S1134EC0882309F0E7CF0000000027960FB6F89476
S1134ED0DEBF0FBECDBFDF91CF910895AF92CF92C9
S1134EE0EF92FF920F93CF93DF93CDB7DEB72C975A
S1134EF00FB6F894DEBF0FBECDBF9C838B836D834A
S1134F004E832F830887FA86E986CB86AC861A827D
S1134F1019821CC08B819C81FC018081CC84EB8430
S1134F2008852F814E816D810E94ED238B819C81A8
S1134F3001969C838B838D818C5F8D838E818C5FA6
S1134F408E8389819A8101969A83898329813A8102
S1134F5089859A8528173907E8F200002C960FB640
S1134F60F894DEBF0FBECDBFDF91CF910F91FF90BC
S1134F70EF90CF90AF900895AF92CF92EF92FF92BF
S1134F800F93CF93DF93CDB7DEB72C970FB6F8947A
S1134F90DEBF0FBECDBF9C838B836D834E832F8377
S1134FA00887FA86E986CB86AC861A8219821CC0E9
S1134FB08B819C81FC018081CC84EB8408852F81CA
S1134FC04E816D810E94D1258B819C8101969C83A9
S1134FD08B838D818D5F8D838E818D5F8E8389819F
S1134FE09A8101969A83898329813A8189859A8550
S1134FF028173907E8F200002C960FB6F894DEBFA4
S11350000FBECDBFDF91CF910F91FF90EF90CF9066
S1135010AF900895CF93DF93CDB7DEB765970FB602
S1135020F894DEBF0FBECDBF8D8B8D8980788983C8
S11350308D89882F90E0807499279595879595950B
S11350408795959587958A838D898072880F880FB7
S11350508B838D89882F90E080719927959587950A
S11350608C838D8988708295807F8D838D898470EF
S1135070880F8E838D8982708295880F880F807C3B
S11350808F838D898170880F880F880F8887898125
S1135090982F96958981982B898186958695982B4A
S11350A08981869586958695892B89878A81982F0B
S11350B096958A81982B8A8186958695982B8A81E4
S11350C0869586958695892B8A878B81982F9695C8
S11350D08B81982B8B8186958695982B8B818695D1
S11350E086958695892B8B878C81982F96958C81B4
S11350F0982B8C8186958695982B8C8186958695A0
S11351008695892B8C878D81982F96958D81982BE8
S11351108D8186958695982B8D8186958695869525
S1135120892B8D878E81982F96958E81982B8E81D1
S113513086958695982B8E81869586958695892B5E
S11351408E878F81982F96958F81982B8F81869546
S11351508695982B8F81869586958695892B8F8742
S11351608885982F96958885982B88858695869529
S1135170982B8885869586958695892B888B998525
S11351808A85892B898B9B858C85892B8A8B9D8528
S11351908E85892B8B8B9F858889892B8C8B89891C
S11351A00E94A91E8A890E94A91E8B890E94A91E99
S11351B08C890E94A91E000065960FB6F894DEBF84
S11351C00FBECDBFDF91CF910895CF93DF93CDB7BD
S11351D0DEB727970FB6F894DEBF0FBECDBF9F830F
S11351E08E8363E98CE10E94DD1E6FE780E00E94FC
S11351F0F31E0E94091F19822BC01A8223C08981C1
S1135200882F90E09C01220F331F22953295307F26
S11352103227207F32278A81882F90E0820F931FC4
S11352209C018E819F81820F931F9C838B838B8132
S11352309C81FC0184918D838D810E940A288A813E
S11352408F5F8A838A818C33D0F289818F5F8983CF
S11352508981803490F2000027960FB6F894DEBF5F
S11352600FBECDBFDF91CF910895CF93DF93CDB71C
S1135270DEB789EB0E94751E0000DF91CF9108957F
S1135280CF93DF93CDB7DEB785E290E025E230E03F
S1135290F90120812F7BFC0120838AE090E00E94A9
S11352A0521E85E290E025E230E0F901208120647D
S11352B0FC01208382E10E945C2080E00E94871F21
S11352C081E90E94A71F8FE30E94362080E00E949C
S11352D0391F80E00E94281F84E10E94141F80E08F
S11352E00E94D01F81E00E94761F6DEF80EA0E9429
S11352F0B81F8FE70E9414208FE00E9425200E948F
S1135300352982EE0E94961F80E20E9447208FE199
S11353100E94F21F88E00E94E11F87E00E940320A0
S113532082E00E944A1F40E060E081E00E94591F31
S113533080E00E946E2081E00E94871F0000DF91C0
S1135340CF9108955058BB27AA270E94BA290C94DC
S1135350C22A0E94B42A38F00E94BB2A20F039F4F1
S11353609F3F19F426F40C94B12A0EF4E095E7FB60
S11353700C94AB2AE92F0E94D32A58F3BA17620778
S113538073078407950720F079F4A6F50C94F52AA1
S11353900EF4E0950B2EBA2FA02D0B01B90190014C
S11353A00C01CA01A0011124FF27591B99F0593F90
S11353B050F4503E68F11A16F040A22F232F342FD8
S11353C04427585FF3CF469537952795A795F04026
S11353D05395C9F77EF41F16BA0B620B730B840B3B
S11353E0BAF09150A1F0FF0FBB1F661F771F881FF3
S11353F0C2F70EC0BA0F621F731F841F48F487954B
S113540077956795B795F7959E3F08F0B0CF93953C
S1135410880F08F09927EE0F9795879508950E94B5
S1135420872A08F481E008950E941B2A6894B11128
S11354300C94F62A08950E94DB2A88F09F5798F06E
S1135440B92F9927B751B0F0E1F0660F771F881F85
S1135450991F1AF0BA95C9F714C0B13091F00E949F
S1135460F52AB1E008950C94F52A672F782F882740
S1135470B85F39F0B93FCCF3869577956795B395C6
S1135480D9F73EF490958095709561957F4F8F4F35
S11354909F4F0895E89409C097FB3EF4909580953A
S11354A0709561957F4F8F4F9F4F9923A9F0F92FE6
S11354B096E9BB279395F695879577956795B79564
S11354C0F111F8CFFAF4BB0F11F460FF1BC06F5F4A
S11354D07F4F8F4F9F4F16C0882311F096E911C05C
S11354E0772321F09EE8872F762F05C0662371F07D
S11354F096E8862F70E060E02AF09A95660F771F91
S1135500881FDAF7880F9695879597F90895990F6C
S11355100008550FAA0BE0E8FEEF16161706E80779
S1135520F907C0F012161306E407F50798F0621B9A
S1135530730B840B950B39F40A2661F0232B242B6F
S1135540252B21F408950A2609F4A140A6958FEF8E
S1135550811D811D089597F99F6780E870E060E0E0
S113556008959FEF80EC089500240A9416161706F8
S113557018060906089500240A9412161306140640
S113558005060895092E0394000C11F4882352F0A3
S1135590BB0F40F4BF2B11F460FF04C06F5F7F4F5B
S11355A08F4F9F4F089557FD9058440F551F59F042
S11355B05F3F71F04795880F97FB991F61F09F3FFC
S11355C079F087950895121613061406551FF2CF25
S11355D04695F1DF08C0161617061806991FF1CF75
S11355E086957105610508940895E894BB2766279C
S11355F07727CB0197F908950E94872A08F48FEF43
S113560008950E94112B29ED3BE54EED5EE30C94C9
S1135610592B16F00C94C62B0C94B12A68940C9454
S1135620AB2A0E94DB2AA8F39923C1F3AEF3DF93DC
S1135630CF931F930F93FF92C92FDD2788232AF05E
S11356402197660F771F881FDAF720E030E040E8E3
S11356505FEB9FE3883920F0803E38F021968F7706
S11356600E94A329ECE7F0E004C00E94A329E9EA20
S1135670F0E00E94D42B8B01BE01EC01FB2E6F578E
S113568071097595771F880B990B0E944C2A28E1A4
S113569032E741E35FE30E946C2BAF2D9801AE012A
S11356A0FF900F911F91CF91DF910E94BA290C9422
S11356B0C22A0E946C2B0C94C22A0E94B42A38F08D
S11356C00E94BB2A20F0952311F00C94AB2A0C9471
S11356D0B12A11240C94F62A0E94D32A70F3959FC0
S11356E0C1F3950F50E0551F629FF001729FBB27D5
S11356F0F00DB11D639FAA27F00DB11DAA1F649F71
S11357006627B00DA11D661F829F2227B00DA11D23
S1135710621F739FB00DA11D621F839FA00D611DA9
S1135720221F749F3327A00D611D231F849F600DCA
S1135730211D822F762F6A2F11249F5750409AF0F3
S1135740F1F088234AF0EE0FFF1FBB1F661F771F7F
S1135750881F91505040A9F79E3F510580F00C944A
S1135760AB2A0C94F62A5F3FE4F3983ED4F3869573
S113577077956795B795F795E7959F5FC1F7FE2BEA
S1135780880F911D9695879597F908959F3F31F05D
S1135790915020F4879577956795B795880F911D5B
S11357A09695879597F90895DF93CF931F930F9359
S11357B0FF92EF92DF927B018C01689406C0DA2E8F
S11357C0EF010E946C2BFE01E894A591259135917F
S11357D045915591A6F3EF010E94BA29FE01970164
S11357E0A801DA9469F7DF90EF90FF900F911F9171
S11357F0CF91DF910895AA1BBB1B51E107C0AA1FDB
S1135800BB1FA617B70710F0A61BB70B881F991F5D
S11358105A95A9F780959095BC01CD01089597FB01
S1135820072E16F4009407D077FD09D00E94FB2BB5
S113583007FC05D03EF4909581959F4F089570958F
S113584061957F4F0895A1E21A2EAA1BBB1BFD018F
S11358500DC0AA1FBB1FEE1FFF1FA217B307E4074B
S1135860F50720F0A21BB30BE40BF50B661F771FA3
S1135870881F991F1A9469F7609570958095909583
S11358809B01AC01BD01CF010895A29FB001B39F5C
S1135890C001A39F700D811D1124911DB29F700D35
S11358A0811D1124911D0895FB01DC010D90002040
S11358B0E9F7119701900D920020E1F70895453220
S11358C0510520F4423010F00C946A2CFB01108234
S11358D0CB010895BB274A3031F4992322F4BDE269
S11358E0909581959F4F0C94762CBB27FB015527EF
S11358F0AA27880F991FAA1FA41710F0A41B839529
S11359005051B9F7A05DAA3308F0A95DA19300979F
S113591079F7B111B1931192CB010C948F2CDC0166
S1135920FC01672F71917723E1F7329704C07C91D2
S11359306D9370836291AE17BF07C8F30895F8940E
S1055940FFCF93
S113594200004F00000007000700147F147F142496
S11359522A7F2A122313086462364955225000050D
S1135962030000001C2241000041221C0014083ED6
S1135972081408083E080800503000000808080807
S113598208006060000020100804023E5149453EB0
S113599200427F400042615149462141454B311842
S11359A214127F1027454545393C4A494930017153
S11359B20905033649494936064949291E0036363E
S11359C20000005636000008142241001414141476
S11359D21400412214080201510906324979413E58
S11359E27E1111117E7F494949363E414141227F50
S11359F24141221C7F494949417F090909013E412C
S1135A0249497A7F0808087F00417F4100204041CC
S1135A123F017F081422417F404040407F020C0234
S1135A227F7F0408107F3E4141413E7F09090906F8
S1135A323E4151215E7F09192946464949493101AE
S1135A42017F01013F4040403F1F2040201F3F4053
S1135A5238403F631408146307087008076151490A
S1135A624543007F41410002040810200041417F68
S1135A7200040201020440404040400102040000CC
S1135A8220545454787F4844443838444444203899
S1135A924444487F3854545418087E090102064984
S1135AA249493F7F0804047800447D400020404473
S1135AB23D007F1028440000417F40007C0418040C
S1135AC27C7C0804047838444444387C1414140854
S1135AD2081414187C7C0804040848545454200400
S1135AE23F4440203C4040207C1C2040201C3C4041
S1135AF230403C44281028440C5050503C446454D8
S1135B024C44000836410000007F00000041360882
S1135B120002010204023E55554122000000000029
S1135B2200007900001824742E24487E4942405D06
S1135B322222225D15167C161500007700000A55F4
S1135B425555280001000100000A0D0A0408142A10
S1135B521422040404041C000808080001010101C1
S1135B6201000205020044445F44440000040201AF
S1135B727E2020103E060F7F007F001818000000D0
S1135B8240502000000A0D0A0022142A14081708A3
S1135B92342A7D1708046A59304845402070292662
S1135BA228707028262970702A252A7072292629BD
S1135BB2707029242970702A2D2A707E117F494918
S1135BC20E515171117C555654447C555654447CA3
S1135BD2565556447C5554554400457E4400004471
S1135BE27E450000467D460000457C45007F4949CC
S1135BF2413E7C0A11227D384546443838444645A4
S1135C023838464546383846454639384544453895
S1135C1222140814222E5149453A3C4142403C3C4C
S1135C224042413C3C4241423C3C4140413C0C10DC
S1135C3262110C7F1212120C403E01493620555655
S1135C425478205456557820565556782055565532
S1135C5278205554557820565756782454785458F9
S1135C620C52527213385556541838545655183823
S1135C7256555618385554551800497A400000486C
S1135C827A4100004A794200004A784200314A4E81
S1135C924A307A110A097030494A483030484A4930
S1135CA230304A494A30304A494A31304A484A3007
S1135CB208082A08083864544C3838414220783895
S1135CC240422178384241227838424022780C50AE
S1135CD252513C7E141414080C5150513C1E0909B3
